:03000000020008F3
:0300670002000391
:0300030002009266
:10006A00758200121032120687900D46E4F0A3F052
:10007A00900D48F0900D49F0900D4AF0900D4BF01C
:10008A00A3F07582080226D31200C69006007401F6
:10009A00F0E4A3F090E36075F0161200DE12006A35
:1000AA00E5C120E609850882850983120006122621
:0C00BA002B12258E1221E612129F80E40A
:060061007508007509F4AA
:1000C60075A15575A1AA53B3E043B30675B2D875A9
:1000D600A1FF9000070205E3AF82AE83ADF0FC906E
:1000E6000602EFF0EEA3F0EDA3F0ECA3F09006000D
:1000F600E0F5F0A3E045F0600C43C60143C40843B5
:10010600C50C43CE10C29FD29EC29DD29C4387800F
:10011600900602E0FCA3E0FDA3E0FEA3E0FF900D45
:100126005BECF0EDA3F0EEA3F0EFA3F0908D8075FD
:10013600F05BE41227BDAC82AD830CBC00010DED73
:10014600C313CC13CC740F55894420F58943C9A039
:10015600C3E49CFC8C8DD28ED2992210980280FB2F
:1001660085998222E582900606F0E0F5993099FDA0
:10017600D29922E582900609F090060A74C4F074BA
:1001860000A3F07440A3F090060D74BAF07400A3B7
:10019600F07440A3F090061074BCF07400A3F074E1
:1001A60040A3F090061374BEF07400A3F07440A34D
:1001B600F090061674C5F07400A3F07440A3F09096
:1001C600061974BBF07400A3F07440A3F090061CEB
:1001D60074BDF07400A3F07440A3F090061F74BFC2
:1001E600F07400A3F07440A3F0900608E0FF24F931
:1001F600500122EF2F2F9002007302021502029483
:100206000203130203680203E60204660204E49092
:100216000609E0FF8FF005F07401800225E0D5F0B5
:10022600FBF452C6EF75F003A4FFAEF0240AF58284
:10023600EE3406F583E0FBA3E0FCA3E0FD8B828CA5
:10024600838DF0123492FA900607E0F989F005F0F2
:100256007401800225E0D5F0FBF4F952028B828C02
:10026600838DF0EA1229E7EF2416F582EE3406F5BF
:1002760083E0FDA3E0FEA3E0FF8D828E838FF01264
:10028600349252018D828E838FF0E90229E790061F
:1002960009E0FF8FF005F07401800225E0D5F0FB40
:1002A600F452C6EF75F003A4FFAEF0240AF582EE11
:1002B6003406F583E0FBA3E0FCA3E0FD8B828C8390
:1002C6008DF0123492FA900607E0F989F005F07481
:1002D60001800225E0D5F0FBF9F452028B828C8373
:1002E6008DF0EA1229E7EF2416F582EE3406F5833F
:1002F600E0FDA3E0FEA3E0FF8D828E838FF0123433
:100306009242018D828E838FF0E90229E7900609D9
:10031600E0FF8FF005F07401800225E0D5F0FBF4D4
:1003260052C6EF75F003A4240AF582740635F0F57B
:1003360083E0FDA3E0FEA3E0FF8D828E838FF012A3
:100346003492FC900607E0FB8BF005F07401800206
:1003560025E0D5F0FBF442048D828E838FF0EC020B
:1003660029E7900609E0FF8FF005F0740180022569
:10037600E0D5F0FB42C6EF75F003A4FFAEF0240A09
:10038600F582EE3406F583E0FBA3E0FCA3E0FD8BEB
:10039600828C838DF0123492FA900607E0F989F088
:1003A60005F07401800225E0D5F0FBF4F952028BCA
:1003B600828C838DF0EA1229E7EF2416F582EE345B
:1003C60006F583E0FDA3E0FEA3E0FF8D828E838F1A
:1003D600F012349252018D828E838FF0E90229E762
:1003E600900609E0FF8FF005F07401800225E0D544
:1003F600F0FB42C6EF75F003A4FFAEF0240AF582C7
:10040600EE3406F583E0FBA3E0FCA3E0FD8B828CD3
:10041600838DF0123492FA900607E0F989F005F020
:100426007401800225E0D5F0FBF942028B828C83B1
:100436008DF0EA1229E7EF2416F582EE3406F583ED
:10044600E0FDA3E0FEA3E0FF8D828E838FF01234E1
:1004560092FCE9F452048D828E838FF0EC0229E738
:10046600900609E0FF8FF005F07401800225E0D5C3
:10047600F0FB42C6EF75F003A4FFAEF0240AF58246
:10048600EE3406F583E0FBA3E0FCA3E0FD8B828C53
:10049600838DF0123492FA900607E0F989F005F0A0
:1004A6007401800225E0D5F0FBF9F452028B828CB0
:1004B600838DF0EA1229E7EF2416F582EE3406F56D
:1004C60083E0FDA3E0FEA3E0FF8D828E838FF01212
:1004D600349242018D828E838FF0E90229E79006DD
:1004E60009E0FF8FF005F07401800225E0D5F0FBEE
:1004F60042C6EF75F003A4FFAEF0240AF582EE348F
:1005060006F583E0FBA3E0FCA3E0FD8B828C838DE4
:10051600F0123492FA900607E0F989F005F07401BA
:10052600800225E0D5F0FBF942028B828C838DF0A8
:10053600EA1229E7EF2416F582EE3406F583E0FD8C
:10054600A3E0FEA3E0FF8D828E838FF012349242E9
:10055600018D828E838FF0E90229E7AF83E58290D1
:100566000622F0EFA3F010990280FB900622E0FE2F
:10057600A3E0FF8E998E828F832210980280FBAEB5
:10058600997F008E828F8322AF83E582900624F0C6
:10059600EFA3F0900624E0FEA3E0FFEE4F603505E2
:1005A600A105A105A105A105A105A105A105A10515
:1005B600A105A105A105A105A105A105A105A10505
:1005C600A105A105A11EBEFF011F900624EEF0EFB6
:1005D600A3F080C7900624EEF0EFA3F022AF83E5E8
:1005E60082900626F0EFA3F0900626E0FEA3E0FF39
:1005F600EE4F601D9003E8C007C00612058ED006B8
:10060600D0071EBEFF011F900626EEF0EFA3F08076
:10061600DF900626EEF0EFA3F022E582900832F096
:10062600E075F009A4FEAFF02429F582EF3408F551
:1006360083E4F0EE2429FEEF3408FF8E828F83A335
:10064600E4F08E828F83A3A3A3F08E828F83A3A36D
:10065600A3A3F08E828F83A3A3A3A3A3F074062E75
:10066600F582E43FF583E4F074072EF582E43FF566
:1006760083E4F074082EF582E43FF583E4F0F5E4B4
:1006860022C2EA75E28075E3009024477448F09030
:10069600244CE4F0A3F090244E04F0E4A3F0F5D447
:1006A600F5D675E28975D24075D8FF7582001206B7
:1006B6002075E10322E582900833F0E5E35480FFDC
:1006C600E0547F4FF5E322E582900834F0E06007BE
:1006D60053E2BF53D27F2243E24022900628740899
:1006E600F07582001206BB7582011206CD74FB55A9
:1006F600E44402F5E490000F1205E353E4FD900094
:10070600FA12058EC2D822E582900835F0E075F01F
:1007160009A42429FE740835F0FF8E828F83E0FD3C
:10072600BD010050078E828F837401F0E5DB30E354
:1007360047E5E420E03BE5DB30E21D900835E07557
:10074600F009A42429FE740835F0FF8E828F83A356
:10075600A3E4F043E4048019900835E075F009A499
:100766002429FE740835F0FF8E828F83A3A37401BB
:10077600F043E4017582002275821622E582900814
:1007860037F0E075F009A42429FE740835F0FF8ED1
:10079600828F83A3E0F582C007C0061206BBD0068F
:1007A600D0078E828F83A3A3E0F582C007C006120E
:1007B60006CDD006D00774032EFEE43FFF8E828F4F
:1007C60083E0600443D2802253D27F22E5829008E0
:1007D6003BF0900838E0FF8FD48FD690083CE4F0C9
:1007E600A3F090083BE0FEC4540FFDBD0103ED806D
:1007F60001E4F524E4BD090104FB900839E0F9A3FE
:10080600E0FA8ED5C2D97521C8752200E5214522A8
:10081600602C20D929900001C007C006C005C0037E
:10082600C002C00112058ED001D002D003D005D07F
:1008360006D007152174FFB52102152280CE75D585
:100846000020D9047582FE2220D90302094C30DE2D
:100856000475820022E5D9540FF523740EB52304DE
:1008660074018001E4F521600774204523F5822296
:10087600740AB5230474018001E4F8603FE94A7004
:100886000A74204523F52485248222C00389038A1D
:1008960004C3EB94FFEC94FFD003500519B9FF0194
:1008A6001AC00390083CE024FFFBA3E034FFFC9051
:1008B600083CEBF0ECA3F0D00302094FE524700BE3
:1008C600EB7031BD0D02800302094830DE047582EB
:1008D60000227402B5230475820022E5217003E824
:1008E600600774204523F58222E523605C74204569
:1008F60023F5822230DE0475820022EF600D740B30
:10090600B5230474018001E4FC800B7403B5230451
:1009160074018001E4FCEC600475820022E521701C
:1009260003E8600774204523F582227403B5230784
:10093600740BB523028012E523600E74204523F55F
:1009460082227582FE2275D8FF90000FC007C0066E
:10095600C005C003C002C00112058ED001D002D06E
:1009660003D005D006D00790083CE02401F0A3E0B0
:100976003400F090083CE0F8A3E0FCC3E894C8EC2F
:100986009400500302080875822022AF83E5829006
:100996000843F0EFA3F0900843E0FEA3E0FF9008C1
:1009A60047EEF0EFA3F090083EE0FBA3E0FCA3E0E7
:1009B600FD9000C8C007C006C005C004C0031205EC
:1009C6008ED003D004D005D006D007EB4C600E8B3A
:1009D600828C838DF0E41229E7A31229E775D708E4
:1009E600900838E4F09008397410F07427A3F07575
:1009F60082D0C007C006C005C004C0031207D2AA31
:100A060082D003D004D005D006D007EA60038A82DC
:100A160022C006C00775D6D075D4D075D70190010F
:100A260007E0FA7900900106E07F004201EF4202FA
:100A3600900845E9F0EAA3F0D007D006E94A70032A
:100A4600020C6EEE4F7003020C6E900100E020E780
:100A560003020B49900845E0FEA3E0FF4E70030237
:100A66000B4390012CC007C006C005C004C003128A
:100A7600058E900838E5D4F09008397410F0742784
:100A8600A3F07582901207D2AA82D003D004D005B3
:100A9600D006D007EA60038A8222A9D17A00C3E988
:100AA6009EEA9F5004A9D180048E018F0289079087
:100AB6000845E0FAA3E0FE8F007F00EAC398FAEE4D
:100AC6009FFE900845EAF0EEA3F0EB4C60248B8283
:100AD6008C838DF0123492FAA3123492FEE82AF82F
:100AE600EF3EFF8B828C838DF0E81229E7A3EF128D
:100AF60029E7900847E0FEA3E0FF7A00C3EA995091
:100B060018EA2EF525E43FF5268A82758300E085EE
:100B16002582852683F00A80E3900847E0FEA3E05D
:100B2600FF900847E92EF0E43FA3F0E5D1600E9070
:100B36000628E0FFC3E5D19F4003020A5A75D70095
:100B4600020C6E900845E0FEA3E0FF4E7003020C17
:100B56006E9000C8C007C006C005C004C0031205D9
:100B66008ED003D004D005D006D007900628E0F931
:100B76007A00C3EE99EF9A920050048E018F028993
:100B8600D7900847E0FEA3E0FF900D68EEF0EFA3D4
:100B9600F0E4A3F0900D6BE5D7F0E4A3F09001002C
:100BA600F5F0C007C006C005C004C0031228B1D0C6
:100BB60003D004D005D006D007E5D72EFEE43FFFCC
:100BC600900847EEF0EFA3F08E828F83A3E0FABA87
:100BD600091D900DB5E0C0F0F5F0740165F0D0F098
:100BE60060027401FA900DB5F08E828F83EAF09060
:100BF6000838E5D6F09008397410F07427A3F0751C
:100C06008210C005C004C0031207D2AF82D003D041
:100C160004D005EF60038F8222AFD7900845E0FA33
:100C2600A3E0FE8F017F00EAC399FAEE9FFE9008CB
:100C360045EAF0EEA3F0EB4C7003020B498B828C75
:100C4600838DF0123492FEA3123492FFA9D77A0054
:100C5600E92EFEEA3FFF8B828C838DF0EE1229E7A8
:100C6600A3EF1229E7020B499000C812058EE5D7BB
:100C760060047F9080027F1090083874C0F090085E
:100C8600397410F07427A3F08F821207D2E582FF21
:100C960060038F8222E5D77003F58222E5D17003C7
:100CA600F5822275821722AF83E58290084AF0EF1B
:100CB600A3F090084AE0FEA3E0FF900849E0FD7C1F
:100CC60000C3EC9D50168C027B01EC2EF582E43FAE
:100CD600F583E4938A828B83F00C80E522900628C4
:100CE6007408F0900849F09034B2120CAD90083EAA
:100CF600744CF07408A3F0E4A3F0900841F0740279
:100D0600A3F0900629120991E582FF60038F8222E3
:100D1600900630E0900628F09034B8E493FF9008EF
:100D26004CE0FDA3E0FE7C00C3ED9FEE9C500475F5
:100D360082172275820022E58290084EF0900849BB
:100D46007408F09034CA120CAD90084EE0FF900182
:100D560002F090083EE4F0A3F0A3F0900841F0A35F
:100D6600F0900000C007120991AE82D007EE600332
:100D76008E82228F821206BB9000641205E3758272
:100D86000022E58290084FF09008497408F09034EC
:100D9600DA120CAD90084FE0900102F090083EE4A4
:100DA600F0A3F0A3F0900841F0A3F0900000020930
:100DB60091E582900850F09008497408F09034D27A
:100DC600120CAD900850E0FF900102F090083EE44E
:100DD600F0A3F0A3F0900841F07402A3F090062966
:100DE600C007120991AE82D007EE60038E82229070
:100DF60008497408F09034D2C007120CADD00790A1
:100E06000102EFF0900629E0900106F090083EE41A
:100E1600F0A3F0A3F0900841F07402A3F090062925
:100E2600020991AF83E582900856F0EFA3F090088F
:100E360056E0FEA3E0FF8E828F83E07C0024FEFD59
:100E4600EC34FFA2E713CD13CD8E828F83A3E0FC93
:100E5600BC0302800475820022900853E0F529A3A2
:100E6600E0F52A900851E0F52DA3E0F52E852D2713
:100E7600852E287800C3E89D5070C005AC29AD2AA0
:100E8600EC24FFF52BED34FFF52C88037D00C3EB36
:100E9600952BED952CD0055051C00588037C00EBB1
:100EA6002BFBEC33FC74032BFAE43CFDEA2EFAED43
:100EB6003FFD8A828D83E0D005600FE82527F58205
:100EC600E43528F583743FF0801DE8252DF9E435D7
:100ED6002EFA74022BFBE43CFCEB2EF582EC3FF57C
:100EE60083E089828A83F008808BE8252DF582E4E9
:100EF600352EF583E4F0FF900855E0FE0E900D4682
:100F0600EDF0EFA3F0900D48EEF0900D497434F03B
:100F1600900D4A7456F0900D4BE52DF0E52EA3F09A
:100F26007582051226D375820122AF83E582900869
:100F360058F0EFA3F0900858E0FEA3E0FF7C007D98
:100F4600008E828F83E0FB7A00C3EC9BED64808A7F
:100F5600F063F08095F050070CBC00E50D80E222AE
:100F66009008497408F09034BA120CAD90083E749B
:100F76005AF07408A3F0E4A3F0900841F07402A3B9
:100F8600F0900629120991E582FF60038F82229074
:100F960034C0E493FF90085AE0FDA3E0FE7C00C352
:100FA600ED9FEE9C50047582172290062BE0FF7E83
:100FB6000090062CE0FCE42FFFEC3EFE90084974FE
:100FC60008F09034BAC007C006120CADD006D007A0
:100FD6008F05900106EDF08E07900107EFF090085F
:100FE6003E745AF07408A3F0E4A3F0900841F0743C
:100FF60002A3F0900629120991E582FF60038F8211
:1010060022758200229008497408F09034C2120CAE
:10101600AD90083E745CF07408A3F0E4A3F0900869
:1010260041F07402A3F0900629020991E582900A24
:10103600CAF0E0FF900D7CF0E4A3F0900112C00727
:10104600122A02AD82AE83D007ED24A6F582EE34D5
:1010560008F583E4F0A3F0A3F0A3F0ED24A6FDEEDB
:101066003408FE8D828E83A3A3A3A3E4F0A3F0A38A
:10107600F0A3F074082DF582E43EF583E4F0A3F0C6
:10108600A3F0A3F0740C2DF582E43EF583E4F0A3FF
:10109600F0A3F0A3F074102DF582E43EF583E4F09E
:1010A60074912DF582E43EF583E4F0FEEE75F009C9
:1010B600A4245EFC740835F0FD74012CFAE43DFBB3
:1010C6008A828B83E0B507348C828D83E4F08A8232
:1010D6008B83F08C828D83A3A3F08C828D83A3A354
:1010E600A3F08C828D83A3A3A3A3F0A3F0A3F0A304
:1010F600F074082CF582E43DF583E4F00EBE08009A
:1011060040AA227F00EF75F009A4FDAEF0245EFB35
:10111600EE3408FC8B828C83E06033ED245EFDEEBA
:101126003408FE8D828E83A3A3A3A3E0FBA3E0FC79
:10113600A3E0FDA3E0FEBB0615BC0012BD000FBE7A
:10114600000C90004BC007120561D007802AEF758E
:10115600F009A4245EFD740835F0FE8D828E83E0CE
:10116600600C90003FC007120561D007800A90000E
:1011760045C007120561D0070FBF080040872290BF
:1011860008AEE0FCA3E0FDA3E0FEA3E0FF9008B2FA
:10119600E0F52FA3E0F530A3E0F531A3E0F53290BA
:1011A60008A6E0F533A3E0F534A3E0F535A3E0F5B2
:1011B600369008AAE0F8A3E0F9A3E0FAA3E0FBC0A2
:1011C60004C005C006C007C02FC030C031C032C041
:1011D60033C034C035C036C000C001C002C003747D
:1011E6002AC0E07435C0E07480C0E0122A70E58140
:1011F60024EDF5817437C0E07409C0E0E4C0E07402
:10120600B6C0E07408C0E0E4C0E07444C0E07435E1
:10121600C0E07480C0E0122A70E58124F7F58122CF
:10122600E582900ACBF0E0FF7E00EE75F009A4FCA3
:10123600ADF0245EFAED3408FB8A828B83E06052BF
:10124600EC245EFCED3408FD8C828D83A3A3A3A35E
:10125600E0F8A3E0F9A3E0FAA3E0FBB80634B9008E
:1012660031BA002EBB002B8C828D83A3E0FD900843
:1012760036E4F08D82C007C006120782D006D0077A
:10128600900ADDEFF08E82C007C006121757D0060F
:10129600D0070EBE0800409222900ACDE4F0FFEF80
:1012A60075F009A4FDAEF0245EFBEE3408FC8B82DB
:1012B6008C83E0700302144EED245EFDEE3408FECE
:1012C6008D828E83A3A3A3A3E0F9A3E0FAA3E0FB98
:1012D600A3E0FCB9060BBA0008BB0005BC000280FF
:1012E6000302144E8D828E83A3E0FC900836E4F050
:1012F6008C82C007C006C005120782D005D006D072
:10130600078D828E83A3A3A3E0FE747F5E4490FDC7
:10131600EE30E7047EC080027E00900838EEF09042
:101326000839E4F0A3F08D82C0071207D2E582D017
:10133600076003021426EF75F009A4245EFD740805
:1013460035F0FE74032DFBE43EFC8B828C83E0FAC1
:101356006302808B828C83EAF0900ACCE5D1F0E0C0
:10136600FAE070030214268A017A008D828E83A326
:10137600A3A3A3E0F88B828C83E0FB53037F8D82CB
:101386008E83A3E0900D7CF0E4A3F0900112C007D9
:10139600C003C002C001C000122A02AD82AE83D0D3
:1013A60000D001D002D003D007ED24A6F582EE349A
:1013B60008F583E0F537ED24A6FDEE3408FE8D82B0
:1013C6008E83A3A3A3A3E0F53874082DF582E43E2B
:1013D600F583E0FC740C2DF582E43EF583E0FE9087
:1013E6000D4DE9F0EAA3F0900D4FE8F0900D50EFA7
:1013F600F0900D51EBF0900D527400F07400A3F0D4
:10140600900D54E537F0900D55E538F0900D56ECFB
:10141600F0900D57EEF0758204C0071226D4D0075F
:10142600EF75F009A4245EFD740835F0FE74082DEE
:10143600F582E43EF583E0FE900ACDE0FDC39E40D2
:10144600028D06900ACDEEF00FBF0800500302127F
:10145600A5900ACDE0FF7E008F828E830205E3AF62
:1014660083E582900AD1F0EFA3F0900AD3E4F0A3CB
:10147600F0900AD5F0900AD6F0900AD1E0F51BA3B9
:10148600E0F51CAC1BAD1C900AD0E075F009A42455
:101496005EFA740835F0FB900ACEE0F519A3E0F584
:1014A6001A900AD3E0F515A3E0F516C3E5159519CC
:1014B600E516951A400122C002C003E515251BF565
:1014C60082E516351CF583E0FB900AD774FC5BF0C9
:1014D60074035BF515900AD8F0900AD9E4F0A3F0EE
:1014E600A3F0A3F07403B515028006D003D00280E2
:1014F6000BD003D002900AD8E51504F0900AD3E089
:10150600F515A3E0F516900AD8E0F517751800C38F
:10151600E5189517505AC002C003AA15AB160ABAA9
:1015260000010BA8187900E82AFAE93BFBEA2CF53A
:1015360082EB3DF583E0F8E4FAFBE518C40354F8C2
:10154600FF8FF005F0800CE828F8E933F9EA33FA62
:10155600EB33FBD5F0F1900AD9E048F0A3E049F06F
:10156600A3E04AF0A3E04BF00518D003D002809F19
:10157600900AD5E0FF900AD7E0FEE4BEC00104F56C
:101586001879008F15751600E5186008751D017528
:101596001E008005E4F51DF51EC002C003E515C357
:1015A600951DF8E516951EFB89027E00C3EA98EEA6
:1015B60064808BF063F08095F0D003D0025003096D
:1015C60080C1900AD7E0FFBF04028062BF08028094
:1015D60077BF1403021732BF1803021732BF240362
:1015E600021732BF2803021732BF3403021732BF75
:1015F6004403021732BF6403021732BF7403021793
:1016060032BF8003021732BF8403021732BF900332
:10161600021732BF9403021732BFA003021723BF7B
:10162600B003021732BFC00302172C021732900A0A
:10163600D9E0A3E0F9A3E0FEA3E0FFC3E994FFEE3F
:101646009400EF9400021732900AD6E07032C0047C
:10165600C00574042AFEE43BFF900AD9E0F8A3E033
:10166600F9A3E0FCA3E0FD8E828F83E8F0E9A3F006
:10167600ECA3F0EDA3F0900AD67401F0D005D004E7
:10168600900AD9E0F8A3E0F9A3E0FEA3E0FFC37453
:101696003898E499E49EE49F5003021732E8240A3E
:1016A60083F582E8243D83F583E4733232323232A5
:1016B6003232323232323232323232323232323204
:1016C60032323232323232323232323232323232F4
:1016D60032323232323232323232323232323232E4
:1016E6003232323217171717171717171717171718
:1016F6001717171717171717171717171717171774
:101706001717171717171717171717171717171763
:1017160017171717171717171717171717900AD529
:10172600E02401F08006900AD5E014F0900AD8E093
:10173600FF7E000FBF00010E900AD3E0F8A3E0F988
:10174600EF28F8EE39F9900AD3E8F0E9A3F002148D
:10175600A7E582900ADEF09008497408F09034EA12
:10176600120CAD900ADEE075F009A4245EFE740842
:1017760035F0FF8E828F83A3A3E0900104F09001E1
:10178600067401F0900ADDE0900629F090083E7498
:10179600DFF0740AA3F0E4A3F0900841F0A3F09000
:1017A60006290209919008497408F09034FA120C3F
:1017B600AD900AE1E0900102F090083E74E2F07408
:1017C6000AA3F0E4A3F0900841F0A3F090062902E2
:1017D6000991E582900AE4F09008497408F0903483
:1017E600E2120CAD900AE4E075F009A4245EFE74E2
:1017F6000835F0FF74022EFEE43FFF8E828F83E0F1
:10180600900104F090083E74E5F0740AA3F0E4A396
:10181600F0900841F0A3F0900629C007C00612090F
:10182600919008497408F09034F2120CADD006D0AD
:10183600078E828F83E0900104F0900106E4F09019
:1018460001077402F090083E74E5F0740AA3F0E410
:10185600A3F0900841F07402A3F0900629120991B2
:10186600E582FF60038F82227E007F00900AE5E01A
:10187600FCA3E0FDC3EE9CEF9D50070EBE00ED0FEE
:1018860080EA900AE4E0FF75F009A4245EFB740880
:1018960035F0FE8B828E83A3A3E0FA8B828E83A320
:1018A600E0FE900D46ECF0EDA3F0900D48EFF090C1
:1018B6000D49EAF0900D4AEEF0900D4B7429F07444
:1018C60006A3F0758207C0071226D3D007900AE553
:1018D600E0FDA3E0FE900ACEEDF0EEA3F0900AD074
:1018E600EFF090062912146575820022222222E565
:1018F60082900AEBF0900CEEE4F0A3F0900CF0F07E
:10190600900AEBE0FF75F009A42429FD740835F070
:10191600FE8D828E83A3E0FE900638E0FD900637AA
:10192600E0FCED70030219BD8D82C007C006C0043D
:10193600120DB7900629120F30D004D006D00790AA
:1019460008517429F07406A3F0900853E4F0740269
:10195600A3F0900855EFF0900629C007C006C00412
:10196600120E29E582D004D006D007604A900D7C7D
:10197600EFF0E4A3F0900112C006C004122A02ADF3
:1019860082AF83ED24A6FDEF3408FF74912DFDE4AC
:101996003FFF7B00900D707429F07406A3F0E4A35A
:1019A600F0900D737480F0E4A3F08D828F838BF03A
:1019B600122925D004D006EC7003021A478C82C087
:1019C60006120DB7900629120F30D006900AEBE0EA
:1019D600FF9008517429F07406A3F0900853E4F0C0
:1019E6007402A3F0900855EFF0900629C007C006D0
:1019F600120E29E582D006D0076046900D7CEFF0E6
:101A0600E4A3F0900112C006122A02AD82AF83ED64
:101A160024A6FDEF3408FF74102DFDE43FFF7C0083
:101A2600900D707429F07406A3F0E4A3F0900D7382
:101A36007480F0E4A3F08D828F838CF0122925D078
:101A460006C006120F66AF82D006EF60038F8222B1
:101A560090062BE0FF7D0090062CE0FBE42FFFEBC9
:101A66003DFD900AEBE0FC0C900D46EFF0EDA3F087
:101A7600900D48EEF0900D49ECF0900D4A74AAF0E6
:101A8600900D4B7429F07406A3F07582061226D3C6
:101A96007E007F0090062BE0FD7C0090062CE0FA8D
:101AA600E42DFDEA3CFC8E028F03C3EA9DEB9C50BD
:101AB600070EBE00DF0F80DC90062EE0F582120DC9
:101AC6008890062BE0FF7E0090062CE0FCE4FD2FBC
:101AD600FFEC3EFE7C00C3EC9FED9E501FEC24EE17
:101AE600FAED340AFBEC2429F582ED3406F583E0A1
:101AF6008A828B83F00CBC00DD0D80DA900629E02B
:101B0600900AECF0E4A3F0900AEBE0F53C853C3D4E
:101B1600900AECE0FAA3E0FBC3EA9FEB9E400302C7
:101B26001D36EA24EEFAEB340AFB900CF1EAF0EBF0
:101B3600A3F08A828B83A3E0F9B90402801AB9055F
:101B460002807CB92103021CABB92403021CDCB958
:101B56002503021CED021CFE8A008B01900CEEE8A8
:101B6600F0E9A3F0900AE7E8F0E9A3F0853C82C02B
:101B760007C006C001C0001218F2D000D001D0067E
:101B8600D00788828983A3A3A3A3A3E0FCBC031E7A
:101B9600740628F582E439F583E0FCBC011074076D
:101BA60028F582E439F583E0F9B901028004C2011F
:101BB6008002D201900CF0A201E433F0021D0D8ADE
:101BC600828B83C007C006C003C002120F30D0024A
:101BD600D003D006D007900CF0E07003021D0D8AEA
:101BE600008B01740228F539E439F53A8539828586
:101BF6003A83E020E703021D0D753B00E53B75F0D7
:101C060009A4245EFC740835F0FD8C828D83E060A7
:101C160008053B74F8253B50E3C007C006E53B7555
:101C2600F009A4245EFD740835F0FF74032DF53E1B
:101C3600E43FF53F853982853A83E0853E82853FDC
:101C460083F08D828F837401F0042DF53EE43FF519
:101C56003F900CEEE0FCA3E0FE8C828E83A3A3E013
:101C6600853E82853F83F08D828F83A3E53DF074A8
:101C7600082DFDE43FFF740628F582E439F583E07C
:101C8600FE8D828F83F0853B82C007C0061217D86F
:101C9600900AE1E4F0853B821217ABD006D007D05C
:101CA60006D0078062900CEEE0FCA3E0FD900CEEFF
:101CB600E0F5F0A3E045F0604E8A008B01900AE95A
:101CC600E8F0E9A3F08C828D83C007C0061218F3F2
:101CD600D006D00780318A828B83C007C006120FD8
:101CE60030D006D00780208A828B83C007C00612B8
:101CF6000F30D006D007800F8A828B83C007C006BC
:101D0600120F30D006D007900CF1E0FCA3E0FD8C5A
:101D1600828D83E0FC900AECE0FBA3E0FD7A00EC08
:101D26002BFBEA3DFD900AECEBF0EDA3F0021B164F
:101D360075820022E582900CF4F0E02404FF9008FE
:101D4600497408F0903512C007120CAD900CF3E000
:101D5600FE900104F090083EE4F0A3F0A3F0900892
:101D660041F0A3F0900000C006120991AD82D006A2
:101D7600D007ED60038D8222900032C007C00612A4
:101D860005E39008497408F090351A120CADD00698
:101D9600900104EEF090083E74F5F0740CA3F0E4A4
:101DA600A3F09008417404F0E4A3F0900629C0065D
:101DB600120991AD82D006D007ED60038D82229084
:101DC600062AE030E1047D0180027D009008497416
:101DD60008F0903522C007C006C005120CADD0052C
:101DE600D0069001027414F0900104EEF090083EC3
:101DF600E4F0A3F0A3F0900841F0A3F0900000C037
:101E060006C0051209917582001206BBD005D006E0
:101E1600D00753E2BFED600543D280800353D27FE3
:101E26009006287408F0C007C006C005120CE3AC83
:101E360082D005D006D007EC60038C8222C00590C4
:101E46000CF4E0F542900D7CF0E4A3F0900112C092
:101E560007C006C005122A02AA82AB83D005D006A7
:101E6600D007EA24A6F540EB3408F541900631E0A8
:101E7600F879007C007D00854082854183E8F0E9A1
:101E8600A3F0ECA3F0EDA3F0EA24A6FAEB3408FBEA
:101E960074042AF540E43BF541900632E0F87900F7
:101EA600854082854183E8F0E9A3F0ECA3F0EDA339
:101EB600F074082AF540E43BF541900633E0F879E2
:101EC60000854082854183E8F0E9A3F0ECA3F0EDBC
:101ED600A3F0740C2AFAE43BFB900634E0F87D008C
:101EE6008A828B83E8F0E9A3F0ECA3F0EDA3F08FF0
:101EF60082C007C006C005120D3D858240D005D0C0
:101F060006D007D005E540600485408222E542758B
:101F1600F009A42429FB740835F0FC8B828C83A37A
:101F2600EFF074022BFBE43CFCED60047A008002C7
:101F36007A018B828C83EAF0900CF4E0FC75F00950
:101F4600A42429FA740835F0FB8A828B83A3A3A301
:101F5600EDF074072AF582E43BF583EFF074082A66
:101F6600F582E43BF583EEF08C820218F5E582906B
:101F76000CF7F0900CFCE4F0120F66E582FF6003AC
:101F86008F822290062EE0FF90062BE0FE7D0090C9
:101F9600062CE0FBE42EFEEB3DFD900629E0900CBE
:101FA600FAF0E4A3F0900CFAE0FBA3E0FCC3EB9E8E
:101FB600EC9D5056EB2429FBEC3406FC900CFDEB13
:101FC600F0ECA3F08B828C83A3E0FABA05128B8225
:101FD6008C83A3A3E0FC30E707900CFCECF0802A8E
:101FE600900CFDE0FBA3E0FC8B828C83E0FB900C65
:101FF600FAE0FAA3E0FC8B017B00E92AFAEB3CFC51
:10200600900CFAEAF0ECA3F0809B8F82120D88E523
:1020160082FF60038F82229008497408F09035028F
:10202600120CAD90083E74F8F0740CA3F0E4A3F023
:10203600900841F07402A3F0900629120991E582F6
:10204600FF60038F822290062BE0FF7E01C3EF9E86
:1020560040359008497408F090350AC007C006124A
:102066000CADD006900104EEF090083EE4F0A3F02B
:10207600A3F0900841F0A3F0900000C00612099169
:10208600D006D0070E80C6900064C0071205E3D0C4
:1020960007900CF7E075F009A42429FD740835F0C3
:1020A600FE8D828E83A3A3A3A37401F074052DFB7A
:1020B600E43EFC900CFCE08B828C83F074062DF5DC
:1020C60082E43EF583EFF074072DF582E43EF58356
:1020D600E4F074082DF582E43EF583E4F07E01C356
:1020E600EF9E40589008497408F090351AC007C012
:1020F60006120CADD006900104EEF090083E74F87E
:10210600F0740CA3F0E4A3F09008417404F0E4A387
:10211600F0900629C006120991E582D006D0077014
:1021260018900629E030E011900CF7E0FD900CF3D2
:10213600EEF08D82121D3A80030E80A37582002276
:10214600E582900CFFF0E0FF7E00EE75F009A4FC3E
:10215600ADF0245EFAED3408FB8A828B83E0604B97
:10216600EC245EFCED3408FD74012CFAE43DFB8A98
:10217600828B83E0B507348C828D83E4F08A828B70
:1021860083F08C828D83A3A3F08C828D83A3A3A37B
:10219600F08C828D83A3A3A3A3F0A3F0A3F0A3F0F6
:1021A60074082CF582E43DF583E4F00EBE08004089
:1021B60099900CFFE075F009A42429FE740835F007
:1021C600FF74072EF582E43FF583E4F074082EF5DC
:1021D60082E43FF583E4F08E828F83A3A3A3F022EB
:1021E60090082DE070012290082EE0FF7001227504
:1021F6008202C0071206BBD00753E2BF53D27F74D8
:102206007F5F4490FEEF30E7047FC080027F00903E
:102216000838EFF0900839E4F0A3F08E821207D266
:10222600E58260012290082EE06480F0AED17F0046
:10223600900D01EEF0EFA3F0EE4F7001229000003A
:10224600E0FF900D007401F0FE90082FE0C39E5051
:1022560001228EF005F07C017D008006EC2CFCED61
:1022660033FDD5F0F78F027B00EA5204EB5205EC02
:102276004D700302232E9008497408F090351AC059
:1022860007C006120CADD006900104EEF090083E91
:102296007401F0740DA3F0E4A3F09008417404F007
:1022A600E4A3F0900629C006120991E582D006D073
:1022B600077075900629E0FD90062BE030E06990E6
:1022C60008497408F0903522C006C005120CADD03E
:1022D60005D0069001027410F0900104EEF090080B
:1022E6003EE4F0A3F0A3F0900841F0A3F0900000C4
:1022F600C006C005120991D005D006ED30E0119058
:102306000830E0700B900CF3EEF0758200021D3A77
:10231600ED20E01D900831E0FD900D00E0FCEDB5EC
:10232600040F7582000221460E900D00EEF0022287
:102336004F22E582900D03F0900D04E4F0900D031A
:10234600E0FFFEFD75F009A4F54485F0458F49755B
:102356004800900064C007C006C0051205E390005F
:10236600641205E38549821210328549821206E11C
:10237600D005D006D0077800900001C007C006C07F
:1023860005C0001205E3D000D005D006D0078F8225
:10239600C007C006C005C00012070DE582D000D0F8
:1023A60005D006D007600608B8640040CBB86414B0
:1023B6008F82C007C006C005120620D005D006D001
:1023C6000702257C900836E4F08E82C007C006C05E
:1023D60005120782120CE3A882D005D006D007901A
:1023E6000D04E8F0E8600302252FC00590062DE0F5
:1023F600F543900D7CEEF0E4A3F0900112C007C007
:1024060006122A02A882AD83E824A6F546ED340812
:10241600F547900631E0F97A007B007C008546821C
:10242600854783E9F0EAA3F0EBA3F0ECA3F0E824F8
:10243600A6F8ED3408FD740428F546E43DF547900A
:102446000632E0F97A00854682854783E9F0EAA3F9
:10245600F0EBA3F0ECA3F0740828F546E43DF5474D
:10246600900633E0F97A00854682854783E9F0EAEB
:10247600A3F0EBA3F0ECA3F0740C28F8E43DFD9078
:102486000634E0F97C0088828D83E9F0EAA3F0EB5C
:10249600A3F0ECA3F0900629C005120F30D005D0AA
:1024A600069034CCE4932EF546854682C006120D7E
:1024B6003DAD82D006D007900D04EDF0EDD005704D
:1024C60068EE75F009A42429FB740835F0FC8B82AC
:1024D6008C83A3E546F08B828C83A3A3A3E4F074DC
:1024E60009B543278B828C83A3A37401F08E82C027
:1024F60007C006C005121F73AC82D005D006D007F0
:10250600900D04ECF0EC7021F582228E82C007C09B
:1025160006C0051218F5AC82D005D006D007900D7E
:1025260004ECF0EC7003F582228D040C900D04E0AF
:10253600FB900D46E4F0A3F0900D48ECF0900D49A9
:10254600EBF0900D4A74EEF0900D4BE4F0A3F075AD
:102556008203C007C006C0051226D3E5442429F528
:1025660082E5453408F5837402F07582011206CDC2
:10257600D005D006D007054874F625484003022347
:1025860058900D04E0F58222900D05E4F010D80372
:10259600022624E5DB30E349900829E06008E5E4FB
:1025A60030E0030226247582001206209008297462
:1025B60001F0900D46E4F0A3F0900D4804F0900D64
:1025C60049F0900D4AF0900D4BE4F0A3F0758201AE
:1025D6001226D3758200122338E582900D05F0800D
:1025E6003D900829E0FFBF010040337582001210BC
:1025F60032758200120620900D46E4F0A3F0900D8D
:102606004804F0900D49F0900D4AF0900D4BE4F01F
:10261600A3F07582021226D3900D057416F0900D64
:0526260005E0F5822231
:1034B20080060001000012008006000200001200D7
:1034C200810600040000090000050200000000005F
:1034D2008006000309040200000900000000000049
:1034E200210A000000000000210900020000000083
:1034F200810600220000FF00210B000000000000F6
:10350200A00600290000400023030800010000007B
:103512002303040001000000A300000001000400D6
:10352200230100000100000030782530326C78253C
:1035320030326C783A30782530326C782530326C03
:0B3542007800202D2025732025730049
:01356000006A
:10262B0010980122AF99BF0A02800D900DB6E0FE03
:10263B00BE040050030226BD900D06E0FDBDC91778
:10264B009000551205611211099000561205619008
:10265B00000A120561804FBDC4119000451205613F
:10266B0012118590000A120561803BBDD6209000A7
:10267B00571205619000821205619000811205616D
:10268B0090008012056190000A1205618018BDD27E
:10269B000512006A8010BDCC0D900D07E0FD5305AF
:1026AB001F8D82121226900DB6E4F0900D06F002EB
:1026BB00262BEE2406F582E4340DF583EFF0900D16
:1026CB00B6E02401F002262B22E582900D58F09003
:1026DB000D5974FEF0E4A3F0900D58E0FFBF040217
:1026EB00800122900D4FE0FFBF0602800122900077
:1026FB00FE120561900D52E0FEA3E0FF900D4DE040
:10270B00FCA3E0FD7A007B00C3EA9CEB9D5031C03B
:10271B0004C005EA2EF582EB3FF583E0F9900D59E5
:10272B00E0F8A3E0FD7C00E928F8EC3DFD900D59A5
:10273B00E8F0EDA3F00ABA00010BD005D00480C875
:10274B00900D59E0FAA3E0FB740A2AFAE43BFB90E4
:10275B000D59EAF0EBA3F08E028F030EBE00010FB2
:10276B00900D59E0F8A3E0C3E4988E828F83F07E3E
:10277B00007F00C3EE9CEF9D5032EE2AF582EF3BBB
:10278B00F583E0F8790088828983C007C006C0050D
:10279B00C004C003C002120561D002D003D004D024
:1027AB0005D006D0070EBE00CA0F80C790000A02E4
:0227BB000561B6
:08354D00AA5556455202010087
:013561000069
:1027BD00AF82AE83ADF0FC900D5FEFF0EEA3F0EDC8
:1027CD00A3F0ECA3F0900D63E4F0A3F0A3F0A3F05D
:1027DD00900D5BE0FCA3E0FDA3E0FEA3E0FF7B20FA
:1027ED00C003900D5FE0F8A3E0F9A3E0FAA3E0FBCE
:1027FD00900D67235401F0E828F8E933F9EA33FA2C
:10280D00EB33FB900D5FE8F0E9A3F0EAA3F0EBA347
:10281D00F0900D63E0F8A3E0F9A3E0FAA3E0FBE884
:10282D0028F8E933F9EA33FAEB33FB900D63E8F05E
:10283D00E9A3F0EAA3F0EBA3F0D003900D67E060FD
:10284D0008900D63E043E001F0900D63E0F515A3F2
:10285D00E0F516A3E0F517A3E0F518C3E5159CE523
:10286D00169DE5179EE5189F401F900D63E515C356
:10287D009CF0E5169DA3F0E5179EA3F0E5189FA328
:10288D00F0900D5FE043E001F01BEB60030227EDDC
:10289D00900D5FE0FCA3E0FDA3E0FEA3E08C828D34
:0428AD00838EF02204
:06003700E478FFF6D8FD9D
:1028B100AFF0AE83E582900D6DF0EEA3F0EFA3F0E3
:1028C100900D6DE0F515A3E0F516A3E0F517AA1537
:1028D100AB16AC17900D68E0F8A3E0F9A3E0FF9008
:1028E1000D6BE0F518A3E0F519AD18AE19151874C4
:1028F100FFB518021519ED4E6020888289838FF08B
:10290100123492FEA3A882A9838A828B838CF0EE73
:102911001229E7A3AA82AB8380CF8515828516830E
:042921008517F02204
:100015007902E94400601B7A0190356078B575A0D6
:100025000DE493F2A308B8000205A0D9F4DAF2753D
:02003500A0FF2A
:10292500AFF0AE83E582900D75F0EEA3F0EFA3F066
:10293500900D75E0FDA3E0FEA3E0FF900D78EDF0AE
:10294500EEA3F0EFA3F0900D73E0FBA3E0FC900D78
:1029550070E0F8A3E0F9A3E0FAEB4C6034888289D3
:10296500838AF0123492F51560271BBBFF011C0802
:10297500B80001098D828E838FF0E5151229E7A332
:10298500AD82AE83900D75EDF0EEA3F0EFA3F08070
:10299500C8900D75EDF0EEA3F0EFA3F08B018C025E
:1029A5001BBBFF011CE94A601C8D828E838FF0E4FE
:1029B5001229E7A3AD82AE83900D75EDF0EEA3F07D
:1029C500EFA3F080D7900D75EDF0EEA3F0EFA3F037
:1029D500900D78E0FDA3E0FEA3E0FF8D828E838F4E
:1029E500F02220F71130F6138883A88220F509F626
:1029F500A8837583002280FEF280F5F022AA83ABBE
:102A0500828BF0900D7CE0A4F8A9F08AF0E0A4296F
:0D2A1500F98BF0A3E0A429F583888222222A
:10003D007800E84400600A790075A006E4F309D859
:10004D00FC78B5E84407600C7908900600E4F0A34D
:04005D00D8FCD9FAF8
:02000600E473A1
:102A2200C0148581147E008E83120561D01422AFFA
:102A3200F0AE83E582900D7FF0EEA3F0EFA3F0906D
:102A42000D7FE0FDA3E0FEA3E0FF900D7EE0FC9091
:102A52000D93E4F0A3F0A3F0900D96EDF0EEA3F049
:102A6200EFA3F0900D99ECF0902A22022B76C0147D
:102A7200E581F51424FBFF900D93E4F0A3F0A3F09D
:102A8200E51424FBF8900D96E6F008E6A3F008E6BC
:102A9200A3F0900D99EFF0902A22122B76D01422F7
:102AA200E582900D8FF0E0FF900D85E0C0E0A3E09D
:102AB200C0E0A3E0C0E0122ABD800D900D83E0C00B
:102AC200E0A3E0C0E08F8222158115811581900D6F
:102AD2008DE02401F0A3E03400F022E582900D9015
:102AE200F0E02430FF24C6500D74072FFF900D82B2
:102AF200E060034307208F82022AA2E582900D91B3
:102B0200F0E0FFC4540FF582C007122ADDD007534C
:102B1200070F8F82022ADDE582900D92F0900D88D8
:102B2200E0FCA3E0FDA3E0FEA3E0FF900D8CE0FB40
:102B3200900D92E0FA79208B00E828F515EF2354E6
:102B4200014515FBEC2CFCED33FDEE33FEEF33FFBC
:102B5200C3EB9A4007EBC39AFB43040119E970D710
:102B6200900D88ECF0EDA3F0EEA3F0EFA3F0900D42
:102B72008CEBF022AF83E582900D9AF0EFA3F090F8
:102B82000D9AE0FEA3E0FF900D83EEF0EFA3F0902C
:102B92000D93E0FDA3E0FEA3E0FF900D85EDF0EEC6
:102BA200A3F0EFA3F0900D8DE4F0A3F0900D96E06A
:102BB200FDA3E0FEA3E0FF8D828E838FF01234929C
:102BC200FC900D9674012DF0E43EA3F0EFA3F0EC1F
:102BD200700302346EBC25028003023466900D9CA1
:102BE200E4F0900D9DF0900D9EF0900D9FF0900DF1
:102BF200A0F0900DA1F0900DA2F0900DA3F0900D19
:102C0200A5F0900DA6F0A3F0900DA814F0A3F090FB
:102C12000D96E0FDA3E0FEA3E0FF8D828E838FF090
:102C2200123492FBA3AD82AE83900D96EDF0EEA32B
:102C3200F0EFA3F0900DACEBF0BB25088B82122ACB
:102C4200A2022BAEBB30005003022D0FEB24C65064
:102C520003022D0F900DA8E0F50AA3E0F50B74FF17
:102C6200B50A63B50B60C005C006C007900DA6E0AB
:102C7200FAA3E0FF900D7CEAF0EFA3F090000AC007
:102C820005C003122A02AE82AF83D003D0058B05A2
:102C92007A00ED2EFEEA3FFFEE24D0FEEF34FFFF76
:102CA200900DA6EEF0EFA3F0D007D006D005900D60
:102CB200A6E0F5F0A3E045F06003022C1C900D9D08
:102CC2007401F0022C1CC005C006C007900D7CE503
:102CD2000AF0E50BA3F090000AC006C005C003127B
:102CE2002A02AA82AF83D003D005D0067E00EB2A47
:102CF200FAEE3FFFEA24D0FAEF34FFFF900DA8EA84
:102D0200F0EFA3F0D007D006D005022C1C900DAC3A
:102D1200E0FBBB2E2FC005C006C007900DA8E0FA4D
:102D2200A3E0FFBAFF05BFFF028009D007D006D09B
:102D320005022C1CD007D006D005900DA8E4F0A304
:102D4200F0022C1CBB61004014EB2485400F900D57
:102D5200AC74DF5BF0900D827401F08005900D82FF
:102D6200E4F0900DACE0FBBB20028075BB2B02802F
:102D720067BB2D028059BB4202806FBB4302807C3D
:102D8200BB4403023006BB460302302CBB4803029D
:102D92002C1CBB4903023006BB4A03022C1CBB4C51
:102DA200028050BB4F03023014BB5003022F74BB8E
:102DB20053028077BB5403022C1CBB550302301C08
:102DC200BB5803023024BB5A03022C1C023034903D
:102DD2000D9C7401F0022C1C900D9E7401F0022CCB
:102DE2001C900D9F7401F0022C1C900DA17401F037
:102DF200022C1C900DA27401F0022C1C900DA1E07B
:102E0200600E900D99E014F9F0900DACE7F0800F90
:102E1200900D99E024FEFFF08F01900DACE7F09049
:102E22000DACE0F582122AA2023043900D99E02403
:102E3200FDFFF08F01870509870609870719199099
:102E42000D88EDF0EEA3F0EFA3F08D828E838FF06C
:102E520012347A85820A85830B900DA8E0FAA3E0EA
:102E6200FDBAFF0DBDFF0A900DA8E50AF0E50BA320
:102E7200F0900D9CE0704B900DA6E0FAA3E0FDC32C
:102E8200E50A9AE50B9D503A900DA6EAC3950AF021
:102E9200ED950BA3F0900DA6E0FAA3E0FD8A068D56
:102EA200071ABAFF011DEE4F6010758220C005C0DF
:102EB20002122AA2D002D00580E3900DA6EAF0ED1C
:102EC200A3F0900DA8E0F50DA3E0F50E900D88E0BB
:102ED200FAA3E0FDA3E0FF8A828D838FF012349281
:102EE200F50C603CC3E4950D7480850EF063F080B0
:102EF20095F0502C150D74FFB50D02150E850C8240
:102F0200122AA2900D88E0FAA3E0FDA3E0FF0ABA1C
:102F120000010D900D88EAF0EDA3F0EFA3F080AC74
:102F2200900D9CE07003023043900DA6E0FEA3E0FA
:102F3200FFC3E50A9EE50B9F4003023043900DA6B6
:102F4200EEC3950AF0EF950BA3F0900DA6E0FEA359
:102F5200E0FF8E028F051EBEFF011FEA4D700302C5
:102F6200303B758220C007C006122AA2D006D007C5
:102F720080E0900D99E024FDFDF08D01870F098717
:102F8200100987111919900D88E50FF0E510A3F0CB
:102F9200E511A3F0900D8AE0FDBD80004008900D80
:102FA200AC7443F08020BD60004008900DAC7450BA
:102FB200F08013BD40004008900DAC7449F08006CB
:102FC200900DAC7458F0900DACE0FDF582C0051286
:102FD2002AA275823A122AA2758230122AA2758218
:102FE20078122AA2D005BD4902800EBD5002800986
:102FF200900D89E0F582122AFD900D88E0F582128B
:103002002AFD803D900DA07401F0900DA5740AF088
:10301200802F900DA57408F08027900DA5740AF0FA
:10302200801F900DA57410F08017900DA37401F00D
:10303200800F8B82122AA28008900DA6EEF0EFA3D9
:10304200F0900DA3E06071900D99E024FCFFF08FE9
:103052000187030987050987060987071919199046
:103062000D88EBF0EDA3F0EEA3F0EFA3F0900D8846
:103072007455F07435A3F07480A3F0900D88E0F5D8
:103082000FA3E0F510A3E0F5117401250FFAE43562
:1030920010FBAF11900D88EAF0EBA3F0EFA3F085DF
:1030A2000F828510838511F0123492FF7003022B78
:1030B200AE8F82122AA280C3900DA5E07003022B6C
:1030C200AE900DA1E06047900D99E014F9F08707EA
:1030D2007E007D007B00900D88EFF0EEA3F0EDA363
:1030E200F0EBA3F0900DA0E06003023186900D8812
:1030F200E0FBA3E0A3E0A3E07D007E007F00900D53
:1031020088EBF0EDA3F0EEA3F0EFA3F08076900D44
:10311200A2E06028900D99E024FCFFF08F01870364
:10312200098705098706098707191919900D88EB80
:10313200F0EDA3F0EEA3F0EFA3F08048900D99E03C
:1031420024FEFFF08F01870609870719EF3395E008
:10315200FDFB900D88EEF0EFA3F0EDA3F0EBA3F0F2
:10316200900DA0E0701E900D88E0FBA3E0FDA3E0AF
:10317200A3E07E007F00900D88EBF0EDA3F0EEA3BC
:10318200F0EFA3F0900DA0E0603D900D88E0A3E089
:10319200A3E0A3E030E72B900D88E0FBA3E0FDA3C2
:1031A200E0FEA3E0FFC3E49BFBE49DFDE49EFEE49E
:1031B2009FFF900D88EBF0EDA3F0EEA3F0EFA3F0EC
:1031C2008005900DA0E4F0900DA47401F0900DA57F
:1031D200E0F50D7512B275130DE4F50AF50B900DBD
:1031E2008CE4F0850D82122B19900DA4E0703390BF
:1031F2000D8CE0C454F0F50F900D8CE0C4540F45D3
:103202000FF50F851282851383E0FFE50F420785D4
:103212001282851383EFF0151274FFB51202151393
:10322200800B900D8CE0851282851383F0050AE4F1
:10323200B50A02050B900DA4E0B40100E433F0904E
:103242000D88E0FAA3E0FBA3E0FEA3E0FFEA4B4E09
:103252004F708B900DB3E512F0E513A3F0900DAA19
:10326200E50AF0E50BA3F0900DA6E0F5F0A3E0452A
:10327200F07009900DA67401F0E4A3F0900D9DE0AA
:10328200FFE07047900D9CE07041850A12850B1398
:10329200900DA6E0FAA3E0FBC007AF120F8F067FE6
:1032A20000C3EE9AEF9BD0075019758220C007C069
:1032B20003C002122AA2D002D003D0071ABAFF0119
:1032C2001B80D5900DA6EAF0EBA3F0900DA0E06074
:1032D2002075822DC007122AA2D007900DA6E024E5
:1032E200FFFDA3E034FFFE900DA6EDF0EEA3F0800B
:1032F20056900DAAE0F5F0A3E045F0604A900D9ECD
:10330200E0602075822BC007122AA2D007900DA67A
:10331200E024FFFDA3E034FFFE900DA6EDF0EEA346
:10332200F08024900D9FE0601E758220C007122A53
:10333200A2D007900DA6E024FFFDA3E034FFFE908B
:103342000DA6EDF0EEA3F0900D9CE07044900DAA56
:10335200E0F512A3E0F513900DA6E0FAA3E0FBC09E
:10336200078A068B071ABAFF011BC3E5129EE513F3
:103372009FD007504FEF60047E3080027E208E8205
:10338200C007C003C002122AA2D002D003D0078015
:10339200CE900DA6E0FEA3E0FF900DAAE0F512A3E9
:1033A200E0F513C3E5129EE5139F500F900DA6EEB4
:1033B200C39512F0EF9513A3F08011900DA6E4F0DF
:1033C200A3F08008900DA6EAF0EBA3F0900DB3E015
:1033D200FEA3E0FF900DAAE0F512A3E0F513AA12F6
:1033E200AD13151274FFB512021513EA4D60449025
:1033F2000DA4E0B40100E433F0900DA4E070130ECC
:10340200BE00010F8E828F83E0C4540F900D8CF0AA
:10341200800E8E828F83E0FD53050F900D8CEDF0B0
:10342200900D8CE0F582C007C006122ADDD006D0CE
:103432000780AB900D9CE07003022BAE900DA6E0CE
:10344200FEA3E0FF8E038F051EBEFF011FEB4D7032
:1034520003022BAE758220C007C006122AA2D00634
:10346200D00780E08C82122AA2022BAE900D8DE052
:08347200FEA3E08E82F5832227
:0B3555003C4E4F20464C4F41543E00BE
:10347A00AA82AB831234926003A380F8C3E5829ACE
:08348A00F582E5839BF5832226
:0D0008007581491234AEE5826003020003E9
:1034920020F71430F6148883A88220F507E6A88363
:1034A20075830022E280F7E49322E02275820022F3
:00000001FF
