:03000000020008F3
:0300670002000391
:0300030002009860
:10006A0075820012107275820112107212065F9068
:10007A000D32E4F0A3F0900D34F0900D35F0900DB0
:10008A0036F0900D37F0A3F07582080221B4120001
:10009A00CA9006007401F0E4A3F090E36075F016CC
:1000AA00E41200E212006AE5C120E60985088285A9
:1000BA00098312000612210C121FE21212E080E7D5
:060061007508007509F4AA
:1000CA0075A15575A1AA53B3E043B30675B2D875A5
:1000DA00A1FF9000070205EEAF82AE83ADF0FC905F
:1000EA000602EFF0EEA3F0EDA3F0ECA3F090060009
:1000FA00E0F5F0A3E045F0600C43C60143C40843B1
:10010A00C50C43CE10C29FD29EC29DD29C4387800B
:10011A00900602E0FCA3E0FDA3E0FEA3E0FF900D41
:10012A0047ECF0EDA3F0EEA3F0EFA3F0908D80750D
:10013A00F05BE41222A1AC82AD830CBC00010DED90
:10014A00C313CC13CC740F55894420F58943C9A035
:10015A00C3E49CFC8C8DD28ED2992210980280FB2B
:10016A0085998222E582900606F0E0F5993099FD9C
:10017A00D29922E582900609F090060A74C4F074B6
:10018A0000A3F07440A3F090060D74BAF07400A3B3
:10019A00F07440A3F090061074BCF07400A3F074DD
:1001AA0040A3F090061374BEF07400A3F07440A349
:1001BA00F090061674C5F07400A3F07440A3F09092
:1001CA00061974BBF07400A3F07440A3F090061CE7
:1001DA0074BDF07400A3F07440A3F090061F74BFBE
:1001EA00F07400A3F07440A3F0900608E0FF24F92D
:1001FA00500122EF2F2F9002047302021902029972
:10020A0002031902036F0203EE02046F0204EE9066
:10021A000609E0FFFE8EF005F07401800225E0D5A4
:10022A00F0FBF452C6EF75F003A4FFAEF0240AF512
:10023A0082EE3406F583E0FBA3E0FCA3E0FD8B82AB
:10024A008C838DF0122F73FA900607E0F989F00576
:10025A00F07401800225E0D5F0FBF4F952028B829A
:10026A008C838DF0EA1224CBEF2416F582EE340645
:10027A00F583E0FDA3E0FEA3E0FF8D828E838FF07D
:10028A00122F7352018D828E838FF0E90224CB9054
:10029A000609E0FFFE8EF005F07401800225E0D524
:1002AA00F0FBF452C6EF75F003A4FFAEF0240AF592
:1002BA0082EE3406F583E0FBA3E0FCA3E0FD8B822B
:1002CA008C838DF0122F73FA900607E0F989F005F6
:1002DA00F07401800225E0D5F0FBF9F452028B821A
:1002EA008C838DF0EA1224CBEF2416F582EE3406C5
:1002FA00F583E0FDA3E0FEA3E0FF8D828E838FF0FD
:10030A00122F7342018D828E838FF0E90224CB90E3
:10031A000609E0FFFE8EF005F07401800225E0D5A3
:10032A00F0FBF452C6EF75F003A4240AF5827406B2
:10033A0035F0F583E0FDA3E0FEA3E0FF8D828E8316
:10034A008FF0122F73FC900607E0FB8BF005F07418
:10035A0001800225E0D5F0FBF442048D828E838F62
:10036A00F0EC0224CB900609E0FFFE8EF005F07453
:10037A0001800225E0D5F0FB42C6EF75F003A4FF29
:10038A00AEF0240AF582EE3406F583E0FBA3E0FC26
:10039A00A3E0FD8B828C838DF0122F73FA900607EF
:1003AA00E0F989F005F07401800225E0D5F0FBF44C
:1003BA00F952028B828C838DF0EA1224CBEF241639
:1003CA00F582EE3406F583E0FDA3E0FEA3E0FF8D9F
:1003DA00828E838FF0122F7352018D828E838FF05B
:1003EA00E90224CB900609E0FFFE8EF005F07401C5
:1003FA00800225E0D5F0FB42C6EF75F003A4FFAEFC
:10040A00F0240AF582EE3406F583E0FBA3E0FCA3B0
:10041A00E0FD8B828C838DF0122F73FA900607E031
:10042A00F989F005F07401800225E0D5F0FBF94264
:10043A00028B828C838DF0EA1224CBEF2416F5828C
:10044A00EE3406F583E0FDA3E0FEA3E0FF8D828E85
:10045A00838FF0122F73FCE9F452048D828E838FFE
:10046A00F0EC0224CB900609E0FFFE8EF005F07452
:10047A0001800225E0D5F0FB42C6EF75F003A4FF28
:10048A00AEF0240AF582EE3406F583E0FBA3E0FC25
:10049A00A3E0FD8B828C838DF0122F73FA900607EE
:1004AA00E0F989F005F07401800225E0D5F0FBF946
:1004BA00F452028B828C838DF0EA1224CBEF24163D
:1004CA00F582EE3406F583E0FDA3E0FEA3E0FF8D9E
:1004DA00828E838FF0122F7342018D828E838FF06A
:1004EA00E90224CB900609E0FFFE8EF005F07401C4
:1004FA00800225E0D5F0FB42C6EF75F003A4FFAEFB
:10050A00F0240AF582EE3406F583E0FBA3E0FCA3AF
:10051A00E0FD8B828C838DF0122F73FA900607E030
:10052A00F989F005F07401800225E0D5F0FBF94263
:10053A00028B828C838DF0EA1224CBEF2416F5828B
:10054A00EE3406F583E0FDA3E0FEA3E0FF8D828E84
:10055A00838FF0122F7342018D828E838FF0E9020E
:10056A0024CBAF83E582900622F0EFA3F010990224
:10057A0080FB900622E0FEA3E0FF8E998E828F8395
:10058A002210980280FBAE997F008E828F8322AF61
:10059A0083E582900624F0EFA3F0900624E0FEA300
:1005AA00E0FFEE4F603505A105A105A105A105A152
:1005BA0005A105A105A105A105A105A105A105A101
:1005CA0005A105A105A105A105A105A11EBEFF0161
:1005DA001F900624EEF0EFA3F080C7900624EEF0F9
:1005EA00EFA3F022AF83E582900626F0EFA3F09006
:1005FA000626E0FEA3E0FFEE4F601D9003E8C00769
:10060A00C006120599D006D0071EBEFF011F90062C
:10061A0026EEF0EFA3F080DF900626EEF0EFA3F0CF
:10062A0022E58290082FF0E0FF75F003A4FDAEF0FA
:10063A002429F582EE3408F583E4F0ED2429FDEE51
:10064A003408FE8D828E83A3E4F0EF600475E50022
:10065A002275E40022C2EA75E28075E3009024471D
:10066A007448F090244CE4F0A3F090244E04F0E493
:10067A00A3F0F5D4F5D675E28975D24075D8FF7521
:10068A00820012062B75820112062B75E10322E500
:10069A0082900830F0E5E35480FFE0547F4FF5E3A1
:1006AA0022E582900831F0E0600753E2BF53D27F1F
:1006BA002243E24022E582900832F090062874082C
:1006CA00F07582001206997582011206AB90083203
:1006DA00E0FFE0701374FB55E44402F5E490000F68
:1006EA001205EE53E4FD8014BF011174FB55E54475
:1006FA0002F5E590000F1205EE53E5FD9000FA129F
:10070A000599C2D822E582900833F0E075F003A477
:10071A002429FE740835F0FF8E828F83E0FDBD0127
:10072A000050078E828F837401F0900833E0FF70C7
:10073A0049E5DB20E3030207CDE5E420E035E5DB0C
:10074A0030E21AEF75F003A42429FD740835F0FE8F
:10075A008D828E83A3A3E4F043E4048016EF75F040
:10076A0003A42429FD740835F0FE8D828E83A3A389
:10077A007401F043E40175820022BF0146E5DB30D3
:10078A00E741E5E520E035E5DB30E61AEF75F003F1
:10079A00A42429FD740835F0FE8D828E83A3A3E478
:1007AA00F043E5048016EF75F003A42429FE7408CB
:1007BA0035F0FF8E828F83A3A37401F043E50175A0
:1007CA0082002275821622E582900835F0E075F0E3
:1007DA0003A42429FE740835F0FF8E828F83A3E0D8
:1007EA00F582C007C006120699D006D0078E828FFE
:1007FA0083A3A3E0F5820206ABE582900839F09064
:10080A000836E0FF8FD48FD690083AE4F0A3F09030
:10081A000839E0FEC4540FFDBD0103ED8001E4F583
:10082A0024E4BD090104FB900837E0F9A3E0FA8E3D
:10083A00D5C2D97521C8752200E5214522602C2030
:10084A00D929900001C007C006C005C003C002C074
:10085A0001120599D001D002D003D005D006D007E5
:10086A00152174FFB52102152280CE75D50020D935
:10087A00047582FE2220D90302097D30DE047582C6
:10088A000022E5D9540FF523740EB52304740180B0
:10089A0001E4F521600774204523F58222740AB524
:1008AA00230474018001E4F8603FE94A700A742065
:1008BA004523F52485248222C00389038A04C3EBD5
:1008CA0094FFEC94FFD003500519B9FF011AC00335
:1008DA0090083AE024FFFBA3E034FFFC90083AEBCF
:1008EA00F0ECA3F0D003020980E524700BEB703121
:1008FA00BD0D02800302097930DE0475820022747C
:10090A0002B5230475820022E5217003E8600774AA
:10091A00204523F58222E523605C74204523F58275
:10092A002230DE0475820022EF600D740BB52304B9
:10093A0074018001E4FC800B7403B5230474018004
:10094A0001E4FCEC600475820022E5217003E86092
:10095A000774204523F582227403B52307740BB567
:10096A0023028012E523600E74204523F582227546
:10097A0082FE2275D8FF90000FC007C006C005C0CE
:10098A0003C002C001120599D001D002D003D005DC
:10099A00D006D00790083AE02401F0A3E03400F032
:1009AA0090083AE0F8A3E0FCC3E894C8EC9400503D
:1009BA000302083975822022AF83E582900841F04C
:1009CA00EFA3F0900841E0FEA3E0FF900845EEF0A7
:1009DA00EFA3F090083CE0FBA3E0FCA3E0FD90004D
:1009EA00C8C007C006C005C004C003120599D003D9
:1009FA00D004D005D006D007EB4C600E8B828C83D6
:100A0A008DF0E41224CBA31224CB75D708900836B4
:100A1A00E4F09008377410F07427A3F07582D0C000
:100A2A0007C006C005C004C003120803AA82D00387
:100A3A00D004D005D006D007EA60038A8222C00615
:100A4A00C00775D6D075D4D075D701900107E0FAE2
:100A5A007900900106E0F87F004201EF4202900817
:100A6A0043E9F0EAA3F0D007D006E94A7003020C82
:100A7A00ABEE4F7003020CAB900100E0FF20E703DE
:100A8A00020B80900843E0FEA3E0FF4E7003020BC6
:100A9A007A90012CC007C006C005C004C003120525
:100AAA0099900836E5D4F09008377410F07427A3AB
:100ABA00F0758290120803AA82D003D004D005D020
:100ACA0006D007EA60038A8222A9D17A00C3E99E86
:100ADA00EA9F5006A9D17A0080048E018F02890606
:100AEA007F00900843E0F8A3E0FAE8C39EF8EA9F83
:100AFA00FA900843E8F0EAA3F0EB4C60248B828C6E
:100B0A00838DF0122F73F8A3122F73FAEE28FEEFDB
:100B1A003AFF8B828C838DF0EE1224CBA3EF122442
:100B2A00CB900845E0FEA3E0FF7A00C3EA99501C87
:100B3A00C001EA2EF525E43FF5268A82758300E096
:100B4A00852582852683F00AD00180DF900845E05A
:100B5A00FEA3E0FF900845E92EF0E43FA3F0E5D1BB
:100B6A00600E900628E0FFC3E5D19F4003020A8D7C
:100B7A0075D700020CAB900843E0FEA3E0FF4E706D
:100B8A0003020CAB9000C8C007C006C005C004C071
:100B9A0003120599D003D004D005D006D0079006D9
:100BAA0028E0F97A00C3EE99EF9A920050048E0178
:100BBA008F0289D7900845E0FEA3E0FF900D54EE1E
:100BCA00F0EFA3F0E4A3F0900D57E5D7F0E4A3F01B
:100BDA0090010075F000C007C006C005C004C0033C
:100BEA00122395D003D004D005D006D007E5D72E1E
:100BFA00FEE43FFF900845EEF0EFA3F08E828F836C
:100C0A00A3E0FABA0924900DA1E0F97A0074016907
:100C1A007003EA600679017A00800479007A00900C
:100C2A000DA1E9F08E828F83E9F0900836E5D6F0BF
:100C3A009008377410F07427A3F0758210C005C0AD
:100C4A0004C003120803AF82D003D004D005EF60BA
:100C5A00038F8222AED77F00900843E0F9A3E0FA1F
:100C6A00E9C39EF9EA9FFA900843E9F0EAA3F0EB98
:100C7A004C7003020B808B828C838DF0122F73FED3
:100C8A00A3122F73FFA9D77A00E92EFEEA3FFF8B42
:100C9A00828C838DF0EE1224CBA3EF1224CB020BAD
:100CAA00809000C8120599E5D760047F9080027F82
:100CBA001090083674C0F09008377410F07427A3A7
:100CCA00F08F82120803E582FF60038F8222E5D744
:100CDA007003F58222E5D17003F58222758217220C
:100CEA00AF83E582900848F0EFA3F0900848E0FE51
:100CFA00A3E0FF900847E0FD7C00C3EC9D50178CF1
:100D0A00027B01EC2EF582E43FF583E493F98A82B3
:100D1A008B83F00C80E4229006287408F090084730
:100D2A00F0902F93120CEA90083C744AF07408A3CE
:100D3A00F0E4A3F090083FF07402A3F090062912A1
:100D4A0009C2E582FF60038F8222900630E0900696
:100D5A0028F0902F99E493FF90084AE0FDA3E0FE63
:100D6A007C00C3ED9FEE9C500475821722758200A9
:100D7A0022E58290084CF09008477408F0902FAB57
:100D8A00120CEA90084CE0FF900102F090083CE453
:100D9A00F0A3F0A3F090083FF0A3F0900000C00782
:100DAA001209C2AE82D007EE60038E82228F8212AF
:100DBA0006999000641205EE75820022E582900879
:100DCA004DF09008477408F0902FBB120CEA900877
:100DDA004DE0900102F090083CE4F0A3F0A3F090FB
:100DEA00083FF0A3F09000000209C2E58290084E85
:100DFA00F09008477408F0902FB3120CEA90084E4E
:100E0A00E0FF900102F090083CE4F0A3F0A3F09018
:100E1A00083FF07402A3F0900629C0071209C2AE77
:100E2A0082D007EE60038E82229008477408F09001
:100E3A002FB3C007120CEAD007900102EFF0900618
:100E4A0029E0900106F090083CE4F0A3F0A3F090AA
:100E5A00083FF07402A3F09006290209C2AF83E5A5
:100E6A0082900854F0EFA3F0900854E0FEA3E0FF4C
:100E7A008E828F83E07C0024FEFDEC34FFA2E71310
:100E8A00CD13CD8E828F83A3E0FCBC030280047550
:100E9A00820022900851E0F529A3E0F52A90084F34
:100EAA00E0F52DA3E0F52E852D27852E287800C3A1
:100EBA00E89D5071C005AC29AD2AEC24FFF52BED55
:100ECA0034FFF52C88037D00C3EB952BED952CD0D0
:100EDA00055052C00588037C00EB2BFBEC33FC74F5
:100EEA00032BFAE43CFDEA2EFAED3FFD8A828D835C
:100EFA00E0D005600FE82527F582E43528F58374EC
:100F0A003FF0801EE8252DF9E4352EFA74022BFBFA
:100F1A00E43CFCEB2EF582EC3FF583E0FC89828A07
:100F2A0083F008808AE8252DF582E4352EF583E4DE
:100F3A00F07F00900853E0FE0E900D32EDF0EFA323
:100F4A00F0900D34EEF0900D357434F0900D367447
:100F5A0056F0900D37E52DF0E52EA3F075820512B7
:100F6A0021B475820122AF83E582900856F0EFA37F
:100F7A00F0900856E0FEA3E0FF7C007D008E828F91
:100F8A0083E0FB7A00C3EC9BED64808AF063F08017
:100F9A0095F050070CBC00E50D80E22290084774DA
:100FAA0008F0902F9B120CEA90083C7458F07408D1
:100FBA00A3F0E4A3F090083FF07402A3F09006298E
:100FCA001209C2E582FF60038F8222902FA1E49367
:100FDA00FF900858E0FDA3E0FE7C00C3ED9FEE9C65
:100FEA0050047582172290062BE0FF7E0090062C93
:100FFA00E0FCE42FFFEC3EFE9008477408F0902FC7
:10100A009BC007C006120CEAD006D0078F059001D4
:10101A0006EDF08E07900107EFF090083C7458F047
:10102A007408A3F0E4A3F090083FF07402A3F090D0
:10103A0006291209C2E582FF60038F8222758200A7
:10104A00229008477408F0902FA3120CEA90083CEB
:10105A00745AF07408A3F0E4A3F090083FF0740205
:10106A00A3F09006290209C2E582900AC8F0E0FFBF
:10107A00900D68F0E4A3F0900112C0071224E6ADC7
:10108A0082AE83D007ED24A4F582EE3408F583E41A
:10109A00F0A3F0A3F0A3F0ED24A4FDEE3408FE8D36
:1010AA00828E83A3A3A3A3E4F0A3F0A3F0A3F07416
:1010BA00082DF582E43EF583E4F0A3F0A3F0A3F053
:1010CA00740C2DF582E43EF583E4F0A3F0A3F0A3BB
:1010DA00F074102DF582E43EF583E4F074912DF559
:1010EA0082E43EF583E4F07E00EE75F009A4245C08
:1010FA00FC740835F0FD74012CFAE43DFB8A828BFE
:10110A0083E0B507348C828D83E4F08A828B83F086
:10111A008C828D83A3A3F08C828D83A3A3A3F08CEE
:10112A00828D83A3A3A3A3F0A3F0A3F0A3F0740872
:10113A002CF582E43DF583E4F00EBE080040AA22B5
:10114A007F00EF75F009A4FDAEF0245CFBEE3408D5
:10115A00FC8B828C83E06033ED245CFDEE3408FE68
:10116A008D828E83A3A3A3A3E0FBA3E0FCA3E0FDEF
:10117A00A3E0FEBB0615BC0012BD000FBE000C901A
:10118A00004BC00712056CD007802AEF75F009A43E
:10119A00245CFD740835F0FE8D828E83E0600C902D
:1011AA00003FC00712056CD007800A900045C007AF
:1011BA0012056CD0070FBF08004087229008ACE0E8
:1011CA00FCA3E0FDA3E0FEA3E0FF9008B0E0F52F4A
:1011DA00A3E0F530A3E0F531A3E0F5329008A4E0EE
:1011EA00F533A3E0F534A3E0F535A3E0F53690082E
:1011FA00A8E0F8A3E0F9A3E0FAA3E0FBC004C00565
:10120A00C006C007C02FC030C031C032C033C0349E
:10121A00C035C036C000C001C002C00374E3C0E0DC
:10122A00742FC0E07480C0E0122554E58124EDF5E6
:10123A00817435C0E07409C0E0E4C0E074B4C0E071
:10124A007408C0E0E4C0E074FDC0E0742FC0E0742C
:10125A0080C0E0122554E58124F7F58122E58290C9
:10126A000AC9F0E0FF7E00EE75F009A4FCADF02497
:10127A005CFAED3408FB8A828B83E06052EC245CD2
:10128A00FCED3408FD8C828D83A3A3A3A3E0F8A30D
:10129A00E0F9A3E0FAA3E0FBB80634B90031BA00DA
:1012AA002EBB002B8C828D83A3E0FD900834E4F0E2
:1012BA008D82C007C0061207D1D006D007900ADB7C
:1012CA00EFF08E82C007C0061217C6D006D0070EEE
:1012DA00BE08004092227F00EF75F009A4FDAEF02F
:1012EA00245CFBEE3408FC8B828C83E070030214CE
:1012FA0091ED245CFDEE3408FE8D828E83A3A3A3B8
:10130A00A3E0F9A3E0FAA3E0FBA3E0FCB9060BBA59
:10131A000008BB0005BC000280030214918D828E76
:10132A0083A3E0FC900834E4F08C82C007C006C0B6
:10133A00051207D1D005D006D0078D828E83A3A3CC
:10134A00A3E0FE747F5E4490FDEE30E7067CC07E2B
:10135A000080047C007E00900836ECF0900837E4A8
:10136A00F0A3F08D82C007120803E582D00760035C
:10137A00021469EF75F009A4245CFD740835F0FEC7
:10138A0074032DFBE43EFC8B828C83E0F9630180BD
:10139A008B828C83E9F0900ACAE5D1F0E0FAE0701A
:1013AA0003021469B2968A017A008D828E83A3A3FE
:1013BA00A3A3E0F88B828C83E0FB53037F8D828E9C
:1013CA0083A3E0900D68F0E4A3F0900112C007C077
:1013DA0003C002C001C0001224E6AD82AE83D00071
:1013EA00D001D002D003D007ED24A4F582EE340850
:1013FA00F583E0F537ED24A4FDEE3408FE8D828EE8
:10140A0083A3A3A3A3E0F53874082DF582E43EF57F
:10141A0083E0FC740C2DF582E43EF583E0FE900D2A
:10142A0039E9F0EAA3F0900D3BE8F0900D3CEFF0BB
:10143A00900D3DEBF0900D3E7400F07400A3F09017
:10144A000D40E537F0900D41E538F0900D42ECF093
:10145A00900D43EEF0758204C0071221B5D007EF54
:10146A0075F009A4245CFD740835F0FE74082DF5A6
:10147A0082E43EF583E0FE900ACBE0FDC39E400283
:10148A008D06900ACBEEF00FBF080050030212E25D
:10149A00900ACBE0FF7E008F828E830205EEAF8337
:1014AA00E582900ACFF0EFA3F0900AD1E4F0A3F01E
:1014BA00900AD3F0900AD4F0900ACFE0F51BA3E08B
:1014CA00F51CAC1BAD1C900ACEE075F009A4245C97
:1014DA00FA740835F0FB900ACCE0F519A3E0F51A86
:1014EA00900AD1E0F515A3E0F516C3E5159519E5BF
:1014FA0016951A400122C002C003E515251BF58284
:10150A00E516351CF583E0FB900AD574FC5BF07494
:10151A00035BF515900AD6F0900AD7E4F0A3F0A37E
:10152A00F0A3F07403B515028006D003D002800B35
:10153A00D003D002900AD6E51504F0900AD1E0F55E
:10154A0015A3E0F516900AD6E0F517751800C3E55D
:10155A00189517505BC002C003AA15AB160ABA0049
:10156A00010BA8187900E82AFAE93BFBEA2CF58274
:10157A00EB3DF583E0F8E4F9FAFBE518C40354F807
:10158A00FF8FF005F0800CE828F8E933F9EA33FA1E
:10159A00EB33FBD5F0F1900AD7E048F0A3E049F02D
:1015AA00A3E04AF0A3E04BF00518D003D002809ED6
:1015BA00900AD3E0FF900AD5E0FEE4BEC00104F52C
:1015CA001879008F15751600E5186008751D0175E4
:1015DA001E008005E4F51DF51EC002C003E515C313
:1015EA00951DF8E516951EFB89027E00C3EA98EE62
:1015FA0064808BF063F08095F0D003D00250030929
:10160A0080C1900AD5E0FFBF04028063BF080302CD
:10161A0016BDBF14030217A1BF18030217A1BF24E6
:10162A00030217A1BF28030217A1BF34030217A19F
:10163A00BF44030217A1BF64030217A1BF740302C8
:10164A0017A1BF80030217A1BF84030217A1BF908D
:10165A00030217A1BF94030217A1BFA003021792A6
:10166A00BFB0030217A1BFC00302179B0217A190C4
:10167A000AD7E0F8A3E0F9A3E0FEA3E0FFC3E994E8
:10168A00FFEE9400EF94004008780079FF7E007F17
:10169A0000B8010CB90009BE0006BF00030217A179
:1016AA00B8070CB90009BE0006BF0003D38001C306
:1016BA000217A1900AD4E07032C004C00574042A4B
:1016CA00FEE43BFF900AD7E0F8A3E0F9A3E0FCA30D
:1016DA00E0FD8E828F83E8F0E9A3F0ECA3F0EDA39E
:1016EA00F0900AD47401F0D005D004900AD7E0F83B
:1016FA00A3E0F9A3E0FEA3E0FFC3743898E499E4F9
:10170A009EE49F50030217A1E8240A83F582E82485
:10171A003D83F583E473A1A1A1A1A1A1A1A1A1A1E6
:10172A00A1A1A1A1A1A1A1A1A1A1A1A1A1A1A1A19F
:10173A00A1A1A1A1A1A1A1A1A1A1A1A1A1A1A1A18F
:10174A00A1A1A1A1A1A1A1A1A1A1A1A1A1A1A11709
:10175A00171717171717171717171717171717170F
:10176A0017171717171717171717171717171717FF
:10177A0017171717171717171717171717171717EF
:10178A001717171717171717900AD3E02401F080B5
:10179A0006900AD3E014F0900AD6E0FF7E000FBF4D
:1017AA0000010E900AD1E0F8A3E0F9EF28F8EE392B
:1017BA00F9900AD1E8F0E9A3F00214EAE582900A66
:1017CA00DCF09008477408F0902FCB120CEA900ACC
:1017DA00DCE075F009A4245CFE740835F0FF8E8203
:1017EA008F83A3A3E0900104F09001067401F090A6
:1017FA000ADBE0900629F090083C74DDF0740AA335
:10180A00F0E4A3F090083FF0A3F09006290209C281
:10181A009008477408F0902FDB120CEA900ADFE078
:10182A00900102F090083C74E0F0740AA3F0E4A37B
:10183A00F090083FF0A3F09006290209C2E58290D1
:10184A000AE2F09008477408F0902FC3120CEA904D
:10185A000AE2E075F009A4245CFE740835F0FF740E
:10186A00022EFEE43FFF8E828F83E0900104F09007
:10187A00083C74E3F0740AA3F0E4A3F090083FF084
:10188A00A3F0900629C007C0061209C2900847743F
:10189A0008F0902FD3120CEAD006D0078E828F83DD
:1018AA00E0900104F07F00900106EFF090010774C8
:1018BA0002F090083C74E3F0740AA3F0E4A3F090F9
:1018CA00083FF07402A3F09006291209C2E582FFCC
:1018DA0060038F82227E007F00900AE3E0FCA3E08F
:1018EA00FDC3EE9CEF9D50070EBE00ED0F80EA90FF
:1018FA000AE2E0FF75F009A4245CFB740835F0FEE7
:10190A008B828E83A3A3E0FA8B828E83A3E0FE9060
:10191A000D32ECF0EDA3F0900D34EFF0900D35EAB6
:10192A00F0900D36EEF0900D377429F07406A3F09E
:10193A00758207C0071221B4D007900AE3E0FDA31D
:10194A00E0FE900ACCEDF0EEA3F0900ACEEFF09014
:10195A0006291214A875820022222222E582900A00
:10196A00E9F0900AEAE4F0900AE9E0FF8F3EFDF51B
:10197A003A75F003A4FAABF08F3F753B0090006410
:10198A00C007C005C003C0021205EE90006412052C
:10199A00EE853F82121072853F821206BFD002D0B6
:1019AA0003D005D007753900900001C007C005C0F3
:1019BA0003C0021205EED002D003D005D0078F82F1
:1019CA00C007C005C003C00212070FE582D002D0CB
:1019DA0003D005D00760080539749C253950C974AD
:1019EA0064B539188F82C007C005C003C002120649
:1019FA002BD002D003D005D007021FD0900834E4C0
:101A0A00F08D82C007C005C003C0021207D1120DB3
:101A1A0021AC82D002D003D005D007900AEAECF0BC
:101A2A00EC6003021F79C002C003900D68EDF0E478
:101A3A00A3F0900112C007C005C0021224E6AB82CF
:101A4A00AC83D002EB24A4F53CEC3408F53D9006B7
:101A5A0031E0F879007A007E00853C82853D83E892
:101A6A00F0E9A3F0EAA3F0EEA3F0EB24A4F53CEC32
:101A7A003408F53D7404253CFCE4353DFE900632FD
:101A8A00E0F879007A007B008C828E83E8F0E9A383
:101A9A00F0EAA3F0EBA3F07408253CFCE4353DFE24
:101AAA00900633E0F879007A007B008C828E83E816
:101ABA00F0E9A3F0EAA3F0EBA3F0740C253CFCE4F4
:101ACA00353DFE900634E0F879007A007B008C827E
:101ADA008E83E8F0E9A3F0EAA3F0EBA3F0900629DD
:101AEA00C003C002120F70D002D003D005902FADF0
:101AFA00E4932DF539853982C005C003C002120D61
:101B0A007BAE82D002D003D005D007900AEAEEF06D
:101B1A00D003D002EE6003021F79ED75F003A4240E
:101B2A0029FC740835F0FE8C828E83A3E539F09087
:101B3A000638E0FE900637E0FCEE7003021BD88EF2
:101B4A0082C007C005C004C003C002120DF590068A
:101B5A0029120F70D002D003D004D00590084F7418
:101B6A0029F07406A3F0900851E4F07402A3F090EF
:101B7A000853EDF0900629C005C004C003C0021244
:101B8A000E67E582D002D003D004D005D007603EAC
:101B9A007491253CF9E4353DF87E00900D5C74297A
:101BAA00F07406A3F0E4A3F0900D5F7480F0E4A350
:101BBA00F0898288838EF0C007C005C004C003C0C4
:101BCA0002122409D002D003D004D005D007EC7049
:101BDA0003021C6F8C82C007C005C003C002120D2D
:101BEA00F5900629120F7090084F7429F07406A315
:101BFA00F0900851E4F07402A3F0900853E53EF027
:101C0A00900629120E67E582D002D003D005D007CC
:101C1A006053900D68E53EF0E4A3F0900112C0070E
:101C2A00C005C003C0021224E6AC82AE83EC24A431
:101C3A00FCEE3408FE74102CFCE43EF97E00900D94
:101C4A005C7429F07406A3F0E4A3F0900D5F74802D
:101C5A00F0E4A3F08C8289838EF0122409D002D09A
:101C6A0003D005D007C007C005C003C002120FA6E3
:101C7A00AE82D002D003D005D007900AEAEEF0EE89
:101C8A006003021F7990062BE0FE7C0090062CE090
:101C9A00F9E42EFEE93CFC900AE9E0F909900D32DC
:101CAA00EEF0ECA3F0900D34E539F0900D35E9F043
:101CBA00900D3674AAF0900D377429F07406A3F0CB
:101CCA007582061221B4900CEDE4F0A3F07C007E3C
:101CDA000090062BE0F9893C753D0090062CE0F94E
:101CEA00E4253CF53CE9353DF53D8C008E01C00408
:101CFA00C006AC3CAE3DC3E89CE99ED006D0045079
:101D0A00070CBC00CC0E80C990062EE0F582120D9D
:101D1A00C690062BE0FE7C0090062CE0F9E42EFE2D
:101D2A00E93CFC8E458C4678007900C3E89545E984
:101D3A0095465024E824EDF53CE9340AF53DE824BB
:101D4A0029F582E93406F583E0FE853C82853D83E8
:101D5A00F008B800D60980D3900629E0F9900AEB7A
:101D6A00F0E4A3F0900AE9E0F547854740900AEBD2
:101D7A00E0F53CA3E0F53DC3E53C9545E53D9546D8
:101D8A004003021F75E53C24EDF53CE53D340AF5B8
:101D9A003D900CEFE53CF0E53DA3F0853C82853DA6
:101DAA0083A3E0F5397404B5390280227405B53984
:101DBA000280387421B53903021F047424B539032B
:101DCA00021F2D7425B53903021F38021F43A83C90
:101DDA00A93D900CEDE8F0E9A3F0900AE5E8F0E9F6
:101DEA00A3F0854082121963021F4C853C82853D0F
:101DFA0083120F70900CEDE0F8A3E0F988828983D2
:101E0A00A3A3A3A3A3E0F9B903028003021F4CA86A
:101E1A003CA93D8841894274022541F543E4354293
:101E2A00F544854382854483E0F920E703021F4C89
:101E3A007800E875F009A4245CF9740835F0FE8985
:101E4A00828E83E0600608B8080040E6E875F0096B
:101E5A00A4245CF548740835F0F54974032548F95B
:101E6A00E43549FE854382854483E089828E83F086
:101E7A008548828549837401F0042548F543E43591
:101E8A0049F544900CEDE0F9A3E0FE89828E83A324
:101E9A00A3E0854382854483F0854882854983A3EC
:101EAA00E547F074082548FCE43549FE85418285FA
:101EBA004283A3A3A3A3A3A3E08C828E83F0888288
:101ECA00C000121847854882854983A3A3A3A3E0CB
:101EDA00F8A3E0F9A3E0FCA3E0FEB8060BB90008FA
:101EEA00BC0005BE00028004D0008056D000900AD3
:101EFA00DFE4F0888212181A8048900CEDE0FCA307
:101F0A00E0FE900CEDE0F5F0A3E045F06034A83C6B
:101F1A00A93D900AE7E8F0E9A3F08C828E831219B2
:101F2A0064801F853C82853D83120F708014853C36
:101F3A0082853D83120F708009853C82853D83121C
:101F4A000F70900CEFE0FCA3E0FE8C828E83E0FC25
:101F5A007E00900AEBE0F8A3E0F9EC28F8EE39F9F4
:101F6A00900AEBE8F0E9A3F0021D7775820022AC33
:101F7A003A0C900AEAE0FE900D32E4F0A3F0900DDC
:101F8A0034ECF0900D35EEF0900D3674EEF0900DC5
:101F9A0037E4F0A3F0758203C007C005C003C0028E
:101FAA001221B4D002D003EA2429F582EB3408F5D1
:101FBA00837402F0758201C003C0021206ABD0021C
:101FCA00D003D005D007053B74F6253B4003021920
:101FDA0087900AEAE0F58222900CF1E4F010D80327
:101FEA00022105E5DB30E349900829E06008E5E4D1
:101FFA0030E00302207875820012062B90082974BB
:10200A0001F0900D32E4F0A3F0900D3404F0900D3D
:10201A0035F0900D36F0900D37E4F0A3F07582019B
:10202A001221B4758200121966E582900CF1F080D3
:10203A003D900829E0FFBF0100403375820012106D
:10204A007275820012062B900D32E4F0A3F0900D07
:10205A003404F0900D35F0900D36F0900D37E4F021
:10206A00A3F07582021221B4900CF17416F0E5DB2C
:10207A0030E74A90082CE06008E5E530E0030221E9
:10208A000575820112062B90082C7401F0900D320E
:10209A00E4F0A3F0900D347402F0900D35F0900D39
:1020AA0036F0900D37E4F0A3F07582011221B47571
:1020BA008201121966E582900CF1F0803E90082C9C
:1020CA00E0FFBF010040347582011210727582016F
:1020DA0012062B900D32E4F0A3F0900D347402F046
:1020EA00900D35F0900D36F0900D37E4F0A3F075B1
:1020FA0082021221B4900CF17416F0900CF1E0F502
:02210A0082222F
:102F930080060001000012008006000200001200FB
:102FA3008106000400000900000502000000000083
:102FB300800600030904020000090000000000006D
:102FC300210A0000000000002109000200000000A7
:102FD300810600220000FF00210B0000000000001A
:102FE30030782530326C782530326C783A30782559
:102FF30030326C782530326C7800202D20257320F8
:0330030025730032
:0130190000B6
:10210C0010980122AF99BF0A02800D900DA2E0FE3B
:10211C00BE0400500302219E900CF2E0FDBDC917D5
:10212C0090005512056C12114A90005612056C90D5
:10213C00000A12056C804FBDC41190004512056C4D
:10214C001211C690000A12056C803BBDD62090007F
:10215C005712056C90008212056C90008012056C71
:10216C0090008012056C90000A12056C8018BDD28C
:10217C000512006A8010BDCC0D900CF3E0FD5305E8
:10218C001F8D82121267900DA2E4F0900CF2F002F7
:10219C00210CEE24F2F582E4340CF583EFF0900D73
:1021AC00A2E02401F002210C22E582900D44F09073
:1021BC000D4574FEF0E4A3F0900D44E0FFBF040263
:1021CC00800122900D3BE0FFBF06028001229000AF
:1021DC00FE12056C900D3EE0FEA3E0FF900D39E081
:1021EC00FCA3E0FD7A007B00C3EA9CEB9D5031C060
:1021FC0004C005EA2EF582EB3FF583E0F8790090F8
:10220C000D45E0FCA3E0FDE82CFCE93DFD900D45FF
:10221C00ECF0EDA3F00ABA00010BD005D00480C895
:10222C00900D45E0FAA3E0FB740A2AFAE43BFB901C
:10223C000D45EAF0EBA3F08E028F030EBE00010FEA
:10224C00900D45E0F8A3E07900C3E498F88E828FF6
:10225C0083F07E007F00C3EE9CEF9D5032EE2AF59A
:10226C0082EF3BF583E0F8790088828983C007C050
:10227C0006C005C004C003C00212056CD002D00316
:10228C00D004D005D006D0070EBE00CA0F80C79070
:05229C00000A02056CC0
:08300600AA55564552020000D4
:01301A0000B5
:1022A100AF82AE83ADF0FC900D4BEFF0EEA3F0EDFD
:1022B100A3F0ECA3F0900D4FE4F0A3F0A3F0A3F092
:1022C100900D47E0FCA3E0FDA3E0FEA3E0FF7B202F
:1022D100C003900D4BE0F8A3E0F9A3E0FAA3E0FB03
:1022E100900D53235401F0E828F8E933F9EA33FA61
:1022F100EB33FB900D4BE8F0E9A3F0EAA3F0EBA37D
:10230100F0900D4FE0F8A3E0F9A3E0FAA3E0FBE8B9
:1023110028F8E933F9EA33FAEB33FB900D4FE8F093
:10232100E9A3F0EAA3F0EBA3F0D003900D53E06032
:1023310008900D4FE043E001F0900D4FE0F515A33B
:10234100E0F516A3E0F517A3E0F518C3E5159CE544
:10235100169DE5179EE5189F401F900D4FE515C38B
:102361009CF0E5169DA3F0E5179EA3F0E5189FA349
:10237100F0900D4BE043E001F01BEB60030222D132
:10238100900D4BE0FCA3E0FDA3E0FEA3E08C828D69
:04239100838EF02225
:06003700E478FFF6D8FD9D
:10239500AFF0AE83E582900D59F0EEA3F0EFA3F018
:1023A500900D59E0F515A3E0F516A3E0F517AA156C
:1023B500AB16AC17900D54E0F8A3E0F9A3E0FF903D
:1023C5000D57E0F518A3E0F519AD18AE19151874F9
:1023D500FFB518021519ED4E6020888289838FF0AC
:1023E500122F73FEA3A882A9838A828B838CF0EEB9
:1023F5001224CBA3AA82AB8380CF85158285168351
:042405008517F02225
:100015007902E94400601B7A0190301978A175A036
:100025000DE493F2A308B8000205A0D9F4DAF2753D
:02003500A0FF2A
:10240900AFF0AE83E582900D61F0EEA3F0EFA3F09B
:10241900900D61E0FDA3E0FEA3E0FF900D64EDF0F7
:10242900EEA3F0EFA3F0900D5FE0FBA3E0FC900DAD
:102439005CE0F8A3E0F9A3E0FAEB4C603488828908
:10244900838AF0122F73F51560271BBBFF011C0847
:10245900B80001098D828E838FF0E5151224CBA374
:10246900AD82AE83900D61EDF0EEA3F0EFA3F080A5
:10247900C8900D61EDF0EEA3F0EFA3F08B018C0293
:102489001BBBFF011CE94A601C8D828E838FF0E41F
:102499001224CBA3AD82AE83900D61EDF0EEA3F0D3
:1024A900EFA3F080D7900D61EDF0EEA3F0EFA3F06C
:1024B900900D64E0FDA3E0FEA3E0FF8D828E838F83
:1024C900F02220F71130F6138883A88220F509F647
:1024D900A8837583002280FEF280F5F022AA83ABDF
:1024E900828BF0900D68E0A4F8A9F08AF0E0A429A5
:0D24F900F98BF0A3E0A429F583888222224C
:10003D007800E84400600A790075A006E4F309D859
:10004D00FC78A1E84407600C7908900600E4F0A361
:04005D00D8FCD9FAF8
:02000600E473A1
:10250600C0148581147E008E8312056CD01422AF10
:10251600F0AE83E582900D6BF0EEA3F0EFA3F090A2
:102526000D6BE0FDA3E0FEA3E0FF900D6AE0FC90DA
:102536000D7FE4F0A3F0A3F0900D82EDF0EEA3F092
:10254600EFA3F0900D85ECF090250602265AC014F4
:10255600E581F51424FBFF900D7FE4F0A3F0A3F0D2
:10256600E51424FBF8900D82E6F008E6A3F008E6F1
:10257600A3F0900D85EFF090250612265AD014226E
:10258600E582900D7BF0E0FF900D71E0C0E0A3E0E6
:10259600C0E0A3E0C0E01225A1800D900D6FE0C061
:1025A600E0A3E0C0E08F8222158115811581900D90
:1025B60079E02401F0A3E03400F022E582900D7C5E
:1025C600F0E02430FF24C6500D74072FFF900D6EE7
:1025D600E060034307208F82022586E582900D7D09
:1025E600F0E0FFC4540FF582C0071225C1D007538F
:1025F600070F8F820225C1E582900D7EF0900D7443
:10260600E0FCA3E0FDA3E0FEA3E0FF900D78E0FB75
:10261600900D7EE0FA79208B00E828F515EF23541B
:10262600014515FBEC2CFCED33FDEE33FEEF33FFDD
:10263600C3EB9A4007EBC39AFB43040119E970D731
:10264600900D74ECF0EDA3F0EEA3F0EFA3F0900D77
:1026560078EBF022AF83E582900D86F0EFA3F09041
:102666000D86E0FEA3E0FF900D6FEEF0EFA3F09075
:102676000D7FE0FDA3E0FEA3E0FF900D71EDF0EE0F
:10268600A3F0EFA3F0900D79E4F0A3F0900D82E0B3
:10269600FDA3E0FEA3E0FF8D828E838FF0122F73E1
:1026A600FC900D8274012DF0E43EA3F0EFA3F0EC54
:1026B6007003022F4FBC25028003022F47900D881E
:1026C600E4F0900D89F0900D8AF0900D8BF0900D4E
:1026D6008CF0900D8DF0900D8EF0900D8FF0900D8A
:1026E60091F0900D92F0A3F0900D9414F0A3F09059
:1026F6000D82E0FDA3E0FEA3E0FF8D828E838FF0C6
:10270600122F73FBA3AD82AE83900D82EDF0EEA384
:10271600F0EFA3F0900D98EBF0BB25088B82122505
:1027260086022692BB300050030227F3EB24C650E4
:10273600030227F3900D94E0F50AA3E0F50B74FF6E
:10274600B50A63B50B60C005C006C007900D92E0E0
:10275600FAA3E0FF900D68EAF0EFA3F090000AC03C
:1027660005C0031224E6AE82AF83D003D0058B02E8
:102776007D00EA2EFEED3FFFEE24D0FEEF34FFFF94
:10278600900D92EEF0EFA3F0D007D006D005900D95
:1027960092E0F5F0A3E045F06003022700900D8972
:1027A6007401F0022700C005C006C007900D68E559
:1027B6000AF0E50BA3F090000AC006C005C003129C
:1027C60024E6AA82AF83D003D005D0067E00EB2A8A
:1027D600FAEE3FFFEA24D0FAEF34FFFF900D94EAB9
:1027E600F0EFA3F0D007D006D005022700900D9891
:1027F600E0FBBB2E2FC005C006C007900D94E0FA83
:10280600A3E0FFBAFF05BFFF028009D007D006D0BC
:1028160005022700D007D006D005900D94E4F0A35A
:10282600F0022700BB61004014EB2485400F900D99
:102836009874DF5BF0900D6E7401F08005900D6E5C
:10284600E4F0900D98E0FBBB20028075BB2B028064
:1028560067BB2D028059BB4202806FBB4302807C5E
:10286600BB4403022AEABB4603022B10BB48030201
:102876002700BB4903022AEABB4A03022700BB4CD6
:10288600028050BB4F03022AF8BB5003022A58BBF2
:1028960053028077BB5403022700BB5503022B006B
:1028A600BB5803022B08BB5A03022700022B1890C1
:1028B6000D887401F0022700900D8A7401F002273A
:1028C60000900D8B7401F0022700900D8D7401F0BD
:1028D600022700900D8E7401F0022700900D8DE006
:1028E600600E900D85E014F9F0900D98E7F0800FDA
:1028F600900D85E024FEFFF08F01900D98E7F09093
:102906000D98E0F582122586022B27900D85E0248E
:10291600FDFFF08F018705098706098707191990BA
:102926000D74EDF0EEA3F0EFA3F08D828E838FF0A1
:10293600122F5B85820A85830B900D94E0FAA3E043
:10294600FDBAFF0DBDFF0A900D94E50AF0E50BA355
:10295600F0900D88E0704B900D92E0FAA3E0FDC375
:10296600E50A9AE50B9D503A900D92EAC3950AF056
:10297600ED950BA3F0900D92E0FAA3E0FD8A068D8B
:10298600071ABAFF011DEE4F6010758220C005C000
:1029960002122586D002D00580E3900D92EAF0ED72
:1029A600A3F0900D94E0F50DA3E0F50E900D74E004
:1029B600FAA3E0FDA3E0FF8A828D838FF0122F73C6
:1029C600F50C603CC3E4950D7480850EF063F080D1
:1029D60095F0502C150D74FFB50D02150E850C8261
:1029E600122586900D74E0FAA3E0FDA3E0FF0ABA73
:1029F60000010D900D74EAF0EDA3F0EFA3F080ACAA
:102A0600900D88E07003022B27900D92E0FEA3E064
:102A1600FFC3E50A9EE50B9F4003022B27900D920C
:102A2600EEC3950AF0EF950BA3F0900D92E0FEA38E
:102A3600E0FF8E028F051EBEFF011FEA4D700302E6
:102A46002B1F758220C007C006122586D006D00728
:102A560080E0900D85E024FDFDF08D01870F09874C
:102A6600100987111919900D74E50FF0E510A3F000
:102A7600E511A3F0900D76E0FDBD80004008900DB5
:102A8600987443F08020BD60004008900D98745003
:102A9600F08013BD40004008900D987449F0800600
:102AA600900D987458F0900D98E0FDF582C00512CF
:102AB600258675823A12258675823012258675829C
:102AC60078122586D005BD4902800EBD50028009C8
:102AD600900D75E0F5821225E1900D74E0F58212F5
:102AE60025E1803D900D8C7401F0900D91740AF0F3
:102AF600802F900D917408F08027900D91740AF044
:102B0600801F900D917410F08017900D8F7401F056
:102B1600800F8B821225868008900D92EEF0EFA32F
:102B2600F0900D8FE06071900D85E024FCFFF08F32
:102B36000187030987050987060987071919199067
:102B46000D74EBF0EDA3F0EEA3F0EFA3F0900D748F
:102B5600740EF07430A3F07480A3F0900D74E0F559
:102B66000FA3E0F510A3E0F5117401250FFAE43583
:102B760010FBAF11900D74EAF0EBA3F0EFA3F08514
:102B86000F828510838511F0122F73FF70030226C2
:102B9600928F8212258680C3900D91E070030226E3
:102BA60092900D8DE06047900D85E014F9F087074F
:102BB6007E007D007B00900D74EFF0EEA3F0EDA398
:102BC600F0EBA3F0900D8CE06003022C6A900D747C
:102BD600E0FBA3E0A3E0A3E07D007E007F00900D74
:102BE60074EBF0EDA3F0EEA3F0EFA3F08076900D7A
:102BF6008EE06028900D85E024FCFFF08F018703AE
:102C0600098705098706098707191919900D74EBB5
:102C1600F0EDA3F0EEA3F0EFA3F08048900D85E071
:102C260024FEFFF08F01870609870719EF3395E029
:102C3600FDFB900D74EEF0EFA3F0EDA3F0EBA3F027
:102C4600900D8CE0701E900D74E0FBA3E0FDA3E0F8
:102C5600A3E07E007F00900D74EBF0EDA3F0EEA3F1
:102C6600F0EFA3F0900D8CE06041900D74E0FBA3B3
:102C7600E0FDA3E0FEA3E0FF30E72B900D74E0FB40
:102C8600A3E0FDA3E0FEA3E0FFC3E49BFBE49DFD00
:102C9600E49EFEE49FFF900D74EBF0EDA3F0EEA32F
:102CA600F0EFA3F08005900D8CE4F0900D90740188
:102CB600F0900D91E0F50D75129E75130DE4F50A71
:102CC600F50B900D78E4F0850D821225FD900D90A0
:102CD600E07026900D78E0C4F50F85128285138387
:102CE600E0FFE50F4207851282851383EFF0151288
:102CF60074FFB512021513800C900D78E0FF851253
:102D060082851383F0050AE4B50A02050B900D903F
:102D1600E0B40100E433F0900D74E0FAA3E0FBA305
:102D2600E0FEA3E0FFEA4B4E4F7097900D9FE51231
:102D3600F0E513A3F0900D96E50AF0E50BA3F090ED
:102D46000D92E0F5F0A3E045F07009900D92740144
:102D5600F0E4A3F0900D89E0FFE07047900D88E065
:102D66007041850A12850B13900D92E0FAA3E0FBE1
:102D7600C007AF120F8F067F00C3EE9AEF9BD007F6
:102D86005019758220C007C003C002122586D002E2
:102D9600D003D0071ABAFF011B80D5900D92EAF036
:102DA600EBA3F0900D8CE0602075822DC0071225F4
:102DB60086D007900D92E024FFFDA3E034FFFE903D
:102DC6000D92EDF0EEA3F08056900D96E0F5F0A38F
:102DD600E045F0604A900D8AE0602075822BC007BE
:102DE600122586D007900D92E024FFFDA3E034FF64
:102DF600FE900D92EDF0EEA3F08024900D8BE06036
:102E06001E758220C007122586D007900D92E024F9
:102E1600FFFDA3E034FFFE900D92EDF0EEA3F090DF
:102E26000D88E07048900D96E0F512A3E0F513903A
:102E36000D92E0FAA3E0FBC0078A068B071ABAFFD9
:102E4600011BC3E5129EE5139FD0075053EF6006A2
:102E56007D307E0080047D207E008D82C007C00309
:102E6600C002122586D002D003D00780CA900D92E8
:102E7600E0FEA3E0FF900D96E0F512A3E0F513C384
:102E8600E5129EE5139F500F900D92EEC39512F03A
:102E9600EF9513A3F08011900D92E4F0A3F0800853
:102EA600900D92EAF0EBA3F0900D9FE0FEA3E0FFF9
:102EB600900D96E0F512A3E0F513AA12AD131512C4
:102EC60074FFB512021513EA4D6045900D90E0B4FB
:102ED6000100E433F0900D90E070140EBE00010F77
:102EE6008E828F83E0C4540FFD900D78F0800E8E95
:102EF600828F83E0FD53050F900D78EDF0900D78ED
:102F0600E0F582C007C0061225C1D006D00780AA08
:102F1600900D88E07003022692900D92E0FEA3E0E9
:102F2600FF8E038F051EBEFF011FEB4D70030226A9
:102F360092758220C007C006122586D006D007806B
:102F4600E08C82122586022692900D79E0FEA3E09F
:052F56008E82F58322CC
:0B300E003C4E4F20464C4F41543E000A
:102F5B00AA82AB83122F736003A380F8C3E5829A16
:082F6B00F582E5839BF583224A
:0D000800758149122F8FE58260030200030D
:102F730020F71430F6148883A88220F507E6A88387
:102F830075830022E280F7E49322E0227582002217
:00000001FF
