:03000000020008F3
:0300670002000391
:030003000200AD4B
:10006A007582001212277582011212271206A674CF
:10007A0093C0E0743BC0E07480C0E0123131158156
:10008A0015811581900B30E4F0A3F0900B32F090BB
:10009A000B33F0900B34F0900B35F0A3F075820817
:1000AA00022F5E1200F49006007401F0E4A3F090AF
:1000BA00424075F00FE412010C749AC0E0743BC020
:1000CA00E07480C0E012313115811581158112006A
:1000DA006AE5C120E60985088285098312000612AD
:0A00EA002E9B122D071213CF80E7A2
:103B930052656164790A00537461727475700A0026
:060061007508007509F4AA
:1000F40075A15575A1AA53B3E043B30675B2D8757B
:10010400A1FF900007020635AF82AE83ADF0FC90EC
:100114000602EFF0EEA3F0EDA3F0ECA3F0900600DE
:10012400E0F5F0A3E045F0600C43C60143C4084386
:10013400C50C43CE10C29FD29EC29DD29C438780E1
:10014400900602E0FCA3E0FDA3E0FEA3E0FF900B19
:1001540042ECF0EDA3F0EEA3F0EFA3F0908D8075E8
:10016400F05BE4122F60AC82AD830CBC00010DED9A
:10017400C313CC13CC740F55894420F58943C9A00B
:10018400C3E49CFC8C8DD28ED2992210980280FB01
:1001940085998222E582900606F0E0F5993099FD72
:1001A400D29922E582900609F090060A74C4F0748C
:1001B40000A3F07440A3F090060D74BAF07400A389
:1001C400F07440A3F090061074BCF07400A3F074B3
:1001D40040A3F090061374BEF07400A3F07440A31F
:1001E400F090061674C5F07400A3F07440A3F09068
:1001F400061974BBF07400A3F07440A3F090061CBD
:1002040074BDF07400A3F07440A3F090061F74BF93
:10021400F07400A3F07440A3F0900608E0FF24F902
:10022400500122EF2F2F90022E730202430202C6C6
:1002340002034B0203A60204280204AE0205329014
:100244000609E0FFFE8EF005F07401800225E0D57A
:10025400F0FBF4ADC65DF5C6EF75F003A4FFAEF098
:10026400240AF582EE3406F583E0FBA3E0FCA3E068
:10027400FD8B828C838DF0123B73FA900607E0F9B4
:1002840089F005F07401800225E0D5F0FBF4F95201
:10029400028B828C838DF0EA1230C8EF2416F5822B
:1002A400EE3406F583E0FDA3E0FEA3E0FF8D828E2D
:1002B400838FF0123B7352018D828E838FF0E9029B
:1002C40030C8900609E0FFFE8EF005F0740180024C
:1002D40025E0D5F0FBF4ADC65DF5C6EF75F003A4DB
:1002E400FFAEF0240AF582EE3406F583E0FBA3E0CA
:1002F400FCA3E0FD8B828C838DF0123B73FA900695
:1003040007E0F989F005F07401800225E0D5F0FBDF
:10031400F9F4F8EA52008B828C838DF0E81230C82D
:10032400EF2416F582EE3406F583E0FDA3E0FEA388
:10033400E0FF8D828E838FF0123B7342018D828E9B
:10034400838FF0E90230C8900609E0FFFE8EF005C5
:10035400F07401800225E0D5F0FBF4ADC65DF5C66E
:10036400EF75F003A4240AF582740635F0F583E0F2
:10037400FDA3E0FEA3E0FF8D828E838FF0123B731A
:10038400FC900607E0FB8BF005F07401800225E089
:10039400D5F0FBF4FBEC42038D828E838FF0EB02ED
:1003A40030C8900609E0FFFE8EF005F0740180026B
:1003B40025E0D5F0FBADC64DF5C6EF75F003A4FFFF
:1003C400AEF0240AF582EE3406F583E0FBA3E0FCEC
:1003D400A3E0FD8B828C838DF0123B73FA900607A9
:1003E400E0F989F005F07401800225E0D5F0FBF412
:1003F400F952028B828C838DF0EA1230C8EF2416F6
:10040400F582EE3406F583E0FDA3E0FEA3E0FF8D64
:10041400828E838FF0123B7352018D828E838FF014
:10042400E90230C8900609E0FFFE8EF005F0740181
:10043400800225E0D5F0FBADC64DF5C6EF75F0039F
:10044400A4FFAEF0240AF582EE3406F583E0FBA3A4
:10045400E0FCA3E0FD8B828C838DF0123B73FA9059
:100464000607E0F989F005F07401800225E0D5F073
:10047400FBF942028B828C838DF0EA1230C8EF24A0
:1004840016F582EE3406F583E0FDA3E0FEA3E0FF5B
:100494008D828E838FF0123B73FCE9F4F9EC5201E8
:1004A4008D828E838FF0E90230C8900609E0FFFE4A
:1004B4008EF005F07401800225E0D5F0FBADC64D49
:1004C400F5C6EF75F003A4FFAEF0240AF582EE340E
:1004D40006F583E0FBA3E0FCA3E0FD8B828C838D17
:1004E400F0123B73FA900607E0F989F005F0740105
:1004F400800225E0D5F0FBF9F4F8EA52008B828CF7
:10050400838DF0E81230C8EF2416F582EE3406F538
:1005140083E0FDA3E0FEA3E0FF8D828E838FF012C3
:100524003B7342018D828E838FF0E90230C89006BE
:1005340009E0FFFE8EF005F07401800225E0D5F09D
:10054400FBADC64DF5C6EF75F003A4FFAEF0240A6B
:10055400F582EE3406F583E0FBA3E0FCA3E0FD8B1B
:10056400828C838DF0123B73FA900607E0F989F0D0
:1005740005F07401800225E0D5F0FBF942028B827C
:100584008C838DF0EA1230C8EF2416F582EE34061F
:10059400F583E0FDA3E0FEA3E0FF8D828E838FF060
:1005A400123B7342018D828E838FF0E90230C8AF13
:1005B40083E582900622F0EFA3F010990280FB906D
:1005C4000622E0FEA3E0FF8E998E828F832210988C
:1005D4000280FBAE997F008E828F8322AF83E582F7
:1005E400900624F0EFA3F0900624E0FEA3E0FFEED3
:1005F4004F603505A105A105A105A105A105A1052A
:10060400A105A105A105A105A105A105A105A105B6
:10061400A105A105A105A105A11EBEFF011F90060C
:1006240024EEF0EFA3F080C7900624EEF0EFA3F0E1
:1006340022AF83E582900626F0EFA3F0900626E031
:10064400FEA3E0FFEE4F601D9003E8C007C0061252
:1006540005E0D006D0071EBEFF011F900626EEF06F
:10066400EFA3F080DF900626EEF0EFA3F022E58200
:1006740090082FF0E0FF75F003A4FDAEF02429F5F7
:1006840082EE3408F583E4F0ED2429FDEE3408FE0F
:100694008D828E83A3E4F0EF600475E5002275E497
:1006A4000022C2EA75E28075E3009024477448F0A2
:1006B40090244CE4F0A3F090244E04F0E4A3F0F56D
:1006C400D4F5D675E28975D24075D8FF75820012CB
:1006D400067275820112067275E10322E5829008A2
:1006E40030F0E5E35480FFE0547F4FF5E322E582E8
:1006F400900831F0E0600753E2BF53D27F2243E217
:100704004022E582900832F09006287408F0758241
:10071400001206E07582011206F2900832E0FFE052
:10072400701374FB55E44402F5E490000F1206358F
:1007340053E4FD8014BF011174FB55E54402F5E553
:1007440090000F12063553E5FD9000FA1205E0C241
:10075400D822E582900833F0E075F003A42429FE42
:10076400740835F0FF8E828F83E0FDBD01005007D1
:100774008E828F837401F0900833E0FF7049E5DBCB
:1007840020E303020814E5E420E035E5DB30E21A57
:10079400EF75F003A42429FD740835F0FE8D828ED4
:1007A40083A3A3E4F043E4048016EF75F003A424C8
:1007B40029FD740835F0FE8D828E83A3A37401F0A5
:1007C40043E40175820022BF0146E5DB30E741E5E1
:1007D400E520E035E5DB30E61AEF75F003A42429C3
:1007E400FD740835F0FE8D828E83A3A3E4F043E507
:1007F400048016EF75F003A42429FE740835F0FF75
:100804008E828F83A3A37401F043E50175820022D5
:1008140075821622E582900835F0E075F003A42471
:1008240029FE740835F0FF8E828F83A3E0F582C021
:1008340007C0061206E0D006D0078E828F83A3A3DA
:10084400E0F5820206F2E582900839F0900836E07D
:10085400FF8FD48FD690083AE4F0A3F0900839E0E3
:10086400FEC4540FFDBD0103ED8001E4F50DE4BDAC
:10087400090104F50E900837E0F9A3E0FA8ED5C219
:10088400D9750AC8750B00E50A450B602820D925DF
:10089400900001C007C006C005C002C0011205E0F7
:1008A400D001D002D005D006D007150A74FFB50ACE
:1008B40002150B80D275D50020D9047582FE222042
:1008C400D9030209C230DE0475820022E5D9540F2F
:1008D400F50C740EB50C0474018001E4F50A60078C
:1008E4007420450CF58222740AB50C04740180014D
:1008F400E4F86033E94A700A7420450CF50D850D5F
:100904008222C3E994FFEA94FF500519B9FF011A42
:1009140090083AE024FFFBA3E034FFFC90083AEB94
:10092400F0ECA3F00209C5E50D700CE50E7034BDC2
:100934000D0280030209BE30DE04758200227402B7
:10094400B50C0475820022E50A7003E86007742080
:10095400450CF58222E50C70030209C57420450C90
:10096400F5822230DE0475820022EF6011740BB52B
:100974000C0474018001E424FFE433FC801074034C
:10098400B50C0474018001E4FB24FFE433FCEC6047
:100994000475820022E50A7003E860077420450CA0
:1009A400F582227403B50C07740BB50C028012E5B2
:1009B4000C600E7420450CF582227582FE2275D8D7
:1009C400FF90000FC007C006C005C002C001120599
:1009D400E0D001D002D005D006D00790083AE02438
:1009E40001F0A3E03400F090083AE0FBA3E0FCC37C
:1009F400EB94C8EC9400500302088175822022AF66
:100A040083E582900841F0EFA3F074F3C0E0743BF7
:100A1400C0E07480C0E012313115811581158190D8
:100A24000841E0FEA3E0FF900845EEF0EFA3F0904C
:100A3400083CE0FBA3E0FCA3E0FD9000C8C007C0B5
:100A440006C005C004C0031205E0D003D004D005DD
:100A5400D006D007EB4C600E8B828C838DF0E412B1
:100A640030C8A31230C875D708900836E4F090084F
:100A7400377410F07427A3F07582D0C007C006C085
:100A840005C004C00312084AAA82D003D004D005CA
:100A9400D006D007EA60038A8222C006C00775D652
:100AA400D075D4D075D701900107E0FA7900900190
:100AB40006E0F87F0049F50FEF4AF510900843E58A
:100AC4000FF0E510A3F0D007D006E50F4510700332
:100AD400020DBFEE4F7003020DBF900100E0FF2036
:100AE400E703020C26C005C004C003C00FC0107485
:100AF40005C0E0743CC0E07480C0E0123131E5818F
:100B040024FBF581D003D004D005900843E0FEA374
:100B1400E0FF4E7003020C2090012CC007C006C0F9
:100B240005C004C0031205E0900836E5D4F090082F
:100B3400377410F07427A3F075829012084AAA82C1
:100B4400D003D004D005D006D007EA60038A8222FD
:100B5400A9D17A00C3E99EEA9F5006A9D17A008000
:100B6400048E018F0289067F00900843E0F8A3E019
:100B7400FA900843E8C39EF0EA9FA3F0EB4C60248C
:100B84008B828C838DF0123B73F8A3123B73FAEEC5
:100B940028FEEF3AFF8B828C838DF0EE1230C8A3CF
:100BA400EF1230C8900845E0FEA3E0FF7A00C3EAE4
:100BB40099501CC001EA2EF511E43FF5128A8275A2
:100BC4008300E0851182851283F00AD00180DF90D2
:100BD4000845E0FEA3E0FF900845E92EF0E43FA3BA
:100BE400F0AED17F00C005C004C003C006C00774C6
:100BF40021C0E0743CC0E07480C0E0123131E58172
:100C040024FBF581D003D004D005E5D1600E900615
:100C140028E0FFC3E5D19F4003020B0E75D7000205
:100C24000DBFC005C004C003C00FC0107434C0E0C1
:100C3400743CC0E07480C0E0123131E58124FBF5DE
:100C440081D003D004D005900843E0FEA3E0FF4E1A
:100C54007003020DBF9000C8C007C006C005C004E1
:100C6400C0031205E0D003D004D005D006D007900D
:100C74000628E0F97A00C3EE99EF9A50048E018FAA
:100C84000289D7900845E0FEA3E0FF900B4FEEF0F9
:100C9400EFA3F0E4A3F0900B52E5D7F0E4A3F090B7
:100CA400010075F000C007C006C005C004C00312EF
:100CB4003054D003D004D005D006D007E5D72EFE9B
:100CC400E43FFF900845EEF0EFA3F08E828F83A3FC
:100CD400E0FABA0956900B91E0F97A007401697050
:100CE40003EA600679017A00800479007A00900BA7
:100CF40091E9F08E828F83E9F0900B91E0FF7E0002
:100D04007A00C005C004C003C007C006C001C00209
:100D14007450C0E0743CC0E07480C0E0123131E52E
:100D24008124F9F581D003D004D005AED77F00C06B
:100D340005C004C003C006C0077466C0E0743CC0AC
:100D4400E07480C0E0123131E58124FBF581900824
:100D540036E5D6F09008377410F07427A3F0758246
:100D64001012084AAF82D003D004D005EF60038F7D
:100D74008222AED77F00900843E0F9A3E0FA9008FE
:100D840043E9C39EF0EA9FA3F0EB4C7003020C4BC3
:100D94008B828C838DF0123B73FEA3123B73FFA9ED
:100DA400D77A00E92EFEEA3FFF8B828C838DF0EE2A
:100DB4001230C8A3EF1230C8020C4B9000C81205C1
:100DC400E0E5D760047F9080027F1090083674C0FD
:100DD400F09008377410F07427A3F08F8212084A39
:100DE400E582FF60038F8222E5D77003F58222E556
:100DF400D17003F5822275821722AF83E5829008B1
:100E040048F0EFA3F0900847E0FFFD7E00C007C064
:100E140006C005C005C0067478C0E0743CC0E07428
:100E240080C0E0123131E58124FBF581D005D00684
:100E3400D007900848E0FBA3E0FC7A00C3EA9F5087
:100E44001EC005C0068A007901EA2BF582E43CF550
:100E540083E49388828983F00AD006D00580DDC0BC
:100E640005C006748FC0E0743CC0E07480C0E0121A
:100E74003131E58124FBF581229006287408F07451
:100E8400A2C0E0743CC0E07480C0E012313115812E
:100E9400158115819008477408F0903BA3120DFE4C
:100EA40090083C744AF07408A3F0E4A3F090083F5F
:100EB400F07402A3F0900629120A03E582FF60038E
:100EC4008F822274B7C0E0743CC0E07480C0E0122A
:100ED4003131158115811581900630E0900628F096
:100EE400903BA9E493FF90084AE0FDA3E0FE7C0058
:100EF400C3ED9FEE9C501974E4C0E0743CC0E074F0
:100F040080C0E01231311581158115817582172257
:100F140075820022E58290084CF09008477408F02E
:100F2400903BBB120DFE90084CE0FF900102F09044
:100F3400083CE4F0A3F0A3F090083FF0A3F0900085
:100F440000C007120A03AE82D007EE60038E82222D
:100F54008F057E00C007C005C006740EC0E0743D56
:100F6400C0E07480C0E0123131E58124FBF581D00A
:100F7400078F821206E09000641206357582002203
:100F8400E58290084DF09008477408F0903BCB122E
:100F94000DFE90084DE0900102F090083CE4F0A3AF
:100FA400F0A3F090083FF0A3F0900000020A039031
:100FB40008477408F0903BC3120DFE90083CE4F01F
:100FC400A3F0A3F090083FF07402A3F09006290266
:100FD4000A03AF83E582900853F0EFA3F09008531F
:100FE400E0FEA3E0FF8E828F83E07C0024FEFDEC14
:100FF40034FFA2E713CD13CD8E828F83A3E0FCBC14
:101004000302800475820022900850E0FBA3E0FCF8
:10101400EB24FFF515EC34FFF51690084EE0F517B8
:10102400A3E0F5188517138518147800C3E89D50BC
:1010340063C00588047D00C3EC9515ED9516D005B5
:101044005052C00588037C00EB2BFBEC33FC74038B
:101054002BFAE43CFDEA2EFAED3FFD8A828D83E013
:10106400D005600FE82513F582E43514F583743F49
:10107400F0801EE82517F9E43518FA74022BFBE416
:101084003CFCEB2EF582EC3FF583E0FC89828A83FD
:10109400F0088098E82517F582E43518F583E4F024
:1010A4007F00900852E0FE0E900B30EDF0EFA3F0BD
:1010B400900B32EEF0900B337434F0900B34745682
:1010C400F0900B35E517F0E518A3F0758205122FA3
:1010D4005E75820122AF83E582900855F0EFA3F09C
:1010E400900855E0FEA3E0FF7C007D008E828F8394
:1010F400E0FB7A00C3EC9BED64808AF063F080959A
:10110400F0503CEC2EF582ED3FF583E0FB7A00C015
:1011140007C006C005C004C003C002741EC0E0744A
:101124003DC0E07480C0E0123131E58124FBF581DB
:10113400D004D005D006D0070CBC00B00D80AD742F
:1011440026C0E0743DC0E07480C0E01231311581E6
:1011540015811581229008477408F0903BAB120D5D
:10116400FE90083C7457F07408A3F0E4A3F09008D0
:101174003FF07402A3F0900629120A03E582FF608F
:10118400038F8222903BB1E493FF900857E0FDA3C4
:10119400E0FE7C00C3ED9FEE9C5004758217229004
:1011A400062BE0FF7E0090062CE0FCE42FFFEC3ED3
:1011B400FE9008477408F0903BABC007C006120DC0
:1011C400FED006D0078F048E05900106ECF08E0742
:1011D400900107EFF090083C7457F07408A3F0E412
:1011E400A3F090083FF07402A3F0900629120A03BA
:1011F400E582FF60038F8222758200229008477483
:1012040008F0903BB3120DFE90083C7459F074083A
:10121400A3F0E4A3F090083FF07402A3F090062931
:10122400020A03E5829008C3F0E0FF75F010A4FD04
:10123400AEF024A3F582EE3408F583E4F0A3F0A322
:10124400F0A3F0ED24A3FDEE3408FE8D828E83A37B
:10125400A3A3A3E4F0A3F0A3F0A3F074082DF582F4
:10126400E43EF583E4F0A3F0A3F0A3F0740C2DF5B1
:1012740082E43EF583E4F0A3F0A3F0A3F07E00EE55
:1012840075F009A4245BFC740835F0FD74012CFA94
:10129400E43DFB8A828B83E0B507348C828D83E442
:1012A400F08A828B83F08C828D83A3A3F08C828D51
:1012B40083A3A3A3F08C828D83A3A3A3A3F0A3F0A1
:1012C400A3F0A3F074082CF582E43DF583E4F00E5A
:1012D400BE080040AA227F00EF75F009A4FDAEF01D
:1012E400245BFBEE3408FC8B828C83E06033ED24BA
:1012F4005BFDEE3408FE8D828E83A3A3A3A3E0FBE3
:10130400A3E0FCA3E0FDA3E0FEBB0615BC0012BDF8
:10131400000FBE000C90004BC0071205B3D007802D
:101324002AEF75F009A4245BFD740835F0FE8D8264
:101334008E83E0600C90003FC0071205B3D0078095
:101344000A900045C0071205B3D0070FBF0800403C
:101354008722E5829008C4F0E0FF7E00EE75F00974
:10136400A4FCADF0245BFAED3408FB8A828B83E0A5
:101374006052EC245BFCED3408FD8C828D83A3A3C6
:10138400A3A3E0F8A3E0F9A3E0FAA3E0FBB80634D2
:10139400B90031BA002EBB002B8C828D83A3E0FDF3
:1013A400900834E4F08D82C007C006120818D006F5
:1013B400D0079008D6EFF08E82C007C0061221290C
:1013C400D006D0070EBE08004092227F00EF75F0D1
:1013D40009A4FDAEF0245BFBEE3408FC8B828C8305
:1013E400E070030215C8ED245BFDEE3408FE8D8227
:1013F4008E83A3A3A3A3E0F9A3E0FAA3E0FBA3E0F5
:10140400FCB9060BBA0008BB0005BC00028003024D
:1014140015C88D828E83A3E0FC900834E4F08C829E
:10142400C007C006C005120818D005D006D0078D25
:10143400828E83A3A3A3E0FE747F5E4490FDEE300E
:10144400E7067CC07E0080047C007E00900836ECB9
:10145400F0900837E4F0A3F08D82C00712084AE543
:1014640082D00760030215A0EF75F009A4245BF590
:1014740020740835F0F52174032520FBE43521FCA4
:101484008B828C83E0F97A006301808B828C83E900
:10149400F09008C5E5D1F0E0F519E070030215A05D
:1014A400B2968B828C83E0F87900747F58F51A89A0
:1014B4001B8F1C891D74042520F51EE43521F51F9E
:1014C400851E82851F83E0F8A3E0F9A3E0FAA3E078
:1014D400FEC007C004C003C01AC01BC01CC01DC08E
:1014E40000C001C002C0067428C0E0743DC0E074AE
:1014F40080C0E0123131E58124F5F581D003D004B8
:10150400D007AA197E00851E82851F83E0FD8B8289
:101514008C83E0FB53037F852082852183A3E075C0
:10152400F010A4F9ACF024A3F582EC3408F583E0C0
:10153400F520E924A3F9EC3408FC89828C83A3A365
:10154400A3A3E0F51E740829F582E43CF583E0F8D2
:10155400740C29F582E43CF583E0FC900B37EAF047
:10156400EEA3F0900B39EDF0900B3AEFF0900B3BBB
:10157400EBF0900B3C7400F07400A3F0900B3EE58C
:1015840020F0900B3FE51EF0900B40E8F0900B41EB
:10159400ECF0758204C007122F5FD007EF75F009D5
:1015A400A4245BFD740835F0FE74082DF582E43E36
:1015B400F583E0FE9008C6E0FDC39E40028D0690D0
:1015C40008C6EEF00FBF080050030213D19008C6FE
:1015D400E0FF7E008F828E83020635AF83E5829022
:1015E40008CAF0EFA3F09008CCE4F0A3F09008CE82
:1015F400F09008CFF09008C9E075F009A4245BFED0
:10160400740835F0FF9008CAE0F528A3E0F529AA8C
:1016140028AB299008C7E0F526A3E0F5279008CC6D
:10162400E0F522A3E0F523C3E5229526E5239527DB
:10163400400122C006C007E5222528F582E52335AE
:1016440029F583E0FF9008D074FC5FF074035FF524
:10165400229008D1F09008D2E4F0A3F0A3F0A3F014
:101664007403B522028006D007D006800BD007D0C1
:10167400069008D1E52204F0C006C0079008CCE02B
:10168400FEA3E0FF74012EF522E43FF5239008D178
:10169400E0F524752500D007D006C3E52595245030
:1016A40054C006C007AE257F00EE2522FEEF352389
:1016B400FFEE2AF582EF3BF583E0F8E4F9FEFFE55F
:1016C40025C40354F8FD8DF005F0800CE828F8E9F2
:1016D40033F9EE33FEEF33FFD5F0F19008D2E04852
:1016E400F0A3E049F0A3E04EF0A3E04FF00525D0CD
:1016F40007D00680A59008CEE0FD9008D0E0FCE479
:10170400BCC00104F52579008D22752300E5256010
:1017140008752A01752B008005E4F52AF52BC0060F
:10172400C007E522C3952AF8E523952BFF89047E9B
:1017340000C3EC98EE64808FF063F08095F0D007DE
:10174400D0065030C007C006C005C003C002C001A7
:10175400743FC0E0743DC0E07480C0E012313115C4
:101764008115811581D001D002D003D005D006D0D7
:10177400070980949008D0E0FDBD04028063BD0891
:10178400030219C5BD1403021D4FBD1803021E3701
:10179400BD2403021D89BD2803021E71BD3403024A
:1017A4001DC3BD4403021DFDBD6403021F2CBD7493
:1017B40003022014BD8003021F66BD840302204E71
:1017C400BD9003021FA0BD9403022088BDA00302A4
:1017D4001EABBDB003021FDABDC003021EEC022023
:1017E400C19008D2E0F52CA3E0F52DA3E0F52EA3DB
:1017F400E0F52FC3E52D94FFE52E9400E52F94002A
:10180400400AE4F52C752DFFF52EF52FC007C00610
:10181400C003C0027444C0E0743DC0E07480C0E002
:10182400123131158115811581D002D003D006D033
:10183400077401B52C0D14B52D09B52E06B52F036B
:101844000219067407B52C0CE4B52D08B52E05B5A0
:101854002F02805E7408B52C0CE4B52D08B52E0556
:10186400B52F0280257409B52C0CE4B52D08B52ECE
:1018740005B52F028064E4B52C0DB52E0AB52F07EB
:10188400F4B52D0302192D021966C007C006C00362
:10189400C0027450C0E0743DC0E07480C0E01231F6
:1018A40031158115811581D002D003D006D00702ED
:1018B400199DC007C006C003C0027455C0E0743D42
:1018C400C0E07480C0E0123131158115811581D0DA
:1018D40002D003D006D00702199DC007C006C0037A
:1018E400C0027465C0E0743DC0E07480C0E0123191
:1018F40031158115811581D002D003D006D007029D
:10190400199DC007C006C003C002746CC0E0743DDA
:10191400C0E07480C0E0123131158115811581D089
:1019240002D003D006D0078070C007C006C003C031
:10193400029008D2E0C0E0A3E0C0E0A3E0C0E0A3CE
:10194400E0C0E07485C0E0743DC0E07480C0E01283
:101954003131E58124F9F581D002D003D006D007D6
:101964008037C007C006C003C0029008D2E0C0E0C0
:10197400A3E0C0E0A3E0C0E0A3E0C0E0749CC0E04A
:10198400743DC0E07480C0E0123131E58124F9F582
:1019940081D002D003D006D007C007C006C003C060
:1019A400027426C0E0743DC0E07480C0E01231319E
:1019B400158115811581D002D003D006D0070221EC
:1019C400089008CFE07036C002C00374042EF52CD2
:1019D400E43FF52D9008D2E0F8A3E0FAA3E0FBA3DE
:1019E400E0FC852C82852D83E8F0EAA3F0EBA3F0DC
:1019F400ECA3F09008CF7401F0D003D002C007C06C
:101A040006C003C00274ACC0E0743DC0E07480C082
:101A1400E0123131158115811581D002D003D00631
:101A2400D0079008D2E0F52CA3E0F52DA3E0F52E25
:101A3400A3E0F52FC37438952CE4952DE4952EE49A
:101A4400952F5003021CFAE52C240B83F582E52C18
:101A5400243D83F583E473CDF51D456D95BDE50DFA
:101A640035FAFAFAFAFAFAFAFAFAFAFAFAFAFAFA97
:101A7400FAFAFAFAFAFAFAFAFAFAFAFAFAFAFAFAC2
:101A8400FAFAFAFAFAFAFA5D85ACFAFAFAFAFAD339
:101A94001A1A1B1B1B1B1B1B1C1C1C1C1C1C1C1C8C
:101AA4001C1C1C1C1C1C1C1C1C1C1C1C1C1C1C1C72
:101AB4001C1C1C1C1C1C1C1C1C1C1C1C1C1C1C1C62
:101AC4001C1C1C1C1C1C1C1C1CC007C006C003C006
:101AD4000274B3C0E0743DC0E07480C0E0123131E0
:101AE400158115811581D002D003D006D007021DBF
:101AF40027C007C006C003C00274BBC0E0743DC069
:101B0400E07480C0E0123131158115811581D00255
:101B1400D003D006D007021D27C007C006C003C0EB
:101B24000274C3C0E0743DC0E07480C0E01231317F
:101B3400158115811581D002D003D006D007021D6E
:101B440027C007C006C003C00274C9C0E0743DC00A
:101B5400E07480C0E0123131158115811581D00205
:101B6400D003D006D007021D27C007C006C003C09B
:101B74000274D2C0E0743DC0E07480C0E012313120
:101B8400158115811581D002D003D006D007021D1E
:101B940027C007C006C003C00274DBC0E0743DC0A8
:101BA400E07480C0E0123131158115811581D002B5
:101BB400D003D006D007021D27C007C006C003C04B
:101BC4000274E3C0E0743DC0E07480C0E0123131BF
:101BD400158115811581D002D003D006D007021DCE
:101BE40027C007C006C003C00274ECC0E0743DC047
:101BF400E07480C0E0123131158115811581D00265
:101C0400D003D006D007021D27C007C006C003C0FA
:101C14000274F3C0E0743DC0E07480C0E01231315E
:101C2400158115811581D002D003D006D007021D7D
:101C340027C007C006C003C0027409C0E0743EC0D8
:101C4400E07480C0E0123131158115811581D00214
:101C5400D003D006D007021D27C007C006C003C0AA
:101C6400027420C0E0743EC0E07480C0E0123131E0
:101C7400158115811581D002D003D006D007021D2D
:101C840027C007C006C003C0027422C0E0743EC06F
:101C9400E07480C0E0123131158115811581D002C4
:101CA400D003D006D007807BC007C006C003C002A3
:101CB4007424C0E0743EC0E07480C0E01231311579
:101CC4008115811581D002D003D006D0078054C07D
:101CD40007C006C003C0027426C0E0743EC0E074AE
:101CE40080C0E0123131158115811581D002D003F5
:101CF400D006D007802DC007C006C003C002C02C88
:101D0400C02DC02EC02F749CC0E0743DC0E0748010
:101D1400C0E0123131E58124F9F581D002D003D03D
:101D240006D007C007C006C003C0027426C0E07412
:101D34003DC0E07480C0E0123131158115811581F8
:101D4400D002D003D006D007022108C007C006C0C5
:101D540003C0029008D2E0C0E0A3E0C0E0A3E0C06A
:101D6400E0A3E0C0E0742CC0E0743EC0E07480C026
:101D7400E0123131E58124F9F581D002D003D00697
:101D8400D007022108C007C006C003C0029008D2D1
:101D9400E0C0E0A3E0C0E0A3E0C0E0A3E0C0E074E2
:101DA4003DC0E0743EC0E07480C0E0123131E58192
:101DB40024F9F581D002D003D006D007022108C04F
:101DC40007C006C003C0029008D2E0C0E0A3E0C090
:101DD400E0A3E0C0E0A3E0C0E0744EC0E0743EC005
:101DE400E07480C0E0123131E58124F9F581D0023C
:101DF400D003D006D007022108C007C006C003C024
:101E0400029008D2E0C0E0A3E0C0E0A3E0C0E0A3F9
:101E1400E0C0E07460C0E0743EC0E07480C0E012D2
:101E24003131E58124F9F581D002D003D006D00701
:101E3400022108C007C006C003C0029008D2E0C057
:101E4400E0A3E0C0E0A3E0C0E0A3E0C0E0744EC0C3
:101E5400E0743EC0E07480C0E0123131E58124F9C1
:101E6400F581D002D003D006D007022108C007C0F4
:101E740006C003C0029008D2E0C0E0A3E0C0E0A323
:101E8400E0C0E0A3E0C0E07460C0E0743EC0E07471
:101E940080C0E0123131E58124F9F581D002D0030C
:101EA400D006D007022108C007C006C003C00290B4
:101EB40008D2E0C0E0A3E0C0E0A3E0C0E0A3E0C03B
:101EC400E07472C0E0743EC0E07480C0E01231314E
:101ED400E58124F9F581D002D003D006D00790081B
:101EE400CEE02401F0022108C007C006C003C002EE
:101EF4009008D2E0C0E0A3E0C0E0A3E0C0E0A3E02B
:101F0400C0E07488C0E0743EC0E07480C0E0123168
:101F140031E58124F9F581D002D003D006D00790B1
:101F240008CEE014F0022108C007C006C003C002B6
:101F34009008D2E0C0E0A3E0C0E0A3E0C0E0A3E0EA
:101F4400C0E0749CC0E0743EC0E07480C0E0123114
:101F540031E58124F9F581D002D003D006D00702FF
:101F64002108C007C006C003C0029008D2E0C0E048
:101F7400A3E0C0E0A3E0C0E0A3E0C0E074AAC0E036
:101F8400743EC0E07480C0E0123131E58124F9F57B
:101F940081D002D003D006D007022108C007C006B2
:101FA400C003C0029008D2E0C0E0A3E0C0E0A3E018
:101FB400C0E0A3E0C0E074B9C0E0743EC0E0748047
:101FC400C0E0123131E58124F9F581D002D003D08B
:101FD40006D007022108C007C006C003C00290084B
:101FE400D2E0C0E0A3E0C0E0A3E0C0E0A3E0C0E032
:101FF40074C9C0E0743EC0E07480C0E0123131E5C1
:102004008124F9F581D002D003D006D0070221083B
:10201400C007C006C003C0029008D2E0C0E0A3E03D
:10202400C0E0A3E0C0E0A3E0C0E074DAC0E0743E26
:10203400C0E07480C0E0123131E58124F9F581D02B
:1020440002D003D006D007022108C007C006C0038F
:10205400C0029008D2E0C0E0A3E0C0E0A3E0C0E08A
:10206400A3E0C0E074EBC0E0743EC0E07480C0E064
:10207400123131E58124F9F581D002D003D006D0A4
:1020840007022108C007C006C003C0029008D2E0BE
:10209400C0E0A3E0C0E0A3E0C0E0A3E0C0E074FAC5
:1020A400C0E0743EC0E07480C0E0123131E58124A8
:1020B400F9F581D002D003D006D0078047A9247C4B
:1020C400008D007D00C007C006C003C0029008D286
:1020D400E0C0E0A3E0C0E0A3E0C0E0A3E0C0E0C053
:1020E40001C004C000C005740CC0E0743FC0E074BB
:1020F40080C0E0123131E58124F5F581D002D003AE
:10210400D006D0079008D1E0FD7C000DBD00010C85
:102114009008CCE0F8A3E0F99008CCED28F0EC3975
:10212400A3F0021621E5829008D7F0E075F009A427
:10213400245BFE740835F0FF74022EFEE43FFF8E2C
:10214400828F83E0FD7C00C007C006C005C0047414
:102154004CC0E0743FC0E07480C0E0123131E581CE
:1021640024FBF5819008477408F0903BDB120DFEC8
:10217400D006D0078E828F83E0900104F090010690
:102184007401F09008D6E0900629F090083C74D8C9
:10219400F07408A3F0E4A3F090083FF0A3F09006D5
:1021A40029020A03E5829008DBF0E075F009A42413
:1021B4005BFE740835F0FF8E828F83A3A3E0FF7E5D
:1021C40000C007C006744CC0E0743FC0E07480C017
:1021D400E0123131E58124FBF5819008477408F061
:1021E400903BEB120DFE9008DAE0900102F09008AB
:1021F4003C74DCF07408A3F0E4A3F090083FF0A36F
:10220400F0900629020A03E5829008DEF0E075F0FA
:1022140009A4245BFE740835F0FF74022EFEE43F2B
:10222400FF8E828F83E0FD7C00C007C006C005C01E
:1022340004746CC0E0743FC0E07480C0E0123131BB
:10224400E58124FBF5819008477408F0903BD31294
:102254000DFED006D0078E828F83E0900104F090AB
:10226400083C74DFF07408A3F0E4A3F090083FF096
:10227400A3F0900629C007C006120A039008477409
:1022840008F0903BE3120DFED006D0078E828F83B8
:10229400E0900104F0900106E4F09001077402F06C
:1022A40090083C74DFF07408A3F0E4A3F090083FB6
:1022B400F07402A3F0900629120A03E582FF60037A
:1022C4008F82227E007F009008DFE0FCA3E0FDC344
:1022D400EE9CEF9D5036EE2429F582EF3406F5830B
:1022E400E0FD7C00C007C006C005C004741EC0E049
:1022F400743DC0E07480C0E0123131E58124FBF507
:1023040081D006D0070EBE00BE0F80BB7426C0E08D
:10231400743DC0E07480C0E012313115811581151F
:10232400819008DFE0FEA3E0FF9008DEE0FD75F099
:1023340009A4245BFB740835F0FC8B828C83A3A373
:10234400E0FA8B828C83A3E0FC900B30EEF0EFA3D9
:10235400F0900B32EDF0900B33EAF0900B34ECF08C
:10236400900B357429F07406A3F0758207C005122A
:102374002F5ED0059008DFE0FEA3E0FF9008C7EED3
:10238400F0EFA3F09008C9EDF09006291215DF755F
:102394008200229008E1E0FEA3E0FF8E828F83A3F7
:1023A400A3E0FD7C00C007C006C005C0047491C052
:1023B400E0743FC0E07480C0E0123131E58124FB59
:1023C400F581D006D0078E828F83A3A3A3A3A3E0B5
:1023D400FD7C00C007C006C005C004749FC0E07443
:1023E4003FC0E07480C0E0123131E58124FBF58107
:1023F400D006D00774062EF582E43FF583E0FD7C19
:1024040000C007C006C005C00474ABC0E0743FC080
:10241400E07480C0E0123131E58124FBF581D006FF
:10242400D00774072EF582E43FF583E0FF7E00C0F9
:1024340007C00674BBC0E0743FC0E07480C0E01203
:102444003131E58124FBF58122AF83E5829008E5F3
:10245400F0EFA3F09008E5E0FEA3E0FF8E828F8307
:10246400A3A3E0FF7E00C007C00674D4C0E0743F9D
:10247400C0E07480C0E0123131E58124FBF5819025
:1024840008E3E0FEA3E0FF8E828F83A3A3E0FDFBBD
:1024940053030F7C00EDC4540FFD7A008E828F83AA
:1024A400A3A3A3E0F853000F7900C007C006C0033C
:1024B400C004C005C002C000C00174E9C0E0743F9C
:1024C400C0E07480C0E0123131E58124F7F581D099
:1024D40006D0078E828F83A3A3A3A3E0FD7C00C054
:1024E40007C006C005C00474F8C0E0743FC0E074BF
:1024F40080C0E0123131E58124FBF581D006D0079C
:1025040074062EF582E43FF583E0FF7E00C007C029
:1025140006740FC0E07440C0E07480C0E012313132
:10252400E58124FBF5812222E5829008E7F09008FA
:10253400E8E4F09008E7E0FFFEFD75F003A4F53051
:1025440085F0318F35753400900064C007C006C033
:10255400051206359000641206358535821212275D
:10256400853582120706D005D006D0077800900082
:1025740001C007C006C005C000120635D000D00552
:10258400D006D0078F82C007C006C005C00012075E
:1025940056E582D000D005D006D007600608B8649E
:1025A4000040CBB86441C0058F82C007C006C00597
:1025B400120672D005D006D0078F007D00C007C078
:1025C40006C005C000C005741FC0E07440C0E074BC
:1025D40080C0E0123131E58124FBF581D005D006BD
:1025E400D007D005022CF5C005900834E4F08E82A3
:1025F400C007C006C005120818D005D0068E007D9D
:1026040000C006C005C000C0057442C0E07440C0EC
:10261400E07480C0E0123131E58124FBF581D005FE
:10262400120E7DAD82D006D0079008E8EDF0EDD013
:10263400056003022C84C00590062DE0F87D00C0DF
:1026440007C006C005C000C005745CC0E07440C08B
:10265400E07480C0E0123131E58124FBF581D005BE
:10266400900630E0F87D00C005C000C005746DC060
:10267400E07440C0E07480C0E0123131E58124FB95
:10268400F581D005D006EE75F010A4F8ADF024A3C2
:10269400F532ED3408F533900631E0F97A007B0029
:1026A4007C00853282853383E9F0EAA3F0EBA3F062
:1026B400ECA3F0E824A3F8ED3408FD740428F53203
:1026C400E43DF533900632E0F97A007B007C008526
:1026D4003282853383E9F0EAA3F0EBA3F0ECA3F0B4
:1026E400740828F532E43DF533900633E0F97A00B6
:1026F4007B007C00853282853383E9F0EAA3F0EB2A
:10270400A3F0ECA3F0740C28F8E43DFD900634E04B
:10271400F97A007B007C0088828D83E9F0EAA3F0DB
:10272400EBA3F0ECA3F0900629C006C0051210D963
:10273400D005D006903BBDE4932EF532853282C09D
:1027440006120F18AD82D006D0079008E8EDF0ED20
:10275400D0056003022C84EE75F003A42429FB74D5
:102764000835F0FC8B828C83A3E532F0C007C006E9
:10277400C005120FB39006291210D9D005D00690C7
:10278400084E7429F07406A3F0900850E4F0740223
:10279400A3F0900852EEF0900629C006C005120F6F
:1027A400D6E582D005D006D007602CC007C006C08D
:1027B400057429C0E07406C0E0E4C0E07481C0E0A0
:1027C4007440C0E07480C0E0123131E58124FAF530
:1027D40081D005D006D007C007C006C00512115924
:1027E400AC82D005D006D0079008E8ECF0EC60038A
:1027F400022C8490062BE0FC7B0090062CE0FAE48B
:102804002CFCEA3BFB9008E7E0FA0A900B30ECF072
:10281400EBA3F0900B32E532F0900B33EAF0900B1F
:102824003474AAF0900B357429F07406A3F0758201
:1028340006122F5E900AEBE4F0A3F07B007C00907C
:10284400062BE0FA8A3275330090062CE0FAE42570
:1028540032F8EA3533FAC3EB98EC9A5036EB242974
:10286400F582EC3406F583E0F97A00C004C003C0B5
:1028740001C002741EC0E0743DC0E07480C0E01268
:102884003131E58124FBF581D003D0040BBB00AFCB
:102894000C80AC7426C0E0743DC0E07480C0E012CB
:1028A400313115811581158190062EE0FCFA7B00EB
:1028B400C004C002C0037494C0E07440C0E07480DB
:1028C400C0E0123131E58124FBF58190062DE0FB57
:1028D4007A00C003C00274ADC0E07440C0E07480EC
:1028E400C0E0123131E58124FBF581D0048C8212E1
:1028F4000F8490062BE0FC7B0090062CE0FAE42C7D
:10290400FCEA3BFB8C018B02E4F532F533C3E53280
:1029140099E5339A502EC004C003E53224EBF8E560
:10292400333408FCE5322429F582E5333406F58393
:10293400E088828C83F00532E4B532020533D0039B
:10294400D00480C9900629E0FA9008E9F0E4A3F0E5
:102954009008E7E0F53BA93B8C368B379008E9E01B
:10296400F532A3E0F533C3E5329536E533953740C8
:1029740003022C80E53224EBF532E5333408F533D9
:10298400900AEDE532F0E533A3F085328285338396
:10299400A3E0F8B80402801AB805028056B82103EF
:1029A400022B85B82403022BDBB82503022C070273
:1029B4002C3388037C00C001C003C00474C2C0E08F
:1029C4007440C0E07480C0E0123131E58124FBF52D
:1029D40081D001AB32AC33900AEBEBF0ECA3F09076
:1029E40008E1EBF0ECA3F08982C001122397D00137
:1029F400022C5BC00188017C00C001C001C00474CA
:102A0400DEC0E07440C0E07480C0E0123131E58182
:102A140024FBF5818532828533831210D9D001904D
:102A24000AEBE0FBA3E0FC8B828C83A3A3A3A3A308
:102A3400E0FCBC03028005D001022C5BAB32AC335A
:102A44008B3C8C3D7402253CF538E4353DF53985E5
:102A54003882853983E0D00120E703022C5B753A84
:102A640000C001E53A75F009A4245BF9740835F057
:102A7400FA89828A83E0D0016008053A74F8253A1D
:102A840050DFC001A93A7A00C001C001C00274F944
:102A9400C0E07440C0E07480C0E0123131E58124AC
:102AA400FBF581D001E53A75F009A4245BF97408BB
:102AB40035F0FA740329F53EE43AF53F853882850A
:102AC4003983E0F538853E82853F83F089828A83A5
:102AD4007401F00429F53EE43AF53F900AEBE0FB7B
:102AE400A3E0FC8B828C83A3A3E0853E82853F8395
:102AF400F089828A83A3E53BF0740829F53EE43A21
:102B0400F53F853C82853D83A3A3A3A3A3A3E0FC57
:102B1400853E82853F83F08C3E753F00AB387C0058
:102B2400C002C001C03EC03FC003C004741BC0E06B
:102B34007441C0E07480C0E0123131E58124F9F5BC
:102B440081853A8212220BD001D00289828A83A322
:102B5400A3A3A3E0F9A3E0FAA3E0FBA3E0FCB90676
:102B64000BBA0008BB0005BC00028005D001022C92
:102B74005B9008DAE4F0853A821221A8D001022C95
:102B84005B88037C00C001C003C0047450C0E074BF
:102B940041C0E07480C0E0123131E58124FBF5814D
:102BA400D001900AEBE0FBA3E0FC900AEBE0F5F027
:102BB400A3E045F07003022C5BC001A932AA339054
:102BC40008E3E9F0EAA3F08B828C83C00112244D60
:102BD400D001D001022C5B88037C00C001C003C07B
:102BE400047466C0E07441C0E07480C0E012313106
:102BF400E58124FBF5818532828533831210D9D097
:102C040001805488037C00C001C003C004748EC0DA
:102C1400E07441C0E07480C0E0123131E58124FBEE
:102C2400F5818532828533831210D9D00180287CC6
:102C340000C001C000C00474B8C0E07441C0E074B6
:102C440080C0E0123131E58124FBF5818532828533
:102C540033831210D9D001900AEDE0FBA3E0FC8B82
:102C6400828C83E0FB7C009008E9E0F8A3E0FA9012
:102C740008E9EB28F0EC3AA3F002296075820022FF
:102C84009008E8E0FCFA7B00C007C006C005C00459
:102C9400C002C00374DAC0E07441C0E07480C0E0D4
:102CA400123131E58124FBF581D004D0058D030B6D
:102CB400900B30E4F0A3F0900B32EBF0900B33EC7C
:102CC400F0900B3474EEF0900B35E4F0A3F07582C1
:102CD40003C005122F5EE5302429F582E53134085E
:102CE400F5837402F07582011206F2D005D006D085
:102CF40007053474F62534400302254C9008E8E0B7
:102D0400F58222900AEFE4F010D803022E94E5DB5A
:102D140030E363900829E06008E5E430E003022D25
:102D2400D17582001206729008297401F0E4C0E0A3
:102D3400C0E074E8C0E07441C0E07480C0E01231C7
:102D440031E58124FBF581900B30E4F0A3F0900B86
:102D54003204F0900B33F0900B34F0900B35E4F028
:102D6400A3F0758201122F5E75820012252CE58274
:102D7400900AEFF08057900829E0FFBF0100404D12
:102D8400758200121227758200120672E4C0E0C038
:102D9400E07409C0E07442C0E07480C0E0123131D4
:102DA400E58124FBF581900B30E4F0A3F0900B3225
:102DB40004F0900B33F0900B34F0900B35E4F0A357
:102DC400F0758202122F5E900AEF7416F0E5DB3084
:102DD400E76490082CE06008E5E530E003022E94F7
:102DE40075820112067290082C7401F0C0E0E4C0F0
:102DF400E074E8C0E07441C0E07480C0E012313196
:102E0400E58124FBF581900B30E4F0A3F0900B32C4
:102E14007402F0900B33F0900B34F0900B35E4F027
:102E2400A3F0758201122F5E75820112252CE582B2
:102E3400900AEFF0805A90082CE0FFBF0100405048
:102E44007582011212277582011206727401C0E0A4
:102E5400E4C0E07409C0E07442C0E07480C0E012D1
:102E64003131E58124FBF581900B30E4F0A3F0903F
:102E74000B327402F0900B33F0900B34F0900B355E
:102E8400E4F0A3F0758202122F5E900AEF7416F03C
:072E9400900AEFE0F5822235
:103BA30080060001000012008006000200001200DF
:103BB3008106000400000900000502000000000067
:103BC300800602030904020400090000000000004B
:103BD300210A00000000000021090002000000008B
:103BE300810600220000FF00210B000000000000FE
:103BF300686F73744374726C5472616E736665722A
:103C03000A0052656D61696E696E67206279746539
:103C13007320746F20726561642025640A00526505
:103C23006365697665642025692062797465730A22
:103C33000052656D61696E696E67206279746573A0
:103C430020746F2077726974652025690053455489
:103C53005F504F52542020253032582020253032D7
:103C630058200053656E64696E6720256920627968
:103C73007465730A0066696C6C5478427566666590
:103C8300722025692062797465730A0066696C6C19
:103C9300547842756666657220646F6E650A0067C4
:103CA30065744465766963654465736372697074AA
:103CB3006F720A0044657669636520646573637295
:103CC3006970746F722072657175657374207365A2
:103CD3006E74207375636365737366756C6C790AB0
:103CE300005265636569766564207061636B657412
:103CF30020697320736D616C6C6572207468616EEA
:103D03002065787065637465640A00536574416463
:103D130064726573733A2025690A0030782530325E
:103D23005820000A0048494420256C752C20256939
:103D33002064617461202569203A2000202020201E
:103D4300005573616765207061676520004C4544C9
:103D530073004B6579626F6172642F4B6579706193
:103D63006400427574746F6E0067656E6572696393
:103D7300206465736B746F7020636F6E74726F6C05
:103D8300730076656E646F7220646566696E656440
:103D93002030782530346C7800756E6B6E6F776EDB
:103DA3002030782530326C780055736167652000C8
:103DB300556E6B6E6F776E00506F696E746572002F
:103DC3004D6F757365005265736572766564004A5D
:103DD3006F79737469636B0047616D65706164002B
:103DE3004B6579626F617264004B65797061640041
:103DF3004D756C74692D4178697320636F6E7472AD
:103E03006F6C6C6572005461626C657420737973B6
:103E130074656D20636F6E74726F6C730058005914
:103E2300005A00576865656C004C6F676963616C85
:103E3300206D696E20256C750A004C6F676963619C
:103E43006C206D617820256C750A00506879736960
:103E530063616C206D696E20256C750A005068796A
:103E6300736963616C206D617820256C750A00436A
:103E73006F6C6C656374696F6E2073746172742008
:103E8300256C750A00436F6C6C656374696F6E20F3
:103E9300656E6420256C750A00556E697420307850
:103EA3002530326C780A00496E707574203078259D
:103EB30030326C780A004F75747075742030782531
:103EC30030326C780A00466561747572652030780B
:103ED3002530326C780A005265706F7274207369F2
:103EE3007A6520256C750A005265706F72742049DB
:103EF3004420256C750A005265706F727420636FDD
:103F0300756E7420256C750A00556E6B6E6F776E37
:103F130020484944207265706F7274206964656E2D
:103F23007469666965723A203078253032782028C2
:103F330025692062797465732920646174613A206C
:103F430030782530326C780A0053656E64696E6789
:103F5300207265706F727420746F20696E7465725D
:103F6300666163652025690A00526571756573741E
:103F7300696E67207265706F72742066726F6D2050
:103F8300696E746572666163652025690A00496E0E
:103F9300746572666163652025640A002020436CA2
:103FA3006173732025640A00202053756220436CDB
:103FB3006173732025640A002020496E746572665C
:103FC3006163652050726F746F636F6C2025640AA0
:103FD3000048494420617420496E746572666163C8
:103FE300652025640A0020205553422025642E2590
:103FF3006425640A002020436F756E747279206310
:104003006F6465203078253032580A0020205479B7
:10401300706558203078253032580A004661696C43
:10402300656420746F20656E61626C6520726F6FCA
:10403300742068756220706F72742025690A00729B
:104043006F6F742068756220706F72742025692009
:10405300656E61626C65640A004465766963652018
:10406300636C6173732025690A004D617820706168
:10407300636B65742073697A652025690A0044655A
:104083007669636520537472696E673A2025730AF3
:1040930000436F6E66696775726174696F6E20762F
:1040A300616C75653A2025640A00496E7465726611
:1040B30061636520636F756E743A2025640A004955
:1040C3006E7465726661636520646573637269709B
:1040D300746F7220666F756E640A00456E64706F4C
:1040E300696E742064657363726970746F7220669D
:1040F3006F756E640A00436F6E6E6563746564204A
:1041030064657669636520617420706F736974698F
:104113006F6E3A2025690A00476F7420656E6470DC
:104123006F696E7420666F72207468652048494415
:1041330064657669636520307825303278203A20CB
:10414300496E74657276616C2025640A004849449F
:104153002064657363726970746F7220666F756E25
:10416300640A00436C6173732073706563696669E5
:104173006320686561646572206465736372697046
:10418300746F7220666F756E640A00436C6173739B
:1041930020737065636966696320656E64706F6917
:1041A3006E742064657363726970746F7220666FD6
:1041B300756E640A00556E65787065637465642076
:1041C30064657363726970746F7220747970653A91
:1041D30020253032580A004572726F72203D202527
:1041E3003032580A00446576696365206174207231
:1041F3006F6F742068756220256920636F6E6E652A
:10420300637465640A00446576696365206174209C
:10421300726F6F7420687562202569206469736307
:0A4223006F6E6E65637465640A0037
:01424A000073
:102E9B0010980122900B92E024F0F582E4340AF5AD
:102EAB0083E599F0900B92E024F0F582E4340AF577
:102EBB0083E0FF7E00C007C006C007C006742DC0AC
:102ECB00E07442C0E07480C0E0123131E58124F936
:102EDB00F581900B92E024F0FEE4340AFF8E828F92
:102EEB0083E0FDBD0A02800974802DFD8E828F83E5
:102EFB00F0900B92E0FF24F0F582E4340AF583E0C6
:102F0B00FEBE0A028005BF4000403F900AF0E0FE83
:102F1B00BEC90F9000551205B31212DA90000A12B7
:102F2B0005B3900AF0E0FEBED20312006A900AF0DD
:102F3B00E0FEBECC0D900AF1E0FE53061F8E82120E
:102F4B001356900B92E4F0022E9B900B92EF04F031
:052F5B00022E9B222262
:10422D00554152543A2027256327205B25303258BB
:02423D005D0022
:01424B000072
:102F6000AF82AE83ADF0FC900B46EFF0EEA3F0ED38
:102F7000A3F0ECA3F0900B4AE4F0A3F0A3F0A3F0CD
:102F8000900B42E0FCA3E0FDA3E0FEA3E0FF7B206A
:102F9000C003900B46E0F8A3E0F9A3E0FAA3E0FB3E
:102FA000900B4E235401F0E828F8E933F9EA33FA9C
:102FB000EB33FB900B46E8F0E9A3F0EAA3F0EBA3B8
:102FC000F0900B4AE0F8A3E0F9A3E0FAA3E0FBE8F5
:102FD00028F8E933F9EA33FAEB33FB900B4AE8F0CF
:102FE000E9A3F0EAA3F0EBA3F0D003900B4EE0606E
:102FF00008900B4AE043E001F0900B4AE0F54BA348
:10300000E0F54CA3E0F54DA3E0F54EC3E54B9CE5A0
:103010004C9DE54D9EE54E9F401F900B4AE54BC3EE
:103020009CF0E54C9DA3F0E54D9EA3F0E54E9FA3DB
:10303000F0900B46E043E001F01BEB6003022F90A1
:10304000900B46E0FCA3E0FDA3E0FEA3E08C828DA4
:04305000838EF02259
:06003700E478FFF6D8FD9D
:10305400AFF0AE83E582900B54F0EEA3F0EFA3F053
:10306400900B54E0F54BA3E0F54CA3E0F54DAA4BCF
:10307400AB4CAC4D900B4FE0F8A3E0F9A3E0FF900C
:103084000B52E0F54EA3E0F54FAD4EAE4F154E7426
:10309400FFB54E02154FED4E6020888289838FF074
:1030A400123B73FEA3A882A9838A828B838CF0EEE1
:1030B4001230C8A3AA82AB8380CF854B82854C8310
:0430C400854DF02224
:100015007902E94400601B7A0190424A789175A003
:100025000BE493F2A308B8000205A0D9F4DAF2753F
:02003500A0FF2A
:1030C80020F71130F6138883A88220F509F6A88323
:0B30D8007583002280FEF280F5F022DC
:10003D007800E84400600A790075A006E4F309D859
:10004D00FC7891E84405600C7906900600E4F0A375
:04005D00D8FCD9FAF8
:02000600E473A1
:1030E300C04A85814A7E008E831205B3D04A22AF3F
:1030F300F0AE83E582900B59F0EEA3F0EFA3F090CE
:103103000B59E0FDA3E0FEA3E0FF900B58E0FC9019
:103113000B6DE4F0A3F0A3F0900B70EDF0EEA3F0D1
:10312300EFA3F0900B73ECF09030E302323AC04A15
:10313300E581F54A24FBFF900B6DE4F0A3F0A3F0C7
:10314300E54A24FBF8900B70E6F008E6A3F008E6E6
:10315300A3F0900B73EFF09030E312323AD04A228F
:10316300E582900B69F0E0FF900B5FE0C0E0A3E025
:10317300C0E0A3E0C0E012317E800D900B5DE0C0A3
:10318300E0A3E0C0E08F8222158115811581900BA9
:1031930067E02401F0A3E03400F022E582900B6A9B
:1031A300F0E02430FF24C6500D74072FFF900B5C12
:1031B300E060034307208F82023163E582900B6B4B
:1031C300F0E0FFC4540FF582C00712319ED00753BD
:1031D300070F8F8202319EE582900B6CF0900B6299
:1031E300E0FCA3E0FDA3E0FEA3E0FF900B66E0FBA1
:1031F300754B20900B6CE0F98B00E828F8EF235413
:103203000148FBEC2CFCED33FDEE33FEEF33FFC343
:10321300EB994007EBC399FB430401E54B14FA8A8E
:103223004B70D5900B62ECF0EDA3F0EEA3F0EFA39F
:10323300F0900B66EBF022AF83E582900B74F0EF16
:10324300A3F0900B74E0FEA3E0FF900B5DEEF0EFB4
:10325300A3F0900B6DE0FDA3E0FEA3E0FF900B5FF6
:10326300EDF0EEA3F0EFA3F0900B67E4F0A3F09082
:103273000B70E0FDA3E0FEA3E0FF8D828E838FF051
:10328300123B73FC900B7074012DF0E43EA3F0EF3E
:10329300A3F0EC7003023B2FBC25028003023B2703
:1032A300900B76E4F0900B77F0900B78F0900B791D
:1032B300F0900B7AF0900B7BF0900B7CF0900B7DF1
:1032C300F0900B7FF0900B80F0A3F0900B8214F042
:1032D300A3F0900B70E0FDA3E0FEA3E0FF8D828ED0
:1032E300838FF0123B73FBA3AD82AE83900B70ED23
:1032F300F0EEA3F0EFA3F0900B86EBF0BB25088B69
:1033030082123163023272BB300050030233D3EBBB
:1033130024C650030233D3900B82E0F540A3E0F5BB
:103323004174FFB54063B54160C005C006C0079056
:103333000B80E0FAA3E0FF900B8FEAF0EFA3F0908D
:10334300000AC005C003123B53AE82AF83D003D043
:10335300058B027D00EA2EFEED3FFFEE24D0FEEF4B
:1033630034FFFF900B80EEF0EFA3F0D007D006D030
:1033730005900B80E0F5F0A3E045F060030232E036
:10338300900B777401F00232E0C005C006C00790CD
:103393000B8FE540F0E541A3F090000AC006C0059D
:1033A300C003123B53AA82AF83D003D005D0067E5D
:1033B30000EB2AFAEE3FFFEA24D0FAEF34FFFF9046
:1033C3000B82EAF0EFA3F0D007D006D0050232E07B
:1033D300900B86E0FBBB2E2FC005C006C007900BE9
:1033E30082E0FAA3E0FFBAFF05BFFF028009D0071E
:1033F300D006D0050232E0D007D006D005900B826C
:10340300E4F0A3F00232E0BB61004014EB248540FA
:103413000F900B8674DF5BF0900B5C7401F08005FA
:10342300900B5CE4F0900B86E0FBBB20028075BB45
:103433002B028067BB2D028059BB4202806FBB43C6
:1034430002807CBB44030236CABB46030236F0BB90
:1034530048030232E0BB49030236CABB4A030232C5
:10346300E0BB4C028050BB4F030236D8BB50030273
:103473003638BB53028077BB54030232E0BB55039B
:103483000236E0BB58030236E8BB5A030232E002BD
:1034930036F8900B767401F00232E0900B787401E9
:1034A300F00232E0900B797401F00232E0900B7B72
:1034B3007401F00232E0900B7C7401F00232E09070
:1034C3000B7BE0600E900B73E014F9F0900B86E732
:1034D300F0800F900B73E024FEFFF08F01900B86BA
:1034E300E7F0900B86E0F582123163023707900B09
:1034F30073E024FDFFF08F0187050987060987071D
:103503001919900B62EDF0EEA3F0EFA3F08D828E0C
:10351300838FF0123B3B858240858341900B82E091
:10352300FAA3E0FDBAFF0DBDFF0A900B82E540F060
:10353300E541A3F0900B76E0704B900B80E0FAA38B
:10354300E0FDC3E5409AE5419D503A900B80EAC304
:103553009540F0ED9541A3F0900B80E0FAA3E0FDD8
:103563008A068D071ABAFF011DEE4F60107582207F
:10357300C005C002123163D002D00580E3900B80F6
:10358300EAF0EDA3F0900B82E0F543A3E0F544905D
:103593000B62E0FAA3E0FDA3E0FF8A828D838FF044
:1035A300123B73F542603CC3E4954374808544F059
:1035B30063F08095F0502C154374FFB54302154416
:1035C300854282123163900B62E0FAA3E0FDA3E02F
:1035D300FF0ABA00010D900B62EAF0EDA3F0EFA32E
:1035E300F080AC900B76E07003023707900B80E01D
:1035F300FEA3E0FFC3E5409EE5419F40030237077A
:10360300900B80EEC39540F0EF9541A3F0900B80B3
:10361300E0FEA3E0FF8E028F051EBEFF011FEA4DF1
:1036230070030236FF758220C007C006123163D0D3
:1036330006D00780E0900B73E024FDFDF08D018739
:10364300450987460987471919900B62E545F0E557
:1036530046A3F0E547A3F0900B64E0FDBD80004076
:1036630008900B867443F08020BD60004008900BE7
:10367300867450F08013BD40004008900B86744957
:10368300F08006900B867458F0900B86E0FDF5826F
:10369300C00512316375823A12316375823012317B
:1036A30063758278123163D005BD4902800EBD5027
:1036B300028009900B63E0F5821231BE900B62E049
:1036C300F5821231BE803D900B7A7401F0900B7F2E
:1036D300740AF0802F900B7F7408F08027900B7F83
:1036E300740AF0801F900B7F7410F08017900B7D8D
:1036F3007401F0800F8B821231638008900B80EE8F
:10370300F0EFA3F0900B7DE06071900B73E024FC6D
:10371300FFF08F01870309870509870609870719C2
:103723001919900B62EBF0EDA3F0EEA3F0EFA3F009
:10373300900B62743FF07442A3F07480A3F0900B7B
:1037430062E0F545A3E0F546A3E0F547740125459E
:10375300FAE43546FBAF47900B62EAF0EBA3F0EFD8
:10376300A3F08545828546838547F0123B73FF703E
:10377300030232728F8212316380C3900B7FE07039
:1037830003023272900B7BE06047900B73E014F9F5
:10379300F087077E007D007B00900B62EFF0EEA3C5
:1037A300F0EDA3F0EBA3F0900B7AE0600302384A4C
:1037B300900B62E0FBA3E0A3E0A3E07D007E007F2B
:1037C30000900B62EBF0EDA3F0EEA3F0EFA3F0801B
:1037D30076900B7CE06028900B73E024FCFFF08F65
:1037E30001870309870509870609870719191990AE
:1037F3000B62EBF0EDA3F0EEA3F0EFA3F0804890A3
:103803000B73E024FEFFF08F01870609870719EF8A
:103813003395E0FDFB900B62EEF0EFA3F0EDA3F028
:10382300EBA3F0900B7AE0701E900B62E0FBA3E039
:10383300FDA3E0A3E07E007F00900B62EBF0EDA31D
:10384300F0EEA3F0EFA3F0900B7AE06041900B62EF
:10385300E0FBA3E0FDA3E0FEA3E0FF30E72B900B2A
:1038630062E0FBA3E0FDA3E0FEA3E0FFC3E49BFB58
:10387300E49DFDE49EFEE49FFF900B62EBF0EDA35D
:10388300F0EEA3F0EFA3F08005900B7AE4F0900B39
:103893007E7401F0900B7FE0F54375488C75490BFE
:1038A300E4F540F541900B66E4F08543821231DA8A
:1038B300900B7EE07026900B66E0C4F54585488248
:1038C300854983E0FFE5454207854882854983EFC3
:1038D300F0154874FFB548021549800C900B66E05B
:1038E300FF854882854983F00540E4B540020541E0
:1038F300900B7EE0B40100E433F0900B62E0FAA396
:10390300E0FBA3E0FEA3E0FFEA4B4E4F7097900B62
:103913008DE548F0E549A3F0900B84E540F0E541DF
:10392300A3F0900B80E0F5F0A3E045F07009900B55
:10393300807401F0E4A3F0900B77E0FFE070479010
:103943000B76E07041854048854149900B80E0FA51
:10395300A3E0FBC007AF480F8F067F00C3EE9AEFCB
:103963009BD0075019758220C007C003C0021231D3
:1039730063D002D003D0071ABAFF011B80D5900B86
:1039830080EAF0EBA3F0900B7AE0602075822DC003
:1039930007123163D007900B80E024FFFDA3E034CE
:1039A300FFFE900B80EDF0EEA3F08056900B84E0C9
:1039B300F5F0A3E045F0604A900B78E06020758253
:1039C3002BC007123163D007900B80E024FFFDA3C7
:1039D300E034FFFE900B80EDF0EEA3F08024900B1B
:1039E30079E0601E758220C007123163D007900B07
:1039F30080E024FFFDA3E034FFFE900B80EDF0EEAA
:103A0300A3F0900B76E07048900B84E0F548A3E0B8
:103A1300F549900B80E0FAA3E0FBC0078A068B0709
:103A23001ABAFF011BC3E5489EE5499FD0075053CF
:103A3300EF60067D307E0080047D207E008D82C095
:103A430007C003C002123163D002D003D00780CA7B
:103A5300900B80E0FEA3E0FF900B84E0F548A3E029
:103A6300F549C3E5489EE5499F500F900B80EEC38F
:103A73009548F0EF9549A3F08011900B80E4F0A3F3
:103A8300F08008900B80EAF0EBA3F0900B8DE0FE42
:103A9300A3E0FF900B84E0F548A3E0F549AA48AD05
:103AA30049154874FFB548021549EA4D6045900B26
:103AB3007EE0B40100E433F0900B7EE070140EBEA0
:103AC30000010F8E828F83E0C4540FFD900B66F0CC
:103AD300800E8E828F83E0FD53050F900B66EDF011
:103AE300900B66E0F582C007C00612319ED006D067
:103AF3000780AA900B76E07003023272900B80E08D
:103B0300FEA3E0FF8E038F051EBEFF011FEB4D706A
:103B130003023272758220C007C006123163D006D9
:103B2300D00780E08C82123163023272900B67E01F
:083B3300FEA3E08E82F583225F
:0B423F003C4E4F20464C4F41543E00C7
:103B3B00AA82AB83123B736003A380F8C3E5829A1E
:103B4B00F582E5839BF58322AA83AB828BF0900BE6
:103B5B008FE0A4F8A9F08AF0E0A429F98BF0A3E098
:083B6B00A429F58388822222BF
:0D00080075814F123B8FE5826003020003FB
:103B730020F71430F6148883A88220F507E6A8837B
:103B830075830022E280F7E49322E022758200220B
:00000001FF
