:03000000020008F3
:0300670002000391
:0300030002009860
:10006A0075820012102C75820112102C12067C90D7
:10007A000B2DE4F0A3F0900B2FF0900B30F0900BC7
:10008A0031F0900B32F0A3F0758208021F061200BD
:10009A00CA9006007401F0E4A3F090E36075F016CC
:1000AA00E41200E212006AE5C120E60985088285A9
:1000BA000983120006121E90121D661211D480E7DF
:060061007508007509F4AA
:1000CA0075A15575A1AA53B3E043B30675B2D875A5
:1000DA00A1FF90000702060BAF82AE83ADF0FC9041
:1000EA000602EFF0EEA3F0EDA3F0ECA3F090060009
:1000FA00E0F5F0A3E045F0600C43C60143C40843B1
:10010A00C50C43CE10C29FD29EC29DD29C4387800B
:10011A00900602E0FCA3E0FDA3E0FEA3E0FF900B43
:10012A0042ECF0EDA3F0EEA3F0EFA3F0908D807512
:10013A00F05BE4121FEBAC82AD830CBC00010DED49
:10014A00C313CC13CC740F55894420F58943C9A035
:10015A00C3E49CFC8C8DD28ED2992210980280FB2B
:10016A0085998222E582900606F0E0F5993099FD9C
:10017A00D29922E582900609F090060A74C4F074B6
:10018A0000A3F07440A3F090060D74BAF07400A3B3
:10019A00F07440A3F090061074BCF07400A3F074DD
:1001AA0040A3F090061374BEF07400A3F07440A349
:1001BA00F090061674C5F07400A3F07440A3F09092
:1001CA00061974BBF07400A3F07440A3F090061CE7
:1001DA0074BDF07400A3F07440A3F090061F74BFBE
:1001EA00F07400A3F07440A3F0900608E0FF24F92D
:1001FA00500122EF2F2F9002047302021902029C6F
:10020A0002032102037C0203FE0204840205089011
:10021A000609E0FFFE8EF005F07401800225E0D5A4
:10022A00F0FBF4ADC65DF5C6EF75F003A4FFAEF0C2
:10023A00240AF582EE3406F583E0FBA3E0FCA3E092
:10024A00FD8B828C838DF012216EFA900607E0F9FD
:10025A0089F005F07401800225E0D5F0FBF4F9522B
:10026A00028B828C838DF0EA122153EF2416F582D9
:10027A00EE3406F583E0FDA3E0FEA3E0FF8D828E57
:10028A00838FF012216E52018D828E838FF0E902E4
:10029A002153900609E0FFFE8EF005F074018002FA
:1002AA0025E0D5F0FBF4ADC65DF5C6EF75F003A405
:1002BA00FFAEF0240AF582EE3406F583E0FBA3E0F4
:1002CA00FCA3E0FD8B828C838DF012216EFA9006DE
:1002DA0007E0F989F005F07401800225E0D5F0FB0A
:1002EA00F9F4F8EA52008B828C838DF0E8122153DC
:1002FA00EF2416F582EE3406F583E0FDA3E0FEA3B3
:10030A00E0FF8D828E838FF012216E42018D828EE4
:10031A00838FF0E9022153900609E0FFFE8EF00573
:10032A00F07401800225E0D5F0FBF4ADC65DF5C698
:10033A00EF75F003A4240AF582740635F0F583E01C
:10034A00FDA3E0FEA3E0FF8D828E838FF012216E63
:10035A00FC900607E0FB8BF005F07401800225E0B3
:10036A00D5F0FBF4FBEC42038D828E838FF0EB0217
:10037A002153900609E0FFFE8EF005F07401800219
:10038A0025E0D5F0FBADC64DF5C6EF75F003A4FF29
:10039A00AEF0240AF582EE3406F583E0FBA3E0FC16
:1003AA00A3E0FD8B828C838DF012216EFA900607F2
:1003BA00E0F989F005F07401800225E0D5F0FBF43C
:1003CA00F952028B828C838DF0EA122153EF2416A4
:1003DA00F582EE3406F583E0FDA3E0FEA3E0FF8D8F
:1003EA00828E838FF012216E52018D828E838FF05E
:1003FA00E9022153900609E0FFFE8EF005F0740130
:10040A00800225E0D5F0FBADC64DF5C6EF75F003C9
:10041A00A4FFAEF0240AF582EE3406F583E0FBA3CE
:10042A00E0FCA3E0FD8B828C838DF012216EFA90A2
:10043A000607E0F989F005F07401800225E0D5F09D
:10044A00FBF942028B828C838DF0EA122153EF244E
:10045A0016F582EE3406F583E0FDA3E0FEA3E0FF85
:10046A008D828E838FF012216EFCE9F4F9EC520131
:10047A008D828E838FF0E9022153900609E0FFFEF8
:10048A008EF005F07401800225E0D5F0FBADC64D73
:10049A00F5C6EF75F003A4FFAEF0240AF582EE3438
:1004AA0006F583E0FBA3E0FCA3E0FD8B828C838D41
:1004BA00F012216EFA900607E0F989F005F074014E
:1004CA00800225E0D5F0FBF9F4F8EA52008B828C21
:1004DA00838DF0E8122153EF2416F582EE3406F5E7
:1004EA0083E0FDA3E0FEA3E0FF8D828E838FF012EE
:1004FA00216E42018D828E838FF0E902215390068C
:10050A0009E0FFFE8EF005F07401800225E0D5F0C7
:10051A00FBADC64DF5C6EF75F003A4FFAEF0240A95
:10052A00F582EE3406F583E0FBA3E0FCA3E0FD8B45
:10053A00828C838DF012216EFA900607E0F989F019
:10054A0005F07401800225E0D5F0FBF942028B82A6
:10055A008C838DF0EA122153EF2416F582EE3406CD
:10056A00F583E0FDA3E0FEA3E0FF8D828E838FF08A
:10057A0012216E42018D828E838FF0E9022153AFE0
:10058A0083E582900622F0EFA3F010990280FB9097
:10059A000622E0FEA3E0FF8E998E828F83221098B6
:1005AA000280FBAE997F008E828F8322AF83E58221
:1005BA00900624F0EFA3F0900624E0FEA3E0FFEEFD
:1005CA004F603505A105A105A105A105A105A10554
:1005DA00A105A105A105A105A105A105A105A105E1
:1005EA00A105A105A105A105A11EBEFF011F900637
:1005FA0024EEF0EFA3F080C7900624EEF0EFA3F00C
:10060A0022AF83E582900626F0EFA3F0900626E05B
:10061A00FEA3E0FFEE4F601D9003E8C007C006127C
:10062A0005B6D006D0071EBEFF011F900626EEF0C3
:10063A00EFA3F080DF900626EEF0EFA3F022E5822A
:10064A0090082FF0E0FF75F003A4FDAEF02429F521
:10065A0082EE3408F583E4F0ED2429FDEE3408FE39
:10066A008D828E83A3E4F0EF600475E5002275E4C1
:10067A000022C2EA75E28075E3009024477448F0CC
:10068A0090244CE4F0A3F090244E04F0E4A3F0F597
:10069A00D4F5D675E28975D24075D8FF75820012F5
:1006AA00064875820112064875E10322E582900820
:1006BA0030F0E5E35480FFE0547F4FF5E322E58212
:1006CA00900831F0E0600753E2BF53D27F2243E241
:1006DA004022E582900832F09006287408F075826C
:1006EA00001206B67582011206C8900832E0FFE0D1
:1006FA00701374FB55E44402F5E490000F12060BE4
:10070A0053E4FD8014BF011174FB55E54402F5E57D
:10071A0090000F12060B53E5FD9000FA1205B6C2BF
:10072A00D822E582900833F0E075F003A42429FE6C
:10073A00740835F0FF8E828F83E0FDBD01005007FB
:10074A008E828F837401F0900833E0FF7049E5DBF5
:10075A0020E3030207EAE5E420E035E5DB30E21AAC
:10076A00EF75F003A42429FD740835F0FE8D828EFE
:10077A0083A3A3E4F043E4048016EF75F003A424F2
:10078A0029FD740835F0FE8D828E83A3A37401F0CF
:10079A0043E40175820022BF0146E5DB30E741E50B
:1007AA00E520E035E5DB30E61AEF75F003A42429ED
:1007BA00FD740835F0FE8D828E83A3A3E4F043E531
:1007CA00048016EF75F003A42429FE740835F0FF9F
:1007DA008E828F83A3A37401F043E5017582002200
:1007EA0075821622E582900835F0E075F003A4249C
:1007FA0029FE740835F0FF8E828F83A3E0F582C04C
:10080A0007C0061206B6D006D0078E828F83A3A32E
:10081A00E0F5820206C8E582900839F0900836E0D1
:10082A00FF8FD48FD690083AE4F0A3F0900839E00D
:10083A00FEC4540FFDBD0103ED8001E4F50DE4BDD6
:10084A00090104F50E900837E0F9A3E0FA8ED5C243
:10085A00D9750AC8750B00E50A450B602820D92509
:10086A00900001C007C006C005C002C0011205B64B
:10087A00D001D002D005D006D007150A74FFB50AF8
:10088A0002150B80D275D50020D9047582FE22206C
:10089A00D90302099830DE0475820022E5D9540F83
:1008AA00F50C740EB50C0474018001E4F50A6007B6
:1008BA007420450CF58222740AB50C047401800177
:1008CA00E4F86033E94A700A7420450CF50D850D89
:1008DA008222C3E994FFEA94FF500519B9FF011A6D
:1008EA0090083AE024FFFBA3E034FFFC90083AEBBF
:1008FA00F0ECA3F002099BE50D700CE50E7034BD17
:10090A000D02800302099430DE047582002274020B
:10091A00B50C0475820022E50A7003E860077420AA
:10092A00450CF58222E50C700302099B7420450CE4
:10093A00F5822230DE0475820022EF6011740BB555
:10094A000C0474018001E424FFE433FC8010740376
:10095A00B50C0474018001E4FB24FFE433FCEC6071
:10096A000475820022E50A7003E860077420450CCA
:10097A00F582227403B50C07740BB50C028012E5DC
:10098A000C600E7420450CF582227582FE2275D801
:10099A00FF90000FC007C006C005C002C0011205C3
:1009AA00B6D001D002D005D006D00790083AE0248C
:1009BA0001F0A3E03400F090083AE0FBA3E0FCC3A6
:1009CA00EB94C8EC9400500302085775822022AFBA
:1009DA0083E582900841F0EFA3F0900841E0FEA37E
:1009EA00E0FF900845EEF0EFA3F090083CE0FBA38F
:1009FA00E0FCA3E0FD9000C8C007C006C005C00423
:100A0A00C0031205B6D003D004D005D006D007EB38
:100A1A004C600E8B828C838DF0E4122153A3122139
:100A2A005375D708900836E4F09008377410F074BC
:100A3A0027A3F07582D0C007C006C005C004C00352
:100A4A00120820AA82D003D004D005D006D007EA23
:100A5A0060038A8222C006C00775D6D075D4D075C5
:100A6A00D701900107E0FA7900900106E0F87F00CB
:100A7A004201EF4202900843E9F0EAA3F0D007D01E
:100A8A0006E94A7003020CB8EE4F7003020CB890E4
:100A9A000100E0FF20E703020B93900843E0FEA366
:100AAA00E0FF4E7003020B8D90012CC007C006C0F8
:100ABA0005C004C0031205B6900836E5D4F09008C4
:100ACA00377410F07427A3F0758290120820AA8256
:100ADA00D003D004D005D006D007EA60038A822268
:100AEA00A9D17A00C3E99EEA9F5006A9D17A00806B
:100AFA00048E018F0289067F00900843E0F8A3E084
:100B0A00FA900843E8C39EF0EA9FA3F0EB4C6024F6
:100B1A008B828C838DF012216EF8A312216EFAEE6D
:100B2A0028FEEF3AFF8B828C838DF0EE122153A3BD
:100B3A00EF122153900845E0FEA3E0FF7A00C3EAD2
:100B4A0099501CC001EA2EF50FE43FF5108A827510
:100B5A008300E0850F82851083F00AD00180DF9040
:100B6A000845E0FEA3E0FF900845E92EF0E43FA324
:100B7A00F0E5D1600E900628E0FFC3E5D19F40035F
:100B8A00020AA475D700020CB8900843E0FEA3E05D
:100B9A00FF4E7003020CB89000C8C007C006C0051B
:100BAA00C004C0031205B6D003D004D005D006D0C5
:100BBA0007900628E0F97A00C3EE99EF9A50048E5E
:100BCA00018F0289D7900845E0FEA3E0FF900B4F02
:100BDA00EEF0EFA3F0E4A3F0900B52E5D7F0E4A314
:100BEA00F090010075F000C007C006C005C004C03F
:100BFA00031220DFD003D004D005D006D007E5D7F2
:100C0A002EFEE43FFF900845EEF0EFA3F08E828FB0
:100C1A0083A3E0FABA0924900B58E0F97A00740128
:100C2A00697003EA600679017A00800479007A0023
:100C3A00900B58E9F08E828F83E9F0900836E5D65A
:100C4A00F09008377410F07427A3F0758210C0056D
:100C5A00C004C003120820AF82D003D004D005EF2D
:100C6A0060038F8222AED77F00900843E0F9A3E0A9
:100C7A00FA900843E9C39EF0EA9FA3F0EB4C700395
:100C8A00020B938B828C838DF012216EFEA31221AC
:100C9A006EFFA9D77A00E92EFEEA3FFF8B828C838A
:100CAA008DF0EE122153A3EF122153020B93900001
:100CBA00C81205B6E5D760047F9080027F109008BD
:100CCA003674C0F09008377410F07427A3F08F823E
:100CDA00120820E582FF60038F8222E5D77003F5B0
:100CEA008222E5D17003F5822275821722AF83E54D
:100CFA0082900848F0EFA3F0900848E0FEA3E0FFD6
:100D0A00900847E0FD7C00C3EC9D50178C027B01E4
:100D1A00EC2EF582E43FF583E493F98A828B83F023
:100D2A000C80E4229006287408F0900847F090217D
:100D3A008E120CF790083C744AF07408A3F0E4A3EE
:100D4A00F090083FF07402A3F09006291209D9E541
:100D5A0082FF60038F8222900630E0900628F0908E
:100D6A002194E493FF90084AE0FDA3E0FE7C00C3CF
:100D7A00ED9FEE9C50047582172275820022E5824F
:100D8A0090084CF09008477408F09021A6120CF7CE
:100D9A0090084CE0FF900102F090083CE4F0A3F0C8
:100DAA00A3F090083FF0A3F0900000C0071209D901
:100DBA00AE82D007EE60038E82228F821206B69030
:100DCA00006412060B75820022E58290084DF090AD
:100DDA0008477408F09021B6120CF790084DE0907D
:100DEA000102F090083CE4F0A3F0A3F090083FF071
:100DFA00A3F09000000209D99008477408F09021E6
:100E0A00AE120CF790083CE4F0A3F0A3F090083F70
:100E1A00F07402A3F09006290209D9AF83E5829003
:100E2A000853F0EFA3F0900853E0FEA3E0FF8E8290
:100E3A008F83E07C0024FEFDEC34FFA2E713CD1380
:100E4A00CD8E828F83A3E0FCBC03028004758200EE
:100E5A0022900850E0FBA3E0FCEB24FFF513EC34EE
:100E6A00FFF51490084EE0F515A3E0F51685151167
:100E7A008516127800C3E89D5063C00588047D007A
:100E8A00C3EC9513ED9514D0055052C00588037C28
:100E9A0000EB2BFBEC33FC74032BFAE43CFDEA2E4B
:100EAA00FAED3FFD8A828D83E0D005600FE82511B7
:100EBA00F582E43512F583743FF0801EE82515F9B2
:100ECA00E43516FA74022BFBE43CFCEB2EF582ECBB
:100EDA003FF583E0FC89828A83F0088098E825152B
:100EEA00F582E43516F583E4F07F00900852E0FEBF
:100EFA000E900B2DEDF0EFA3F0900B2FEEF0900B70
:100F0A00307434F0900B317456F0900B32E515F0D2
:100F1A00E516A3F0758205121F0675820122AF83BA
:100F2A00E582900855F0EFA3F0900855E0FEA3E0A3
:100F3A00FF7C007D008E828F83E0FB7A00C3EC9BEE
:100F4A00ED64808AF063F08095F050070CBC00E5F0
:100F5A000D80E2229008477408F0902196120CF74F
:100F6A0090083C7457F07408A3F0E4A3F090083F8B
:100F7A00F07402A3F09006291209D9E582FF6003F2
:100F8A008F822290219CE493FF900857E0FDA3E012
:100F9A00FE7C00C3ED9FEE9C5004758217229006DA
:100FAA002BE0FF7E0090062CE0FCE42FFFEC3EFED7
:100FBA009008477408F0902196C007C006120CF7F3
:100FCA00D006D0078F048E05900106ECF08E0790AC
:100FDA000107EFF090083C7457F07408A3F0E4A3FB
:100FEA00F090083FF07402A3F09006291209D9E59F
:100FFA0082FF60038F82227582002290084774085C
:10100A00F090219E120CF790083C7459F07408A3D2
:10101A00F0E4A3F090083FF07402A3F090062902CE
:10102A0009D9E5829008C3F0E0FF75F010A4FDAE7F
:10103A00F024A3F582EE3408F583E4F0A3F0A3F0DC
:10104A00A3F0ED24A3FDEE3408FE8D828E83A3A3C4
:10105A00A3A3E4F0A3F0A3F0A3F074082DF582E4AF
:10106A003EF583E4F0A3F0A3F0A3F0740C2DF5820F
:10107A00E43EF583E4F0A3F0A3F0A3F07E00EE755E
:10108A00F009A4245BFC740835F0FD74012CFAE421
:10109A003DFB8A828B83E0B507348C828D83E4F032
:1010AA008A828B83F08C828D83A3A3F08C828D83BA
:1010BA00A3A3A3F08C828D83A3A3A3A3F0A3F0A37D
:1010CA00F0A3F074082CF582E43DF583E4F00EBE3B
:1010DA00080040AA227F00EF75F009A4FDAEF024B3
:1010EA005BFBEE3408FC8B828C83E06033ED245B7F
:1010FA00FDEE3408FE8D828E83A3A3A3A3E0FBA397
:10110A00E0FCA3E0FDA3E0FEBB0615BC0012BD0097
:10111A000FBE000C90004BC007120589D007802A29
:10112A00EF75F009A4245BFD740835F0FE8D828EFC
:10113A0083E0600C90003FC007120589D007800A3F
:10114A00900045C007120589D0070FBF08004087E5
:10115A0022E5829008C4F0E0FF7E00EE75F009A453
:10116A00FCADF0245BFAED3408FB8A828B83E060E5
:10117A0052EC245BFCED3408FD8C828D83A3A3A37F
:10118A00A3E0F8A3E0F9A3E0FAA3E0FBB80634B9B8
:10119A000031BA002EBB002B8C828D83A3E0FD9018
:1011AA000834E4F08D82C007C0061207EED006D0DC
:1011BA00079008D6EFF08E82C007C00612169FD09D
:1011CA0006D0070EBE08004092227F00EF75F00994
:1011DA00A4FDAEF0245BFBEE3408FC8B828C83E02A
:1011EA007003021366ED245BFDEE3408FE8D828ED9
:1011FA0083A3A3A3A3E0F9A3E0FAA3E0FBA3E0FC83
:10120A00B9060BBA0008BB0005BC00028003021332
:10121A00668D828E83A3E0FC900834E4F08C82C051
:10122A0007C006C0051207EED005D006D0078D828A
:10123A008E83A3A3A3E0FE747F5E4490FDEE30E7A5
:10124A00067CC07E0080047C007E00900836ECF0AC
:10125A00900837E4F0A3F08D82C007120820E582D7
:10126A00D007600302133EEF75F009A4245BFD74F6
:10127A000835F0FE74032DFBE43EFC8B828C83E080
:10128A00F96301808B828C83E9F09008C5E5D1F07F
:10129A00E0FAE0700302133EB2968A017A008D8268
:1012AA008E83A3A3A3A3E0F88B828C83E0FB530372
:1012BA007F8D828E83A3E075F010A4FEADF024A387
:1012CA00F582ED3408F583E0F517EE24A3FEED343C
:1012DA0008FD8E828D83A3A3A3A3E0F51874082EBC
:1012EA00F582E43DF583E0FC740C2EF582E43DF5CD
:1012FA0083E0FE900B34E9F0EAA3F0900B36E8F0B5
:10130A00900B37EFF0900B38EBF0900B397400F03C
:10131A007400A3F0900B3BE517F0900B3CE518F036
:10132A00900B3DECF0900B3EEEF0758204C0071274
:10133A001F07D007EF75F009A4245BFD740835F088
:10134A00FE74082DF582E43EF583E0FE9008C6E0BF
:10135A00FDC39E40028D069008C6EEF00FBF08003E
:10136A0050030211D69008C6E0FF7E008F828E835A
:10137A0002060BAF83E5829008CAF0EFA3F090084B
:10138A00CCE4F0A3F09008CEF09008CFF09008CA11
:10139A00E0F52DA3E0F52EAC2DAD2E9008C9E07531
:1013AA00F009A4245BFA740835F0FB9008C7E0F54D
:1013BA002BA3E0F52C9008CCE0F527A3E0F528C391
:1013CA00E527952BE528952C400122C002C003E5AC
:1013DA0027252DF582E528352EF583E0FB9008D0E8
:1013EA0074FC5BF074035BF5279008D1F09008D287
:1013FA00E4F0A3F0A3F0A3F07403B527028006D0AB
:10140A0003D002800BD003D0029008D1E52704F064
:10141A00C002C0039008CCE0FAA3E0FB74012AF5ED
:10142A0027E43BF5289008D1E0F529752A00D00376
:10143A00D002C3E52A95295054C002C003AA2A7BC8
:10144A0000EA2527FAEB3528FBEA2CF582EB3DF575
:10145A0083E0F8E4F9FAFBE52AC40354F8FF8FF0B5
:10146A0005F0800CE828F8E933F9EA33FAEB33FBA4
:10147A00D5F0F19008D2E048F0A3E049F0A3E04AA1
:10148A00F0A3E04BF0052AD003D00280A59008CE45
:10149A00E0FF9008D0E0FEE4BEC00104F52A79001E
:1014AA008F27752800E52A6008752F01753000809E
:1014BA0005E4F52FF530C002C003E527C3952FF8E0
:1014CA00E5289530FB89027E00C3EA98EE64808B9A
:1014DA00F063F08095F0D003D00250030980C190E8
:1014EA0008D0E0FFBF04028063BF080302159ABF59
:1014FA00140302167EBF180302167EBF24030216C7
:10150A007EBF280302167EBF340302167EBF440341
:10151A0002167EBF640302167EBF740302167EBFE4
:10152A00800302167EBF840302167EBF9003021652
:10153A007EBF940302167EBFA00302166FBFB003DC
:10154A0002167EBFC00302167802167E9008D2E009
:10155A00F8A3E0F9A3E0FEA3E0FFC3E994FFEE9449
:10156A0000EF94004008780079FF7E007F00B80100
:10157A000CB90009BE0006BF000302167EB8070CAC
:10158A00B90009BE0006BF0003D38001C302167E5C
:10159A009008CFE07032C004C00574042AFEE43B10
:1015AA00FF9008D2E0F8A3E0F9A3E0FCA3E0FD8EE7
:1015BA00828F83E8F0E9A3F0ECA3F0EDA3F09008A2
:1015CA00CF7401F0D005D0049008D2E0F8A3E0F976
:1015DA00A3E0FEA3E0FFC3743898E499E49EE49F75
:1015EA00500302167EE8240A83F582E8243D83F537
:1015FA0083E4737E7E7E7E7E7E7E7E7E7E7E7E7EA1
:10160A007E7E7E7E7E7E7E7E7E7E7E7E7E7E7E7EF0
:10161A007E7E7E7E7E7E7E7E7E7E7E7E7E7E7E7EE0
:10162A007E7E7E7E7E7E7E7E7E7E7E7E1616161670
:10163A001616161616161616161616161616161640
:10164A001616161616161616161616161616161630
:10165A001616161616161616161616161616161620
:10166A0016161616169008CEE02401F08006900889
:10167A00CEE014F09008D1E0FF7E000FBF00010E0B
:10168A009008CCE0F8A3E0F99008CCEF28F0EE3906
:10169A00A3F00213BFE5829008D7F09008477408B8
:1016AA00F09021C6120CF79008D7E075F009A4242F
:1016BA005BFE740835F0FF8E828F83A3A3E090014E
:1016CA0004F09001067401F09008D6E0900629F023
:1016DA0090083C74D8F07408A3F0E4A3F090083F93
:1016EA00F0A3F09006290209D99008477408F090EF
:1016FA0021D6120CF79008DAE0900102F090083C2B
:10170A0074DBF07408A3F0E4A3F090083FF0A3F0B0
:10171A009006290209D9E5829008DDF090084774FD
:10172A0008F09021BE120CF79008DDE075F009A4CC
:10173A00245BFE740835F0FF74022EFEE43FFF8E30
:10174A00828F83E0900104F090083C74DEF0740804
:10175A00A3F0E4A3F090083FF0A3F0900629C00795
:10176A00C0061209D99008477408F09021CE120CCD
:10177A00F7D006D0078E828F83E0900104F09001A3
:10178A0006E4F09001077402F090083C74DEF074ED
:10179A0008A3F0E4A3F090083FF07402A3F09006C7
:1017AA00291209D9E582FF60038F82227E007F0019
:1017BA009008DEE0FCA3E0FDC3EE9CEF9D50070E0F
:1017CA00BE00ED0F80EA9008DDE0FF75F009A42461
:1017DA005BFB740835F0FE8B828E83A3A3E0FA8B41
:1017EA00828E83A3E0FE900B2DECF0EDA3F0900B1C
:1017FA002FEFF0900B30EAF0900B31EEF0900B32B5
:10180A007429F07406A3F0758207C007121F06D068
:10181A00079008DEE0FDA3E0FE9008C7EDF0EEA316
:10182A00F09008C9EFF090062912137D7582002204
:10183A00222222E5829008E4F09008E5E4F090087C
:10184A00E4E0FFFE75F003A4F51985F01A8F1E7502
:10185A001D00900064C007C00612060B90006412B7
:10186A00060B851E8212102C851E821206DCD006FB
:10187A00D0077900900001C007C006C00112060B0C
:10188A00D001D006D0078F82C007C006C001120758
:10189A002CE582D001D006D007600609B964004061
:1018AA00D3B964108F82C007C006120648D006D08A
:1018BA0007021D549008E4E0F9900834E4F08982A4
:1018CA00C007C006C0011207EE120D2EA882D00171
:1018DA00D006D0079008E5E8F0E86003021D0BC0C7
:1018EA0006E975F010A4F8AEF024A3F51BEE34084F
:1018FA00F51C900631E0FA7B007C007D00851B8296
:10190A00851C83EAF0EBA3F0ECA3F0EDA3F0E82446
:10191A00A3F8EE3408FE740428F51BE43EF51C9087
:10192A000632E0FA7B007C007D00851B82851C83E1
:10193A00EAF0EBA3F0ECA3F0EDA3F0740828F51B92
:10194A00E43EF51C900633E0FA7B007C007D0085BE
:10195A001B82851C83EAF0EBA3F0ECA3F0EDA3F065
:10196A00740C28F8E43EFE900634E0FD7C007B000F
:10197A007A0088828E83EDF0ECA3F0EBA3F0EAA361
:10198A00F0900629C007C006C001120F28D001D066
:10199A00069021A8E49329F51B851B82C001120D2C
:1019AA0088AE82D001D0079008E5EEF0EED006604E
:1019BA0003021D0BE975F003A42429FC740835F011
:1019CA00FD8C828D83A3E51BF0C007C006C00112FF
:1019DA000E02900629120F28D00190084E7429F0A1
:1019EA007406A3F0900850E4F07402A3F090085231
:1019FA00E9F0900629C001120E25120F5EAD82D0C1
:101A0A0001D006D0079008E5EDF0ED6003021D0B4A
:101A1A0090062BE0FD7C0090062CE0FA7B00900BF0
:101A2A002DEB2DF0EA3CA3F009900B2FE51BF0906B
:101A3A000B30E9F0900B3174AAF0900B327429F054
:101A4A007406A3F0758206121F06900AE8E4F0A352
:101A5A00F07C007D0090062BE0FB7A0090062CE0DB
:101A6A00F9E42BFBE93AFAC3EC9BED9A50070CBC5C
:101A7A0000E30D80E090062EE0F582120DD3900669
:101A8A002BE0FD7C0090062CE0FAE42DFDEA3CFCFC
:101A9A008D028C0378007900C3E89AE99B502BC029
:101AAA0005C004E824E8F51BE93408F51CE82429F4
:101ABA00F582E93406F583E0851B82851C83F008EC
:101ACA00B8000109D004D00580CE900629E0FB9029
:101ADA0008E6F0E4A3F09008E4E0F522AA228D1FBC
:101AEA008C209008E6E0F8A3E0F9C3E8951FE99591
:101AFA00204003021D07E824E8F8E93408F9900AAF
:101B0A00EAE8F0E9A3F088828983A3E0F51B74046C
:101B1A00B51B0280227405B51B02803B7421B51BDC
:101B2A0003021C8C7424B51B03021CBD7425B51B4F
:101B3A0003021CCA021CD788048905900AE8ECF043
:101B4A00EDA3F09008E0ECF0EDA3F08A82C0021257
:101B5A00183AD002021CE2C00288828983C002C0FD
:101B6A0001C000120F28D000D001D002900AE8E08C
:101B7A00FAA3E0FD8A828D83A3A3A3A3A3E0FDBDFC
:101B8A0003028005D002021CE2880489058C238D99
:101B9A002474022523F51BE43524F51C851B828554
:101BAA001C83E0D00220E703021CE2752100C00278
:101BBA00E52175F009A4245BFA740835F0FB8A82E2
:101BCA008B83E0D0026008052174F8252150DFC01C
:101BDA0002E52175F009A4245BFA740835F0FB7458
:101BEA00032AF525E43BF526851B82851C83E085BF
:101BFA002582852683F08A828B837401F0042AF574
:101C0A0025E43BF526900AE8E0FCA3E0FD8C828DF2
:101C1A0083A3A3E0852582852683F08A828B83A30A
:101C2A00E522F074082AF525E43BF526852382850A
:101C3A002483A3A3A3A3A3A3E0852582852683F0F7
:101C4A00852182C003C002121720D002D0038A82E3
:101C5A008B83A3A3A3A3E0FAA3E0FBA3E0FCA3E086
:101C6A00FDBA060BBB0008BC0005BD00028004D00B
:101C7A000280659008DAE4F08521821216F3D00218
:101C8A008056900AE8E0FCA3E0FD900AE8E0F5F04F
:101C9A00A3E045F06042C002880289039008E2EAA4
:101CAA00F0EBA3F08C828D83C00212183BD002D0D5
:101CBA0002802588828983C002120F28D0028018E8
:101CCA0088828983C002120F28D002800B888289F9
:101CDA0083C002120F28D002900AEAE0FCA3E0FDBA
:101CEA008C828D83E0FC7D009008E6E0F9A3E0FB9E
:101CFA009008E6EC29F0ED3BA3F0021AEC7582009D
:101D0A00228E050D9008E5E0FC900B2DE4F0A3F07F
:101D1A00900B2FEDF0900B30ECF0900B3174EEF04D
:101D2A00900B32E4F0A3F0758203C007C006121FBD
:101D3A0006E5192429F582E51A3408F5837402F0B8
:101D4A007582011206C8D006D007051D74F6251D36
:101D5A00400302185C9008E5E0F58222900AECE460
:101D6A00F010D803021E89E5DB30E349900829E028
:101D7A006008E5E430E003021DFC758200120648A3
:101D8A009008297401F0900B2DE4F0A3F0900B2F2A
:101D9A0004F0900B30F0900B31F0900B32E4F0A38A
:101DAA00F0758201121F0675820012183DE58290B5
:101DBA000AECF0803D900829E0FFBF01004033752E
:101DCA00820012102C758200120648900B2DE4F046
:101DDA00A3F0900B2F04F0900B30F0900B31F090A1
:101DEA000B32E4F0A3F0758202121F06900AEC741B
:101DFA0016F0E5DB30E74A90082CE06008E5E530AC
:101E0A00E003021E8975820112064890082C7401AB
:101E1A00F0900B2DE4F0A3F0900B2F7402F0900BCE
:101E2A0030F0900B31F0900B32E4F0A3F0758201A0
:101E3A00121F0675820112183DE582900AECF080A5
:101E4A003E90082CE0FFBF01004034758201121059
:101E5A002C758201120648900B2DE4F0A3F0900B2A
:101E6A002F7402F0900B30F0900B31F0900B32E4AB
:101E7A00F0A3F0758202121F06900AEC7416F09015
:061E8A000AECE0F58222E3
:10218E00800600010000120080060002000012000E
:10219E008106000400000900000502000000000096
:1021AE00800602030904020400090000000000007A
:1021BE00210A0000000000002109000200000000BA
:1021CE00810600220000FF00210B0000000000002D
:0121DE000000
:101E900010980122900B59E024EDF582E4340AF504
:101EA00083E599F0900B59E0FF24EDF582E4340AC4
:101EB000F583E0FEBE0A028005BF4000403F900A65
:101EC000EDE0FEBEC90F9000551205891210DF909B
:101ED000000A120589900AEDE0FEBED20312006AE4
:101EE000900AEDE0FEBECC0D900AEEE0FE53061F18
:101EF0008E8212115B900B59E4F0021E90900B59E8
:101F0000EF04F0021E9022E582900B3FF0900B4010
:101F100074FEF0E4A3F0900B3FE0FFBF04028001E9
:101F200022900B36E0FFBF06028001229000FE12D5
:101F30000589900B39E0FEA3E0FF900B34E0FCA391
:101F4000E0FD7A007B00C3EA9CEB9D502DC004C0ED
:101F500005EA2EF582EB3FF583E0F87900900B401F
:101F6000E0FCA3E0FD900B40E82CF0E93DA3F00A73
:101F7000BA00010BD005D00480CC900B40E0FAA34E
:101F8000E0FB900B40740A2AF0E43BA3F08E028F32
:101F9000030EBE00010F900B40E0F8A3E07900C3F0
:101FA000E498F88E828F83F07E007F00C3EE9CEF72
:101FB0009D5032EE2AF582EF3BF583E0F8790088F8
:101FC000828983C007C006C005C004C003C00212D6
:101FD0000589D002D003D004D005D006D0070EBEAC
:0B1FE00000CA0F80C790000A020589AC
:0121DF0000FF
:101FEB00AF82AE83ADF0FC900B46EFF0EEA3F0EDBD
:101FFB00A3F0ECA3F0900B4AE4F0A3F0A3F0A3F052
:10200B00900B42E0FCA3E0FDA3E0FEA3E0FF7B20EE
:10201B00C003900B46E0F8A3E0F9A3E0FAA3E0FBC2
:10202B00900B4E235401F0E828F8E933F9EA33FA20
:10203B00EB33FB900B46E8F0E9A3F0EAA3F0EBA33C
:10204B00F0900B4AE0F8A3E0F9A3E0FAA3E0FBE879
:10205B0028F8E933F9EA33FAEB33FB900B4AE8F053
:10206B00E9A3F0EAA3F0EBA3F0D003900B4EE060F2
:10207B0008900B4AE043E001F0900B4AE0F527A3F0
:10208B00E0F528A3E0F529A3E0F52AC3E5279CE5B5
:10209B00289DE5299EE52A9F401F900B4AE527C303
:1020AB009CF0E5289DA3F0E5299EA3F0E52A9FA3CC
:1020BB00F0900B46E043E001F01BEB600302201BAA
:1020CB00900B46E0FCA3E0FDA3E0FEA3E08C828D29
:0420DB00838EF022DE
:06003700E478FFF6D8FD9D
:1020DF00AFF0AE83E582900B54F0EEA3F0EFA3F0D8
:1020EF00900B54E0F527A3E0F528A3E0F529AA27E4
:1020FF00AB28AC29900B4FE0F8A3E0F9A3E0FF90D9
:10210F000B52E0F52AA3E0F52BAD2AAE2B152A745E
:10211F00FFB52A02152BED4E6020888289838FF040
:10212F0012216EFEA3A882A9838A828B838CF0EE84
:10213F00122153A3AA82AB8380CF85278285288360
:04214F008529F022CC
:100015007902E94400601B7A019021DE785875A0C9
:100025000BE493F2A308B8000205A0D9F4DAF2753F
:02003500A0FF2A
:1021530020F71130F6138883A88220F509F6A883A7
:0B2163007583002280FEF280F5F02260
:10003D007800E84400600A790075A006E4F309D859
:10004D00FC7858E84405600C7906900600E4F0A3AE
:04005D00D8FCD9FAF8
:0F000600E47375813012218AE5826003020003E2
:10216E0020F71430F6148883A88220F507E6A8839A
:10217E0075830022E280F7E49322E022758200222A
:00000001FF
