:03000000020008F3
:0300670002000391
:0300030002009860
:10006A0075820012102C75820112102C12067C90D7
:10007A000B21E4F0A3F0900B23F0900B24F0900BEB
:10008A0025F0900B26F0A3F0758208021E4212009A
:10009A00CA9006007401F0E4A3F090E36075F016CC
:1000AA00E41200E212006AE5C120E60985088285A9
:1000BA000983120006121DCC121CA21211C980E774
:060061007508007509F4AA
:1000CA0075A15575A1AA53B3E043B30675B2D875A5
:1000DA00A1FF90000702060BAF82AE83ADF0FC9041
:1000EA000602EFF0EEA3F0EDA3F0ECA3F090060009
:1000FA00E0F5F0A3E045F0600C43C60143C40843B1
:10010A00C50C43CE10C29FD29EC29DD29C4387800B
:10011A00900602E0FCA3E0FDA3E0FEA3E0FF900B43
:10012A0036ECF0EDA3F0EEA3F0EFA3F0908D80751E
:10013A00F05BE4121F27AC82AD830CBC00010DED0D
:10014A00C313CC13CC740F55894420F58943C9A035
:10015A00C3E49CFC8C8DD28ED2992210980280FB2B
:10016A0085998222E582900606F0E0F5993099FD9C
:10017A00D29922E582900609F090060A74C4F074B6
:10018A0000A3F07440A3F090060D74BAF07400A3B3
:10019A00F07440A3F090061074BCF07400A3F074DD
:1001AA0040A3F090061374BEF07400A3F07440A349
:1001BA00F090061674C5F07400A3F07440A3F09092
:1001CA00061974BBF07400A3F07440A3F090061CE7
:1001DA0074BDF07400A3F07440A3F090061F74BFBE
:1001EA00F07400A3F07440A3F0900608E0FF24F92D
:1001FA00500122EF2F2F9002047302021902029C6F
:10020A0002032102037C0203FE0204840205089011
:10021A000609E0FFFE8EF005F07401800225E0D5A4
:10022A00F0FBF4ADC65DF5C6EF75F003A4FFAEF0C2
:10023A00240AF582EE3406F583E0FBA3E0FCA3E092
:10024A00FD8B828C838DF01220AAFA900607E0F9C2
:10025A0089F005F07401800225E0D5F0FBF4F9522B
:10026A00028B828C838DF0EA12208FEF2416F5829E
:10027A00EE3406F583E0FDA3E0FEA3E0FF8D828E57
:10028A00838FF01220AA52018D828E838FF0E902A9
:10029A00208F900609E0FFFE8EF005F074018002BF
:1002AA0025E0D5F0FBF4ADC65DF5C6EF75F003A405
:1002BA00FFAEF0240AF582EE3406F583E0FBA3E0F4
:1002CA00FCA3E0FD8B828C838DF01220AAFA9006A3
:1002DA0007E0F989F005F07401800225E0D5F0FB0A
:1002EA00F9F4F8EA52008B828C838DF0E812208FA1
:1002FA00EF2416F582EE3406F583E0FDA3E0FEA3B3
:10030A00E0FF8D828E838FF01220AA42018D828EA9
:10031A00838FF0E902208F900609E0FFFE8EF00538
:10032A00F07401800225E0D5F0FBF4ADC65DF5C698
:10033A00EF75F003A4240AF582740635F0F583E01C
:10034A00FDA3E0FEA3E0FF8D828E838FF01220AA28
:10035A00FC900607E0FB8BF005F07401800225E0B3
:10036A00D5F0FBF4FBEC42038D828E838FF0EB0217
:10037A00208F900609E0FFFE8EF005F074018002DE
:10038A0025E0D5F0FBADC64DF5C6EF75F003A4FF29
:10039A00AEF0240AF582EE3406F583E0FBA3E0FC16
:1003AA00A3E0FD8B828C838DF01220AAFA900607B7
:1003BA00E0F989F005F07401800225E0D5F0FBF43C
:1003CA00F952028B828C838DF0EA12208FEF241669
:1003DA00F582EE3406F583E0FDA3E0FEA3E0FF8D8F
:1003EA00828E838FF01220AA52018D828E838FF023
:1003FA00E902208F900609E0FFFE8EF005F07401F5
:10040A00800225E0D5F0FBADC64DF5C6EF75F003C9
:10041A00A4FFAEF0240AF582EE3406F583E0FBA3CE
:10042A00E0FCA3E0FD8B828C838DF01220AAFA9067
:10043A000607E0F989F005F07401800225E0D5F09D
:10044A00FBF942028B828C838DF0EA12208FEF2413
:10045A0016F582EE3406F583E0FDA3E0FEA3E0FF85
:10046A008D828E838FF01220AAFCE9F4F9EC5201F6
:10047A008D828E838FF0E902208F900609E0FFFEBD
:10048A008EF005F07401800225E0D5F0FBADC64D73
:10049A00F5C6EF75F003A4FFAEF0240AF582EE3438
:1004AA0006F583E0FBA3E0FCA3E0FD8B828C838D41
:1004BA00F01220AAFA900607E0F989F005F0740113
:1004CA00800225E0D5F0FBF9F4F8EA52008B828C21
:1004DA00838DF0E812208FEF2416F582EE3406F5AC
:1004EA0083E0FDA3E0FEA3E0FF8D828E838FF012EE
:1004FA0020AA42018D828E838FF0E902208F900616
:10050A0009E0FFFE8EF005F07401800225E0D5F0C7
:10051A00FBADC64DF5C6EF75F003A4FFAEF0240A95
:10052A00F582EE3406F583E0FBA3E0FCA3E0FD8B45
:10053A00828C838DF01220AAFA900607E0F989F0DE
:10054A0005F07401800225E0D5F0FBF942028B82A6
:10055A008C838DF0EA12208FEF2416F582EE340692
:10056A00F583E0FDA3E0FEA3E0FF8D828E838FF08A
:10057A001220AA42018D828E838FF0E902208FAF6A
:10058A0083E582900622F0EFA3F010990280FB9097
:10059A000622E0FEA3E0FF8E998E828F83221098B6
:1005AA000280FBAE997F008E828F8322AF83E58221
:1005BA00900624F0EFA3F0900624E0FEA3E0FFEEFD
:1005CA004F603505A105A105A105A105A105A10554
:1005DA00A105A105A105A105A105A105A105A105E1
:1005EA00A105A105A105A105A11EBEFF011F900637
:1005FA0024EEF0EFA3F080C7900624EEF0EFA3F00C
:10060A0022AF83E582900626F0EFA3F0900626E05B
:10061A00FEA3E0FFEE4F601D9003E8C007C006127C
:10062A0005B6D006D0071EBEFF011F900626EEF0C3
:10063A00EFA3F080DF900626EEF0EFA3F022E5822A
:10064A0090082FF0E0FF75F003A4FDAEF02429F521
:10065A0082EE3408F583E4F0ED2429FDEE3408FE39
:10066A008D828E83A3E4F0EF600475E5002275E4C1
:10067A000022C2EA75E28075E3009024477448F0CC
:10068A0090244CE4F0A3F090244E04F0E4A3F0F597
:10069A00D4F5D675E28975D24075D8FF75820012F5
:1006AA00064875820112064875E10322E582900820
:1006BA0030F0E5E35480FFE0547F4FF5E322E58212
:1006CA00900831F0E0600753E2BF53D27F2243E241
:1006DA004022E582900832F09006287408F075826C
:1006EA00001206B67582011206C8900832E0FFE0D1
:1006FA00701374FB55E44402F5E490000F12060BE4
:10070A0053E4FD8014BF011174FB55E54402F5E57D
:10071A0090000F12060B53E5FD9000FA1205B6C2BF
:10072A00D822E582900833F0E075F003A42429FE6C
:10073A00740835F0FF8E828F83E0FDBD01005007FB
:10074A008E828F837401F0900833E0FF7049E5DBF5
:10075A0020E3030207EAE5E420E035E5DB30E21AAC
:10076A00EF75F003A42429FD740835F0FE8D828EFE
:10077A0083A3A3E4F043E4048016EF75F003A424F2
:10078A0029FD740835F0FE8D828E83A3A37401F0CF
:10079A0043E40175820022BF0146E5DB30E741E50B
:1007AA00E520E035E5DB30E61AEF75F003A42429ED
:1007BA00FD740835F0FE8D828E83A3A3E4F043E531
:1007CA00048016EF75F003A42429FE740835F0FF9F
:1007DA008E828F83A3A37401F043E5017582002200
:1007EA0075821622E582900835F0E075F003A4249C
:1007FA0029FE740835F0FF8E828F83A3E0F582C04C
:10080A0007C0061206B6D006D0078E828F83A3A32E
:10081A00E0F5820206C8E582900839F0900836E0D1
:10082A00FF8FD48FD690083AE4F0A3F0900839E00D
:10083A00FEC4540FFDBD0103ED8001E4F50DE4BDD6
:10084A00090104F50E900837E0F9A3E0FA8ED5C243
:10085A00D9750AC8750B00E50A450B602820D92509
:10086A00900001C007C006C005C002C0011205B64B
:10087A00D001D002D005D006D007150A74FFB50AF8
:10088A0002150B80D275D50020D9047582FE22206C
:10089A00D90302099830DE0475820022E5D9540F83
:1008AA00F50C740EB50C0474018001E4F50A6007B6
:1008BA007420450CF58222740AB50C047401800177
:1008CA00E4F86033E94A700A7420450CF50D850D89
:1008DA008222C3E994FFEA94FF500519B9FF011A6D
:1008EA0090083AE024FFFBA3E034FFFC90083AEBBF
:1008FA00F0ECA3F002099BE50D700CE50E7034BD17
:10090A000D02800302099430DE047582002274020B
:10091A00B50C0475820022E50A7003E860077420AA
:10092A00450CF58222E50C700302099B7420450CE4
:10093A00F5822230DE0475820022EF6011740BB555
:10094A000C0474018001E424FFE433FC8010740376
:10095A00B50C0474018001E4FB24FFE433FCEC6071
:10096A000475820022E50A7003E860077420450CCA
:10097A00F582227403B50C07740BB50C028012E5DC
:10098A000C600E7420450CF582227582FE2275D801
:10099A00FF90000FC007C006C005C002C0011205C3
:1009AA00B6D001D002D005D006D00790083AE0248C
:1009BA0001F0A3E03400F090083AE0FBA3E0FCC3A6
:1009CA00EB94C8EC9400500302085775822022AFBA
:1009DA0083E582900841F0EFA3F0900841E0FEA37E
:1009EA00E0FF900845EEF0EFA3F090083CE0FBA38F
:1009FA00E0FCA3E0FD9000C8C007C006C005C00423
:100A0A00C0031205B6D003D004D005D006D007EB38
:100A1A004C600E8B828C838DF0E412208FA31220FF
:100A2A008F75D708900836E4F09008377410F07480
:100A3A0027A3F07582D0C007C006C005C004C00352
:100A4A00120820AA82D003D004D005D006D007EA23
:100A5A0060038A8222C006C00775D6D075D4D075C5
:100A6A00D701900107E0FA7900900106E0F87F00CB
:100A7A004201EF4202900843E9F0EAA3F0D007D01E
:100A8A0006E94A7003020CB8EE4F7003020CB890E4
:100A9A000100E0FF20E703020B93900843E0FEA366
:100AAA00E0FF4E7003020B8D90012CC007C006C0F8
:100ABA0005C004C0031205B6900836E5D4F09008C4
:100ACA00377410F07427A3F0758290120820AA8256
:100ADA00D003D004D005D006D007EA60038A822268
:100AEA00A9D17A00C3E99EEA9F5006A9D17A00806B
:100AFA00048E018F0289067F00900843E0F8A3E084
:100B0A00FA900843E8C39EF0EA9FA3F0EB4C6024F6
:100B1A008B828C838DF01220AAF8A31220AAFAEEF7
:100B2A0028FEEF3AFF8B828C838DF0EE12208FA382
:100B3A00EF12208F900845E0FEA3E0FF7A00C3EA97
:100B4A0099501CC001EA2EF50FE43FF5108A827510
:100B5A008300E0850F82851083F00AD00180DF9040
:100B6A000845E0FEA3E0FF900845E92EF0E43FA324
:100B7A00F0E5D1600E900628E0FFC3E5D19F40035F
:100B8A00020AA475D700020CB8900843E0FEA3E05D
:100B9A00FF4E7003020CB89000C8C007C006C0051B
:100BAA00C004C0031205B6D003D004D005D006D0C5
:100BBA0007900628E0F97A00C3EE99EF9A50048E5E
:100BCA00018F0289D7900845E0FEA3E0FF900B430E
:100BDA00EEF0EFA3F0E4A3F0900B46E5D7F0E4A320
:100BEA00F090010075F000C007C006C005C004C03F
:100BFA000312201BD003D004D005D006D007E5D7B6
:100C0A002EFEE43FFF900845EEF0EFA3F08E828FB0
:100C1A0083A3E0FABA0924900B4CE0F97A00740134
:100C2A00697003EA600679017A00800479007A0023
:100C3A00900B4CE9F08E828F83E9F0900836E5D666
:100C4A00F09008377410F07427A3F0758210C0056D
:100C5A00C004C003120820AF82D003D004D005EF2D
:100C6A0060038F8222AED77F00900843E0F9A3E0A9
:100C7A00FA900843E9C39EF0EA9FA3F0EB4C700395
:100C8A00020B938B828C838DF01220AAFEA3122072
:100C9A00AAFFA9D77A00E92EFEEA3FFF8B828C834E
:100CAA008DF0EE12208FA3EF12208F020B9390008B
:100CBA00C81205B6E5D760047F9080027F109008BD
:100CCA003674C0F09008377410F07427A3F08F823E
:100CDA00120820E582FF60038F8222E5D77003F5B0
:100CEA008222E5D17003F5822275821722AF83E54D
:100CFA0082900848F0EFA3F0900848E0FEA3E0FFD6
:100D0A00900847E0FD7C00C3EC9D50178C027B01E4
:100D1A00EC2EF582E43FF583E493F98A828B83F023
:100D2A000C80E4229006287408F0900847F090207E
:100D3A00CA120CF790083C744AF07408A3F0E4A3B2
:100D4A00F090083FF07402A3F09006291209D9E541
:100D5A0082FF60038F8222900630E0900628F0908E
:100D6A0020D0E493FF90084AE0FDA3E0FE7C00C394
:100D7A00ED9FEE9C50047582172275820022E5824F
:100D8A0090084CF09008477408F09020E2120CF793
:100D9A0090084CE0FF900102F090083CE4F0A3F0C8
:100DAA00A3F090083FF0A3F0900000C0071209D901
:100DBA00AE82D007EE60038E82228F821206B69030
:100DCA00006412060B75820022E58290084DF090AD
:100DDA0008477408F09020F2120CF790084DE09042
:100DEA000102F090083CE4F0A3F0A3F090083FF071
:100DFA00A3F09000000209D99008477408F09020E7
:100E0A00EA120CF790083CE4F0A3F0A3F090083F34
:100E1A00F07402A3F09006290209D9AF83E5829003
:100E2A000853F0EFA3F0900853E0FEA3E0FF8E8290
:100E3A008F83E07C0024FEFDEC34FFA2E713CD1380
:100E4A00CD8E828F83A3E0FCBC03028004758200EE
:100E5A0022900850E0FBA3E0FCEB24FFF513EC34EE
:100E6A00FFF51490084EE0F515A3E0F51685151167
:100E7A008516127800C3E89D5063C00588047D007A
:100E8A00C3EC9513ED9514D0055052C00588037C28
:100E9A0000EB2BFBEC33FC74032BFAE43CFDEA2E4B
:100EAA00FAED3FFD8A828D83E0D005600FE82511B7
:100EBA00F582E43512F583743FF0801EE82515F9B2
:100ECA00E43516FA74022BFBE43CFCEB2EF582ECBB
:100EDA003FF583E0FC89828A83F0088098E825152B
:100EEA00F582E43516F583E4F07F00900852E0FEBF
:100EFA000E900B21EDF0EFA3F0900B23EEF0900B88
:100F0A00247434F0900B257456F0900B26E515F0F6
:100F1A00E516A3F0758205121E4275820122AF837F
:100F2A00E582900855F0EFA3F0900855E0FEA3E0A3
:100F3A00FF7C007D008E828F83E0FB7A00C3EC9BEE
:100F4A00ED64808AF063F08095F050070CBC00E5F0
:100F5A000D80E2229008477408F09020D2120CF714
:100F6A0090083C7457F07408A3F0E4A3F090083F8B
:100F7A00F07402A3F09006291209D9E582FF6003F2
:100F8A008F82229020D8E493FF900857E0FDA3E0D7
:100F9A00FE7C00C3ED9FEE9C5004758217229006DA
:100FAA002BE0FF7E0090062CE0FCE42FFFEC3EFED7
:100FBA009008477408F09020D2C007C006120CF7B8
:100FCA00D006D0078F048E05900106ECF08E0790AC
:100FDA000107EFF090083C7457F07408A3F0E4A3FB
:100FEA00F090083FF07402A3F09006291209D9E59F
:100FFA0082FF60038F82227582002290084774085C
:10100A00F09020DA120CF790083C7459F07408A397
:10101A00F0E4A3F090083FF07402A3F090062902CE
:10102A0009D9E5829008BBF0E0FF75F010A4FDAE87
:10103A00F0249BF582EE3408F583E4F0A3F0A3F0E4
:10104A00A3F0ED249BFDEE3408FE8D828E83A3A3CC
:10105A00A3A3E4F0A3F0A3F0A3F074082DF582E4AF
:10106A003EF583E4F0A3F0A3F0A3F0740C2DF5820F
:10107A00E43EF583E4F0A3F0A3F0A3F07E00EE755E
:10108A00F008A4245BFC740835F0FD74012CFAE422
:10109A003DFB8A828B83E0B507298C828D83E4F03D
:1010AA008A828B83F08C828D83A3A3F08C828D83BA
:1010BA00A3A3A3F08C828D83A3A3A3A3F0A3F0A37D
:1010CA00F0A3F00EBE080040B5227F00EF75F008CD
:1010DA00A4FDAEF0245BFBEE3408FC8B828C83E02B
:1010EA006033ED245BFDEE3408FE8D828E83A3A36C
:1010FA00A3A3E0FBA3E0FCA3E0FDA3E0FEBB06156F
:10110A00BC0012BD000FBE000C90004BC0071205B8
:10111A0089D007802AEF75F008A4245BFD7408358E
:10112A00F0FE8D828E83E0600C90003FC0071205AE
:10113A0089D007800A900045C007120589D0070F99
:10114A00BF0800408722E5829008BCF0E0FF7E00DD
:10115A00EE75F008A4FCADF0245BFAED3408FB8AC6
:10116A00828B83E06052EC245BFCED3408FD8C82B8
:10117A008D83A3A3A3A3E0F8A3E0F9A3E0FAA3E075
:10118A00FBB80634B90031BA002EBB002B8C828D15
:10119A0083A3E0FD900834E4F08D82C007C00612F4
:1011AA0007EED006D0079008CDEFF08E82C007C0B8
:1011BA000612165FD006D0070EBE08004092227FA4
:1011CA0000EF75F008A4FDAEF0245BFBEE3408FCDA
:1011DA008B828C83E07003021333ED245BFDEE34C3
:1011EA0008FE8D828E83A3A3A3A3E0F9A3E0FAA34A
:1011FA00E0FBA3E0FCB9060BBA0008BB0005BC0083
:10120A000280030213338D828E83A3E0FC9008349C
:10121A00E4F08C82C007C006C0051207EED005D0E4
:10122A0006D0078D828E83A3A3A3E0FE747F5E445B
:10123A0090FDEE30E7067CC07E0080047C007E00D4
:10124A00900836ECF0900837E4F0A3F08D82C007DE
:10125A00120820E582D0076003021333EF75F00805
:10126A00A4245BFD740835F0FE74032DFBE43EFCF8
:10127A008B828C83E0F96301808B828C83E9F09006
:10128A0008BDE5D1F0E0FAE07003021333B2968AA2
:10129A00017A008D828E83A3A3A3A3E0F88B828CAC
:1012AA0083E0FB53037F8D828E83A3E075F010A445
:1012BA00FEADF0249BF582ED3408F583E0F517EED8
:1012CA00249BFEED3408FD8E828D83A3A3A3A3E0A5
:1012DA00F51874082EF582E43DF583E0FC740C2EB3
:1012EA00F582E43DF583E0FE900B28E9F0EAA3F0ED
:1012FA00900B2AE8F0900B2BEFF0900B2CEBF09070
:10130A000B2D7400F07400A3F0900B2FE517F090EA
:10131A000B30E518F0900B31ECF0900B32EEF075D3
:10132A008204C007121E43D0070FBF0800500302F1
:10133A0011CB22AF83E5829008C1F0EFA3F09008A9
:10134A00C3E4F0A3F09008C5F09008C6F09008C175
:10135A00E0F52CA3E0F52DAC2CAD2D9008C0E0757E
:10136A00F008A4245BFA740835F0FB9008BEE0F597
:10137A002AA3E0F52B9008C3E0F526A3E0F527C3DE
:10138A00E526952AE527952B400122C002C003E5F0
:10139A0026252CF582E527352DF583E0FB9008C735
:1013AA0074FC5BF074035BF5269008C8F09008C9DA
:1013BA00E4F0A3F0A3F0A3F07403B526028006D0EC
:1013CA0003D002800BD003D0029008C8E52604F0AF
:1013DA00C002C0039008C3E0FAA3E0FB74012AF537
:1013EA0026E43BF5279008C8E0F528752900D003C4
:1013FA00D002C3E52995285054C002C003AA297B0C
:10140A0000EA2526FAEB3527FBEA2CF582EB3DF5B7
:10141A0083E0F8E4F9FAFBE529C40354F8FF8FF0F6
:10142A0005F0800CE828F8E933F9EA33FAEB33FBE4
:10143A00D5F0F19008C9E048F0A3E049F0A3E04AEA
:10144A00F0A3E04BF00529D003D00280A59008C58F
:10145A00E0FF9008C7E0FEE4BEC00104F529790068
:10146A008F26752700E5296008752E01752F0080E3
:10147A0005E4F52EF52FC002C003E526C3952EF824
:10148A00E527952FFB89027E00C3EA98EE64808BDC
:10149A00F063F08095F0D003D00250030980C19028
:1014AA0008C7E0FFBF04028063BF080302155ABFE2
:1014BA00140302163EBF180302163EBF2403021687
:1014CA003EBF280302163EBF340302163EBF440342
:1014DA0002163EBF640302163EBF740302163EBFE5
:1014EA00800302163EBF840302163EBF9003021613
:1014FA003EBF940302163EBFA00302162FBFB003DD
:10150A0002163EBFC00302163802163E9008C9E012
:10151A00F8A3E0F9A3E0FEA3E0FFC3E994FFEE9489
:10152A0000EF94004008780079FF7E007F00B80140
:10153A000CB90009BE0006BF000302163EB8070C2C
:10154A00B90009BE0006BF0003D38001C302163EDC
:10155A009008C6E07032C004C00574042AFEE43B59
:10156A00FF9008C9E0F8A3E0F9A3E0FCA3E0FD8E30
:10157A00828F83E8F0E9A3F0ECA3F0EDA3F09008E2
:10158A00C67401F0D005D0049008C9E0F8A3E0F9C8
:10159A00A3E0FEA3E0FFC3743898E499E49EE49FB5
:1015AA00500302163EE8240A83F582E8243D83F5B7
:1015BA0083E4733E3E3E3E3E3E3E3E3E3E3E3E3E21
:1015CA003E3E3E3E3E3E3E3E3E3E3E3E3E3E3E3E31
:1015DA003E3E3E3E3E3E3E3E3E3E3E3E3E3E3E3E21
:1015EA003E3E3E3E3E3E3E3E3E3E3E3E16161616B1
:1015FA001616161616161616161616161616161681
:10160A001616161616161616161616161616161670
:10161A001616161616161616161616161616161660
:10162A0016161616169008C5E02401F080069008D2
:10163A00C5E014F09008C8E0FF7E000FBF00010E5D
:10164A009008C3E0F8A3E0F99008C3EF28F0EE3958
:10165A00A3F002137FE5829008CEF0900847740841
:10166A00F0902102120CF79008CEE075F008A4243D
:10167A005BFE740835F0FF8E828F83A3A3E090018E
:10168A0004F09001067401F09008CDE0900629F06C
:10169A0090083C74CFF07408A3F0E4A3F090083FDC
:1016AA00F0A3F09006290209D9E5829008D1F090BA
:1016BA0008477408F09020FA120CF79008D1E075E8
:1016CA00F008A4245BFE740835F0FF74022EFEE4D1
:1016DA003FFF8E828F83E0900104F090083C74D221
:1016EA00F07408A3F0E4A3F090083FF0A3F090068A
:1016FA0029C007C0061209D99008477408F090213A
:10170A000A120CF7D006D0078E828F83E09001046C
:10171A00F0900106E4F09001077402F090083C741E
:10172A00D2F07408A3F0E4A3F090083FF07402A387
:10173A00F09006291209D9E582FF60038F82227E82
:10174A00007F009008D2E0FCA3E0FDC3EE9CEF9D71
:10175A0050070EBE00ED0F80EA9008D1E0FF75F049
:10176A0008A4245BFB740835F0FE8B828E83A3A346
:10177A00E0FA8B828E83A3E0FE900B21ECF0EDA3BE
:10178A00F0900B23EFF0900B24EAF0900B25EEF08B
:10179A00900B267429F07406A3F0758207C007120D
:1017AA001E42D0079008D2E0FDA3E0FE9008BEEDED
:1017BA00F0EEA3F09008C0EFF090062912133D75E1
:1017CA00820022222222E5829008D8F09008D9E4E9
:1017DA00F09008D8E0FFFE75F003A4F51985F01A19
:1017EA008F1E751D00900064C007C00612060B907C
:1017FA00006412060B851E8212102C851E821206A8
:10180A00DCD006D0077900900001C007C006C001ED
:10181A0012060BD001D006D0078F82C007C006C0BF
:10182A000112072CE582D001D006D007600609B95B
:10183A00640040D3B964108F82C007C006120648FC
:10184A00D006D007021C909008D8E0F9900834E43A
:10185A00F08982C007C006C0011207EE120D2EA839
:10186A0082D001D006D0079008D9E8F0E8600302D8
:10187A001C47C006E975F010A4F8AEF0249BF51BCE
:10188A00EE3408F51C900631E0FA7B007C007D00FE
:10189A00851B82851C83EAF0EBA3F0ECA3F0EDA391
:1018AA00F0E8249BF8EE3408FE740428F51BE43EA5
:1018BA00F51C900632E0FA7B007C007D00851B82D5
:1018CA00851C83EAF0EBA3F0ECA3F0EDA3F0740817
:1018DA0028F51BE43EF51C900633E0FA7B007C00F9
:1018EA007D00851B82851C83EAF0EBA3F0ECA3F054
:1018FA00EDA3F0740C28F8E43EFE900634E0FD7C7B
:10190A00007B007A0088828E83EDF0ECA3F0EBA3D3
:10191A00F0EAA3F0900629C007C006C001120F28FA
:10192A00D001D0069020E4E49329F51B851B82C0E0
:10193A0001120D88AE82D001D0079008D9EEF0EEE0
:10194A00D0066003021C47E975F003A42429FC743D
:10195A000835F0FD8C828D83A3E51BF0C007C00615
:10196A00C001120E02900629120F28D00190084ECB
:10197A007429F07406A3F0900850E4F07402A3F0FE
:10198A00900852E9F0900629C001120E25120F5E46
:10199A00AD82D001D006D0079008D9EDF0ED6003F2
:1019AA00021C4790062BE0FD7C0090062CE0FA7B97
:1019BA0000900B21EB2DF0EA3CA3F009900B23E5F4
:1019CA001BF0900B24E9F0900B2574AAF0900B26DB
:1019DA007429F07406A3F0758206121E42900ADC7E
:1019EA00E4F0A3F07C007D0090062BE0FB7A0090E7
:1019FA00062CE0F9E42BFBE93AFAC3EC9BED9A508A
:101A0A00070CBC00E30D80E090062EE0F582120D73
:101A1A00D390062BE0FD7C0090062CE0FAE42DFD25
:101A2A00EA3CFC8D028C0378007900C3E89AE99BB2
:101A3A00502BC005C004E824DCF51BE93408F51C6A
:101A4A00E82429F582E93406F583E0851B82851CA2
:101A5A0083F008B8000109D004D00580CE90062989
:101A6A00E0FB9008DAF0E4A3F09008D8E0F521AAA8
:101A7A00218D1F8C209008DAE0F8A3E0F9C3E895DD
:101A8A001FE995204003021C43E824DCF8E93408E6
:101A9A00F9900ADEE8F0E9A3F088828983A3E0F5E9
:101AAA001B7404B51B0280227405B51B02803B74AB
:101ABA0021B51B03021BC87424B51B03021BF9744E
:101ACA0025B51B03021C06021C1388048905900A0B
:101ADA00DCECF0EDA3F09008D4ECF0EDA3F08A82F0
:101AEA00C0021217CDD002021C1EC002888289834E
:101AFA00C002C001C000120F28D000D001D002904D
:101B0A000ADCE0FAA3E0FD8A828D83A3A3A3A3A340
:101B1A00E0FDBD03028005D002021C1E880489056F
:101B2A0074022CF522E43DF523852282852383E085
:101B3A00D00220E703021C1E751B00C002E51B75BC
:101B4A00F008A4245BFA740835F0FB8A828B83E0E0
:101B5A00D0026008051B74F8251B50DFC002E51B84
:101B6A0075F008A4245BFA740835F0FB74032AF5AF
:101B7A0024E43BF525852282852383E0852482851A
:101B8A002583F08A828B837401F0042AF524E43BCE
:101B9A00F525900ADCE0FCA3E0FD8C828D83A3A3EB
:101BAA00E0852482852583F08A828B83A3E521F050
:101BBA00851B82C0021216B3D002D0028056900A48
:101BCA00DCE0FCA3E0FD900ADCE0F5F0A3E045F0E0
:101BDA006042C002880289039008D6EAF0EBA3F0BB
:101BEA008C828D83C0021217CED002D00280258843
:101BFA00828983C002120F28D002801888828983C2
:101C0A00C002120F28D002800B88828983C0021278
:101C1A000F28D002900ADEE0FCA3E0FD8C828D83BF
:101C2A00E0FC7D009008DAE0F9A3E0FB9008DAEC2A
:101C3A0029F0ED3BA3F0021A7F758200228E050D72
:101C4A009008D9E0FC900B21E4F0A3F0900B23ED6F
:101C5A00F0900B24ECF0900B2574EEF0900B26E438
:101C6A00F0A3F0758203C007C006121E42E51924CC
:101C7A0029F582E51A3408F5837402F07582011297
:101C8A0006C8D006D007051D74F6251D40030217A5
:101C9A00EF9008D9E0F58222900AE0E4F010D80328
:101CAA00021DC5E5DB30E349900829E06008E5E458
:101CBA0030E003021D387582001206489008297424
:101CCA0001F0900B21E4F0A3F0900B2304F0900BA9
:101CDA0024F0900B25F0900B26E4F0A3F075820116
:101CEA00121E427582001217D0E582900AE0F08037
:101CFA003D900829E0FFBF010040337582001210B1
:101D0A002C758200120648900B21E4F0A3F0900B88
:101D1A002304F0900B24F0900B25F0900B26E4F0AE
:101D2A00A3F0758202121E42900AE07416F0E5DBF7
:101D3A0030E74A90082CE06008E5E530E003021D30
:101D4A00C575820112064890082C7401F0900B2187
:101D5A00E4F0A3F0900B237402F0900B24F0900BA4
:101D6A0025F0900B26E4F0A3F0758201121E42754D
:101D7A0082011217D0E582900AE0F0803E90082C8A
:101D8A00E0FFBF0100403475820112102C758201F8
:101D9A00120648900B21E4F0A3F0900B237402F092
:101DAA00900B24F0900B25F0900B26E4F0A3F0752D
:101DBA008202121E42900AE07416F0900AE0E0F5E0
:021DCA00822273
:1020CA0080060001000012008006000200001200D3
:1020DA00810600040000090000050200000000005B
:1020EA00800602030904020400090000000000003F
:1020FA00210A00000000000021090002000000007F
:09210A00810600220000FF000024
:101DCC0010980122900B4DE024E1F582E4340AF5E1
:101DDC0083E599F0900B4DE0FF24E1F582E4340AA1
:101DEC00F583E0FEBE0A028005BF4000403F900A2A
:101DFC00E1E0FEBEC90F9000551205891210D49077
:101E0C00000A120589900AE1E0FEBED20312006AB4
:101E1C00900AE1E0FEBECC0D900AE2E0FE53061FF4
:101E2C008E82121150900B4DE4F0021DCC900B4D94
:101E3C00EF04F0021DCC22E582900B33F0900B34B2
:101E4C0074FEF0E4A3F0900B33E0FFBF04028001BA
:101E5C0022900B2AE0FFBF06028001229000FE12A6
:101E6C000589900B2DE0FEA3E0FF900B28E0FCA36E
:101E7C00E0FD7A007B00C3EA9CEB9D502DC004C0B2
:101E8C0005EA2EF582EB3FF583E0F87900900B34F0
:101E9C00E0FCA3E0FD900B34E82CF0E93DA3F00A44
:101EAC00BA00010BD005D00480CC900B34E0FAA31F
:101EBC00E0FB900B34740A2AF0E43BA3F08E028F03
:101ECC00030EBE00010F900B34E0F8A3E07900C3C1
:101EDC00E498F88E828F83F07E007F00C3EE9CEF37
:101EEC009D5032EE2AF582EF3BF583E0F8790088BD
:101EFC00828983C007C006C005C004C003C002129B
:101F0C000589D002D003D004D005D006D0070EBE70
:0B1F1C0000CA0F80C790000A02058970
:0121130000CB
:101F2700AF82AE83ADF0FC900B3AEFF0EEA3F0ED8D
:101F3700A3F0ECA3F0900B3EE4F0A3F0A3F0A3F022
:101F4700900B36E0FCA3E0FDA3E0FEA3E0FF7B20BF
:101F5700C003900B3AE0F8A3E0F9A3E0FAA3E0FB93
:101F6700900B42235401F0E828F8E933F9EA33FAF1
:101F7700EB33FB900B3AE8F0E9A3F0EAA3F0EBA30D
:101F8700F0900B3EE0F8A3E0F9A3E0FAA3E0FBE84A
:101F970028F8E933F9EA33FAEB33FB900B3EE8F024
:101FA700E9A3F0EAA3F0EBA3F0D003900B42E060C3
:101FB70008900B3EE043E001F0900B3EE0F526A3CE
:101FC700E0F527A3E0F528A3E0F529C3E5269CE57E
:101FD700279DE5289EE5299F401F900B3EE526C3D8
:101FE7009CF0E5279DA3F0E5289EA3F0E5299FA394
:101FF700F0900B3AE043E001F01BEB6003021F5740
:10200700900B3AE0FCA3E0FDA3E0FEA3E08C828DF9
:04201700838EF022A2
:06003700E478FFF6D8FD9D
:10201B00AFF0AE83E582900B48F0EEA3F0EFA3F0A8
:10202B00900B48E0F526A3E0F527A3E0F528AA26B8
:10203B00AB27AC28900B43E0F8A3E0F9A3E0FF90AB
:10204B000B46E0F529A3E0F52AAD29AE2A15297434
:10205B00FFB52902152AED4E6020888289838FF007
:10206B001220AAFEA3A882A9838A828B838CF0EE0E
:10207B0012208FA3AA82AB8380CF852682852783EC
:04208B008528F02292
:100015007902E94400601B7A01902112784C75A0A1
:100025000BE493F2A308B8000205A0D9F4DAF2753F
:02003500A0FF2A
:10208F0020F71130F6138883A88220F509F6A8836C
:0B209F007583002280FEF280F5F02225
:10003D007800E84400600A790075A006E4F309D859
:10004D00FC784CE84405600C7906900600E4F0A3BA
:04005D00D8FCD9FAF8
:0F000600E47375812F1220C6E5826003020003A8
:1020AA0020F71430F6148883A88220F507E6A8835F
:1020BA0075830022E280F7E49322E02275820022EF
:00000001FF
