:03000000020008F3
:0300670002000391
:0300030002009266
:10006A00758200121032120687900D46E4F0A3F052
:10007A00900D48F0900D49F0900D4AF0900D4BF01C
:10008A00A3F07582080226D61200C69006007401F3
:10009A00F0E4A3F090E36075F0161200DE12006A35
:1000AA00E5C120E609850882850983120006122621
:0C00BA002E1225911221E912129F80E401
:060061007508007509F4AA
:1000C60075A15575A1AA53B3E043B30675B2D875A9
:1000D600A1FF9000070205E3AF82AE83ADF0FC906E
:1000E6000602EFF0EEA3F0EDA3F0ECA3F09006000D
:1000F600E0F5F0A3E045F0600C43C60143C40843B5
:10010600C50C43CE10C29FD29EC29DD29C4387800F
:10011600900602E0FCA3E0FDA3E0FEA3E0FF900D45
:100126005BECF0EDA3F0EEA3F0EFA3F0908D8075FD
:10013600F05BE41227C0AC82AD830CBC00010DED70
:10014600C313CC13CC740F55894420F58943C9A039
:10015600C3E49CFC8C8DD28ED2992210980280FB2F
:1001660085998222E582900606F0E0F5993099FDA0
:10017600D29922E582900609F090060A74C4F074BA
:1001860000A3F07440A3F090060D74BAF07400A3B7
:10019600F07440A3F090061074BCF07400A3F074E1
:1001A60040A3F090061374BEF07400A3F07440A34D
:1001B600F090061674C5F07400A3F07440A3F09096
:1001C600061974BBF07400A3F07440A3F090061CEB
:1001D60074BDF07400A3F07440A3F090061F74BFC2
:1001E600F07400A3F07440A3F0900608E0FF24F931
:1001F600500122EF2F2F9002007302021502029483
:100206000203130203680203E60204660204E49092
:100216000609E0FF8FF005F07401800225E0D5F0B5
:10022600FBF452C6EF75F003A4FFAEF0240AF58284
:10023600EE3406F583E0FBA3E0FCA3E0FD8B828CA5
:10024600838DF0123495FA900607E0F989F005F0EF
:100256007401800225E0D5F0FBF4F952028B828C02
:10026600838DF0EA1229EAEF2416F582EE3406F5BC
:1002760083E0FDA3E0FEA3E0FF8D828E838FF01264
:10028600349552018D828E838FF0E90229EA900619
:1002960009E0FF8FF005F07401800225E0D5F0FB40
:1002A600F452C6EF75F003A4FFAEF0240AF582EE11
:1002B6003406F583E0FBA3E0FCA3E0FD8B828C8390
:1002C6008DF0123495FA900607E0F989F005F0747E
:1002D60001800225E0D5F0FBF9F452028B828C8373
:1002E6008DF0EA1229EAEF2416F582EE3406F5833C
:1002F600E0FDA3E0FEA3E0FF8D828E838FF0123433
:100306009542018D828E838FF0E90229EA900609D3
:10031600E0FF8FF005F07401800225E0D5F0FBF4D4
:1003260052C6EF75F003A4240AF582740635F0F57B
:1003360083E0FDA3E0FEA3E0FF8D828E838FF012A3
:100346003495FC900607E0FB8BF005F07401800203
:1003560025E0D5F0FBF442048D828E838FF0EC020B
:1003660029EA900609E0FF8FF005F0740180022566
:10037600E0D5F0FB42C6EF75F003A4FFAEF0240A09
:10038600F582EE3406F583E0FBA3E0FCA3E0FD8BEB
:10039600828C838DF0123495FA900607E0F989F085
:1003A60005F07401800225E0D5F0FBF4F952028BCA
:1003B600828C838DF0EA1229EAEF2416F582EE3458
:1003C60006F583E0FDA3E0FEA3E0FF8D828E838F1A
:1003D600F012349552018D828E838FF0E90229EA5C
:1003E600900609E0FF8FF005F07401800225E0D544
:1003F600F0FB42C6EF75F003A4FFAEF0240AF582C7
:10040600EE3406F583E0FBA3E0FCA3E0FD8B828CD3
:10041600838DF0123495FA900607E0F989F005F01D
:100426007401800225E0D5F0FBF942028B828C83B1
:100436008DF0EA1229EAEF2416F582EE3406F583EA
:10044600E0FDA3E0FEA3E0FF8D828E838FF01234E1
:1004560095FCE9F452048D828E838FF0EC0229EA32
:10046600900609E0FF8FF005F07401800225E0D5C3
:10047600F0FB42C6EF75F003A4FFAEF0240AF58246
:10048600EE3406F583E0FBA3E0FCA3E0FD8B828C53
:10049600838DF0123495FA900607E0F989F005F09D
:1004A6007401800225E0D5F0FBF9F452028B828CB0
:1004B600838DF0EA1229EAEF2416F582EE3406F56A
:1004C60083E0FDA3E0FEA3E0FF8D828E838FF01212
:1004D600349542018D828E838FF0E90229EA9006D7
:1004E60009E0FF8FF005F07401800225E0D5F0FBEE
:1004F60042C6EF75F003A4FFAEF0240AF582EE348F
:1005060006F583E0FBA3E0FCA3E0FD8B828C838DE4
:10051600F0123495FA900607E0F989F005F07401B7
:10052600800225E0D5F0FBF942028B828C838DF0A8
:10053600EA1229EAEF2416F582EE3406F583E0FD89
:10054600A3E0FEA3E0FF8D828E838FF012349542E6
:10055600018D828E838FF0E90229EAAF83E58290CE
:100566000622F0EFA3F010990280FB900622E0FE2F
:10057600A3E0FF8E998E828F832210980280FBAEB5
:10058600997F008E828F8322AF83E582900624F0C6
:10059600EFA3F0900624E0FEA3E0FFEE4F603505E2
:1005A600A105A105A105A105A105A105A105A10515
:1005B600A105A105A105A105A105A105A105A10505
:1005C600A105A105A11EBEFF011F900624EEF0EFB6
:1005D600A3F080C7900624EEF0EFA3F022AF83E5E8
:1005E60082900626F0EFA3F0900626E0FEA3E0FF39
:1005F600EE4F601D9003E8C007C00612058ED006B8
:10060600D0071EBEFF011F900626EEF0EFA3F08076
:10061600DF900626EEF0EFA3F022E582900832F096
:10062600E075F009A4FEAFF02429F582EF3408F551
:1006360083E4F0EE2429FEEF3408FF8E828F83A335
:10064600E4F08E828F83A3A3A3F08E828F83A3A36D
:10065600A3A3F08E828F83A3A3A3A3A3F074062E75
:10066600F582E43FF583E4F074072EF582E43FF566
:1006760083E4F074082EF582E43FF583E4F0F5E4B4
:1006860022C2EA75E28075E3009024477448F09030
:10069600244CE4F0A3F090244E04F0E4A3F0F5D447
:1006A600F5D675E28975D24075D8FF7582001206B7
:1006B6002075E10322E582900833F0E5E35480FFDC
:1006C600E0547F4FF5E322E582900834F0E06007BE
:1006D60053E2BF53D27F2243E24022900628740899
:1006E600F07582001206BB7582011206CD74FB55A9
:1006F600E44402F5E490000F1205E353E4FD900094
:10070600FA12058EC2D822E582900835F0E075F01F
:1007160009A42429FE740835F0FF8E828F83E0FD3C
:10072600BD010050078E828F837401F0E5DB30E354
:1007360047E5E420E03BE5DB30E21D900835E07557
:10074600F009A42429FE740835F0FF8E828F83A356
:10075600A3E4F043E4048019900835E075F009A499
:100766002429FE740835F0FF8E828F83A3A37401BB
:10077600F043E4017582002275821622E582900814
:1007860037F0E075F009A42429FE740835F0FF8ED1
:10079600828F83A3E0F582C007C0061206BBD0068F
:1007A600D0078E828F83A3A3E0F582C007C006120E
:1007B60006CDD006D00774032EFEE43FFF8E828F4F
:1007C60083E0600443D2802253D27F22E5829008E0
:1007D6003BF0900838E0FF8FD48FD690083CE4F0C9
:1007E600A3F090083BE0FEC4540FFDBD0103ED806D
:1007F60001E4F524E4BD090104FB900839E0F9A3FE
:10080600E0FA8ED5C2D97521C8752200E5214522A8
:10081600602C20D929900001C007C006C005C0037E
:10082600C002C00112058ED001D002D003D005D07F
:1008360006D007152174FFB52102152280CE75D585
:100846000020D9047582FE2220D90302094C30DE2D
:100856000475820022E5D9540FF523740EB52304DE
:1008660074018001E4F521600774204523F5822296
:10087600740AB5230474018001E4F8603FE94A7004
:100886000A74204523F52485248222C00389038A1D
:1008960004C3EB94FFEC94FFD003500519B9FF0194
:1008A6001AC00390083CE024FFFBA3E034FFFC9051
:1008B600083CEBF0ECA3F0D00302094FE524700BE3
:1008C600EB7031BD0D02800302094830DE047582EB
:1008D60000227402B5230475820022E5217003E824
:1008E600600774204523F58222E523605C74204569
:1008F60023F5822230DE0475820022EF600D740B30
:10090600B5230474018001E4FC800B7403B5230451
:1009160074018001E4FCEC600475820022E521701C
:1009260003E8600774204523F582227403B5230784
:10093600740BB523028012E523600E74204523F55F
:1009460082227582FE2275D8FF90000FC007C0066E
:10095600C005C003C002C00112058ED001D002D06E
:1009660003D005D006D00790083CE02401F0A3E0B0
:100976003400F090083CE0F8A3E0FCC3E894C8EC2F
:100986009400500302080875822022AF83E5829006
:100996000843F0EFA3F0900843E0FEA3E0FF9008C1
:1009A60047EEF0EFA3F090083EE0FBA3E0FCA3E0E7
:1009B600FD9000C8C007C006C005C004C0031205EC
:1009C6008ED003D004D005D006D007EB4C600E8B3A
:1009D600828C838DF0E41229EAA31229EA75D708DE
:1009E600900838E4F09008397410F07427A3F07575
:1009F60082D0C007C006C005C004C0031207D2AA31
:100A060082D003D004D005D006D007EA60038A82DC
:100A160022C006C00775D6D075D4D075D70190010F
:100A260007E0FA7900900106E07F004201EF4202FA
:100A3600900845E9F0EAA3F0D007D006E94A70032A
:100A4600020C6EEE4F7003020C6E900100E020E780
:100A560003020B49900845E0FEA3E0FF4E70030237
:100A66000B4390012CC007C006C005C004C003128A
:100A7600058E900838E5D4F09008397410F0742784
:100A8600A3F07582901207D2AA82D003D004D005B3
:100A9600D006D007EA60038A8222A9D17A00C3E988
:100AA6009EEA9F5004A9D180048E018F0289079087
:100AB6000845E0FAA3E0FE8F007F00EAC398FAEE4D
:100AC6009FFE900845EAF0EEA3F0EB4C60248B8283
:100AD6008C838DF0123495FAA3123495FEE82AF829
:100AE600EF3EFF8B828C838DF0E81229EAA3EF128A
:100AF60029EA900847E0FEA3E0FF7A00C3EA99508E
:100B060018EA2EF525E43FF5268A82758300E085EE
:100B16002582852683F00A80E3900847E0FEA3E05D
:100B2600FF900847E92EF0E43FA3F0E5D1600E9070
:100B36000628E0FFC3E5D19F4003020A5A75D70095
:100B4600020C6E900845E0FEA3E0FF4E7003020C17
:100B56006E9000C8C007C006C005C004C0031205D9
:100B66008ED003D004D005D006D007900628E0F931
:100B76007A00C3EE99EF9A920050048E018F028993
:100B8600D7900847E0FEA3E0FF900D68EEF0EFA3D4
:100B9600F0E4A3F0900D6BE5D7F0E4A3F09001002C
:100BA600F5F0C007C006C005C004C0031228B4D0C3
:100BB60003D004D005D006D007E5D72EFEE43FFFCC
:100BC600900847EEF0EFA3F08E828F83A3E0FABA87
:100BD600091D900DB5E0C0F0F5F0740165F0D0F098
:100BE60060027401FA900DB5F08E828F83EAF09060
:100BF6000838E5D6F09008397410F07427A3F0751C
:100C06008210C005C004C0031207D2AF82D003D041
:100C160004D005EF60038F8222AFD7900845E0FA33
:100C2600A3E0FE8F017F00EAC399FAEE9FFE9008CB
:100C360045EAF0EEA3F0EB4C7003020B498B828C75
:100C4600838DF0123495FEA3123495FFA9D77A004E
:100C5600E92EFEEA3FFF8B828C838DF0EE1229EAA5
:100C6600A3EF1229EA020B499000C812058EE5D7B8
:100C760060047F9080027F1090083874C0F090085E
:100C8600397410F07427A3F08F821207D2E582FF21
:100C960060038F8222E5D77003F58222E5D17003C7
:100CA600F5822275821722AF83E58290084AF0EF1B
:100CB600A3F090084AE0FEA3E0FF900849E0FD7C1F
:100CC60000C3EC9D50168C027B01EC2EF582E43FAE
:100CD600F583E4938A828B83F00C80E522900628C4
:100CE6007408F0900849F09034B5120CAD90083EA7
:100CF600744CF07408A3F0E4A3F0900841F0740279
:100D0600A3F0900629120991E582FF60038F8222E3
:100D1600900630E0900628F09034BBE493FF9008EC
:100D26004CE0FDA3E0FE7C00C3ED9FEE9C500475F5
:100D360082172275820022E58290084EF0900849BB
:100D46007408F09034CD120CAD90084EE0FF90017F
:100D560002F090083EE4F0A3F0A3F0900841F0A35F
:100D6600F0900000C007120991AE82D007EE600332
:100D76008E82228F821206BB9000641205E3758272
:100D86000022E58290084FF09008497408F09034EC
:100D9600DD120CAD90084FE0900102F090083EE4A1
:100DA600F0A3F0A3F0900841F0A3F0900000020930
:100DB60091E582900850F09008497408F09034D577
:100DC600120CAD900850E0FF900102F090083EE44E
:100DD600F0A3F0A3F0900841F07402A3F090062966
:100DE600C007120991AE82D007EE60038E82229070
:100DF60008497408F09034D5C007120CADD007909E
:100E06000102EFF0900629E0900106F090083EE41A
:100E1600F0A3F0A3F0900841F07402A3F090062925
:100E2600020991AF83E582900856F0EFA3F090088F
:100E360056E0FEA3E0FF8E828F83E07C0024FEFD59
:100E4600EC34FFA2E713CD13CD8E828F83A3E0FC93
:100E5600BC0302800475820022900853E0F529A3A2
:100E6600E0F52A900851E0F52DA3E0F52E852D2713
:100E7600852E287800C3E89D5070C005AC29AD2AA0
:100E8600EC24FFF52BED34FFF52C88037D00C3EB36
:100E9600952BED952CD0055051C00588037C00EBB1
:100EA6002BFBEC33FC74032BFAE43CFDEA2EFAED43
:100EB6003FFD8A828D83E0D005600FE82527F58205
:100EC600E43528F583743FF0801DE8252DF9E435D7
:100ED6002EFA74022BFBE43CFCEB2EF582EC3FF57C
:100EE60083E089828A83F008808BE8252DF582E4E9
:100EF600352EF583E4F0FF900855E0FE0E900D4682
:100F0600EDF0EFA3F0900D48EEF0900D497434F03B
:100F1600900D4A7456F0900D4BE52DF0E52EA3F09A
:100F26007582051226D675820122AF83E582900866
:100F360058F0EFA3F0900858E0FEA3E0FF7C007D98
:100F4600008E828F83E0FB7A00C3EC9BED64808A7F
:100F5600F063F08095F050070CBC00E50D80E222AE
:100F66009008497408F09034BD120CAD90083E7498
:100F76005AF07408A3F0E4A3F0900841F07402A3B9
:100F8600F0900629120991E582FF60038F82229074
:100F960034C3E493FF90085AE0FDA3E0FE7C00C34F
:100FA600ED9FEE9C50047582172290062BE0FF7E83
:100FB6000090062CE0FCE42FFFEC3EFE90084974FE
:100FC60008F09034BDC007C006120CADD006D0079D
:100FD6008F05900106EDF08E07900107EFF090085F
:100FE6003E745AF07408A3F0E4A3F0900841F0743C
:100FF60002A3F0900629120991E582FF60038F8211
:1010060022758200229008497408F09034C5120CAB
:10101600AD90083E745CF07408A3F0E4A3F0900869
:1010260041F07402A3F0900629020991E582900A24
:10103600CAF0E0FF900D7CF0E4A3F0900112C00727
:10104600122A05AD82AE83D007ED24A6F582EE34D2
:1010560008F583E4F0A3F0A3F0A3F0ED24A6FDEEDB
:101066003408FE8D828E83A3A3A3A3E4F0A3F0A38A
:10107600F0A3F074082DF582E43EF583E4F0A3F0C6
:10108600A3F0A3F0740C2DF582E43EF583E4F0A3FF
:10109600F0A3F0A3F074102DF582E43EF583E4F09E
:1010A60074912DF582E43EF583E4F0FEEE75F009C9
:1010B600A4245EFC740835F0FD74012CFAE43DFBB3
:1010C6008A828B83E0B507348C828D83E4F08A8232
:1010D6008B83F08C828D83A3A3F08C828D83A3A354
:1010E600A3F08C828D83A3A3A3A3F0A3F0A3F0A304
:1010F600F074082CF582E43DF583E4F00EBE08009A
:1011060040AA227F00EF75F009A4FDAEF0245EFB35
:10111600EE3408FC8B828C83E06033ED245EFDEEBA
:101126003408FE8D828E83A3A3A3A3E0FBA3E0FC79
:10113600A3E0FDA3E0FEBB0615BC0012BD000FBE7A
:10114600000C90004BC007120561D007802AEF758E
:10115600F009A4245EFD740835F0FE8D828E83E0CE
:10116600600C90003FC007120561D007800A90000E
:1011760045C007120561D0070FBF080040872290BF
:1011860008AEE0FCA3E0FDA3E0FEA3E0FF9008B2FA
:10119600E0F52FA3E0F530A3E0F531A3E0F53290BA
:1011A60008A6E0F533A3E0F534A3E0F535A3E0F5B2
:1011B600369008AAE0F8A3E0F9A3E0FAA3E0FBC0A2
:1011C60004C005C006C007C02FC030C031C032C041
:1011D60033C034C035C036C000C001C002C003747D
:1011E6002DC0E07435C0E07480C0E0122A73E5813A
:1011F60024EDF5817437C0E07409C0E0E4C0E07402
:10120600B6C0E07408C0E0E4C0E07447C0E07435DE
:10121600C0E07480C0E0122A73E58124F7F58122CC
:10122600E582900ACBF0E0FF7E00EE75F009A4FCA3
:10123600ADF0245EFAED3408FB8A828B83E06052BF
:10124600EC245EFCED3408FD8C828D83A3A3A3A35E
:10125600E0F8A3E0F9A3E0FAA3E0FBB80634B9008E
:1012660031BA002EBB002B8C828D83A3E0FD900843
:1012760036E4F08D82C007C006120782D006D0077A
:10128600900ADDEFF08E82C007C006121757D0060F
:10129600D0070EBE0800409222900ACDE4F0FFEF80
:1012A60075F009A4FDAEF0245EFBEE3408FC8B82DB
:1012B6008C83E0700302144EED245EFDEE3408FECE
:1012C6008D828E83A3A3A3A3E0F9A3E0FAA3E0FB98
:1012D600A3E0FCB9060BBA0008BB0005BC000280FF
:1012E6000302144E8D828E83A3E0FC900836E4F050
:1012F6008C82C007C006C005120782D005D006D072
:10130600078D828E83A3A3A3E0FE747F5E4490FDC7
:10131600EE30E7047EC080027E00900838EEF09042
:101326000839E4F0A3F08D82C0071207D2E582D017
:10133600076003021426EF75F009A4245EFD740805
:1013460035F0FE74032DFBE43EFC8B828C83E0FAC1
:101356006302808B828C83EAF0900ACCE5D1F0E0C0
:10136600FAE070030214268A017A008D828E83A326
:10137600A3A3A3E0F88B828C83E0FB53037F8D82CB
:101386008E83A3E0900D7CF0E4A3F0900112C007D9
:10139600C003C002C001C000122A05AD82AE83D0D0
:1013A60000D001D002D003D007ED24A6F582EE349A
:1013B60008F583E0F537ED24A6FDEE3408FE8D82B0
:1013C6008E83A3A3A3A3E0F53874082DF582E43E2B
:1013D600F583E0FC740C2DF582E43EF583E0FE9087
:1013E6000D4DE9F0EAA3F0900D4FE8F0900D50EFA7
:1013F600F0900D51EBF0900D527400F07400A3F0D4
:10140600900D54E537F0900D55E538F0900D56ECFB
:10141600F0900D57EEF0758204C0071226D7D0075C
:10142600EF75F009A4245EFD740835F0FE74082DEE
:10143600F582E43EF583E0FE900ACDE0FDC39E40D2
:10144600028D06900ACDEEF00FBF0800500302127F
:10145600A5900ACDE0FF7E008F828E830205E3AF62
:1014660083E582900AD1F0EFA3F0900AD3E4F0A3CB
:10147600F0900AD5F0900AD6F0900AD1E0F51BA3B9
:10148600E0F51CAC1BAD1C900AD0E075F009A42455
:101496005EFA740835F0FB900ACEE0F519A3E0F584
:1014A6001A900AD3E0F515A3E0F516C3E5159519CC
:1014B600E516951A400122C002C003E515251BF565
:1014C60082E516351CF583E0FB900AD774FC5BF0C9
:1014D60074035BF515900AD8F0900AD9E4F0A3F0EE
:1014E600A3F0A3F07403B515028006D003D00280E2
:1014F6000BD003D002900AD8E51504F0900AD3E089
:10150600F515A3E0F516900AD8E0F517751800C38F
:10151600E5189517505AC002C003AA15AB160ABAA9
:1015260000010BA8187900E82AFAE93BFBEA2CF53A
:1015360082EB3DF583E0F8E4FAFBE518C40354F8C2
:10154600FF8FF005F0800CE828F8E933F9EA33FA62
:10155600EB33FBD5F0F1900AD9E048F0A3E049F06F
:10156600A3E04AF0A3E04BF00518D003D002809F19
:10157600900AD5E0FF900AD7E0FEE4BEC00104F56C
:101586001879008F15751600E5186008751D017528
:101596001E008005E4F51DF51EC002C003E515C357
:1015A600951DF8E516951EFB89027E00C3EA98EEA6
:1015B60064808BF063F08095F0D003D0025003096D
:1015C60080C1900AD7E0FFBF04028062BF08028094
:1015D60077BF1403021732BF1803021732BF240362
:1015E600021732BF2803021732BF3403021732BF75
:1015F6004403021732BF6403021732BF7403021793
:1016060032BF8003021732BF8403021732BF900332
:10161600021732BF9403021732BFA003021723BF7B
:10162600B003021732BFC00302172C021732900A0A
:10163600D9E0A3E0F9A3E0FEA3E0FFC3E994FFEE3F
:101646009400EF9400021732900AD6E07032C0047C
:10165600C00574042AFEE43BFF900AD9E0F8A3E033
:10166600F9A3E0FCA3E0FD8E828F83E8F0E9A3F006
:10167600ECA3F0EDA3F0900AD67401F0D005D004E7
:10168600900AD9E0F8A3E0F9A3E0FEA3E0FFC37453
:101696003898E499E49EE49F5003021732E8240A3E
:1016A60083F582E8243D83F583E4733232323232A5
:1016B6003232323232323232323232323232323204
:1016C60032323232323232323232323232323232F4
:1016D60032323232323232323232323232323232E4
:1016E6003232323217171717171717171717171718
:1016F6001717171717171717171717171717171774
:101706001717171717171717171717171717171763
:1017160017171717171717171717171717900AD529
:10172600E02401F08006900AD5E014F0900AD8E093
:10173600FF7E000FBF00010E900AD3E0F8A3E0F988
:10174600EF28F8EE39F9900AD3E8F0E9A3F002148D
:10175600A7E582900ADEF09008497408F09034ED0F
:10176600120CAD900ADEE075F009A4245EFE740842
:1017760035F0FF8E828F83A3A3E0900104F09001E1
:10178600067401F0900ADDE0900629F090083E7498
:10179600DFF0740AA3F0E4A3F0900841F0A3F09000
:1017A60006290209919008497408F09034FD120C3C
:1017B600AD900AE1E0900102F090083E74E2F07408
:1017C6000AA3F0E4A3F0900841F0A3F090062902E2
:1017D6000991E582900AE4F09008497408F0903483
:1017E600E5120CAD900AE4E075F009A4245EFE74DF
:1017F6000835F0FF74022EFEE43FFF8E828F83E0F1
:10180600900104F090083E74E5F0740AA3F0E4A396
:10181600F0900841F0A3F0900629C007C00612090F
:10182600919008497408F09034F5120CADD006D0AA
:10183600078E828F83E0900104F0900106E4F09019
:1018460001077402F090083E74E5F0740AA3F0E410
:10185600A3F0900841F07402A3F0900629120991B2
:10186600E582FF60038F82227E007F00900AE5E01A
:10187600FCA3E0FDC3EE9CEF9D50070EBE00ED0FEE
:1018860080EA900AE4E0FF75F009A4245EFB740880
:1018960035F0FE8B828E83A3A3E0FA8B828E83A320
:1018A600E0FE900D46ECF0EDA3F0900D48EFF090C1
:1018B6000D49EAF0900D4AEEF0900D4B7429F07444
:1018C60006A3F0758207C0071226D6D007900AE550
:1018D600E0FDA3E0FE900ACEEDF0EEA3F0900AD074
:1018E600EFF090062912146575820022222222E565
:1018F60082900AEBF0900CEEE4F0A3F0900CF0F07E
:10190600900AEBE0FF75F009A42429FD740835F070
:10191600FE8D828E83A3E0FE900638E0FD900637AA
:10192600E0FCED70030219BD8D82C007C006C0043D
:10193600120DB7900629120F30D004D006D00790AA
:1019460008517429F07406A3F0900853E4F0740269
:10195600A3F0900855EFF0900629C007C006C00412
:10196600120E29E582D004D006D007604A900D7C7D
:10197600EFF0E4A3F0900112C006C004122A05ADF0
:1019860082AF83ED24A6FDEF3408FF74912DFDE4AC
:101996003FFF7B00900D707429F07406A3F0E4A35A
:1019A600F0900D737480F0E4A3F08D828F838BF03A
:1019B600122928D004D006EC7003021A478C82C084
:1019C60006120DB7900629120F30D006900AEBE0EA
:1019D600FF9008517429F07406A3F0900853E4F0C0
:1019E6007402A3F0900855EFF0900629C007C006D0
:1019F600120E29E582D006D0076046900D7CEFF0E6
:101A0600E4A3F0900112C006122A05AD82AF83ED61
:101A160024A6FDEF3408FF74102DFDE43FFF7C0083
:101A2600900D707429F07406A3F0E4A3F0900D7382
:101A36007480F0E4A3F08D828F838CF0122928D075
:101A460006C006120F66AF82D006EF60038F8222B1
:101A560090062BE0FF7D0090062CE0FBE42FFFEBC9
:101A66003DFD900AEBE0FC0C900D46EFF0EDA3F087
:101A7600900D48EEF0900D49ECF0900D4A74AAF0E6
:101A8600900D4B7429F07406A3F07582061226D6C3
:101A96007E007F0090062BE0FD7C0090062CE0FA8D
:101AA600E42DFDEA3CFC8E028F03C3EA9DEB9C50BD
:101AB600070EBE00DF0F80DC90062EE0F582120DC9
:101AC6008890062BE0FF7E0090062CE0FCE4FD2FBC
:101AD600FFEC3EFE7C00C3EC9FED9E501FEC24EE17
:101AE600FAED340AFBEC2429F582ED3406F583E0A1
:101AF6008A828B83F00CBC00DD0D80DA900629E02B
:101B0600900AECF0E4A3F0900AEBE0F53C853C3D4E
:101B1600900AECE0FAA3E0FBC3EA9FEB9E400302C7
:101B26001D36EA24EEFAEB340AFB900CF1EAF0EBF0
:101B3600A3F08A828B83A3E0F9B90402801AB9055F
:101B460002807CB92103021CABB92403021CDCB958
:101B56002503021CED021CFE8A008B01900CEEE8A8
:101B6600F0E9A3F0900AE7E8F0E9A3F0853C82C02B
:101B760007C006C001C0001218F2D000D001D0067E
:101B8600D00788828983A3A3A3A3A3E0FCBC031E7A
:101B9600740628F582E439F583E0FCBC011074076D
:101BA60028F582E439F583E0F9B901028004C2011F
:101BB6008002D201900CF0A201E433F0021D0D8ADE
:101BC600828B83C007C006C003C002120F30D0024A
:101BD600D003D006D007900CF0E07003021D0D8AEA
:101BE600008B01740228F539E439F53A8539828586
:101BF6003A83E020E703021D0D753B00E53B75F0D7
:101C060009A4245EFC740835F0FD8C828D83E060A7
:101C160008053B74F8253B50E3C007C006E53B7555
:101C2600F009A4245EFD740835F0FF74032DF53E1B
:101C3600E43FF53F853982853A83E0853E82853FDC
:101C460083F08D828F837401F0042DF53EE43FF519
:101C56003F900CEEE0FCA3E0FE8C828E83A3A3E013
:101C6600853E82853F83F08D828F83A3E53DF074A8
:101C7600082DFDE43FFF740628F582E439F583E07C
:101C8600FE8D828F83F0853B82C007C0061217D86F
:101C9600900AE1E4F0853B821217ABD006D007D05C
:101CA60006D0078062900CEEE0FCA3E0FD900CEEFF
:101CB600E0F5F0A3E045F0604E8A008B01900AE95A
:101CC600E8F0E9A3F08C828D83C007C0061218F3F2
:101CD600D006D00780318A828B83C007C006120FD8
:101CE60030D006D00780208A828B83C007C00612B8
:101CF6000F30D006D007800F8A828B83C007C006BC
:101D0600120F30D006D007900CF1E0FCA3E0FD8C5A
:101D1600828D83E0FC900AECE0FBA3E0FD7A00EC08
:101D26002BFBEA3DFD900AECEBF0EDA3F0021B164F
:101D360075820022E582900CF4F0E02404FF9008FE
:101D4600497408F0903515C007120CAD900CF3E0FD
:101D5600FE900104F090083EE4F0A3F0A3F0900892
:101D660041F0A3F0900000C006120991AD82D006A2
:101D7600D007ED60038D8222900032C007C00612A4
:101D860005E39008497408F090351D120CADD00695
:101D9600900104EEF090083E74F5F0740CA3F0E4A4
:101DA600A3F09008417404F0E4A3F0900629C0065D
:101DB600120991AD82D006D007ED60038D82229084
:101DC600062AE030E1047D0180027D009008497416
:101DD60008F0903525C007C006C005120CADD00529
:101DE600D0069001027414F0900104EEF090083EC3
:101DF600E4F0A3F0A3F0900841F0A3F0900000C037
:101E060006C0051209917582001206BBD005D006E0
:101E1600D007ED600843E24043D280800653E2BF1C
:101E260053D27F9006287408F0C007C006C005127A
:101E36000CE3AC82D005D006D007EC60038C82227E
:101E4600C005900CF4E0F542900D7CF0E4A3F09010
:101E56000112C007C006C005122A05AA82AB83D0AC
:101E660005D006D007EA24A6F540EB3408F54190E4
:101E76000631E0F879007C007D008540828541834B
:101E8600E8F0E9A3F0ECA3F0EDA3F0EA24A6FAEB60
:101E96003408FB74042AF540E43BF541900632E031
:101EA600F87900854082854183E8F0E9A3F0ECA348
:101EB600F0EDA3F074082AF540E43BF541900633B3
:101EC600E0F87900854082854183E8F0E9A3F0ECEB
:101ED600A3F0EDA3F0740C2AFAE43BFB900634E081
:101EE600F87D008A828B83E8F0E9A3F0ECA3F0ED9D
:101EF600A3F08F82C007C006C005120D3D85824043
:101F0600D005D006D007D005E54060048540822282
:101F1600E54275F009A42429FB740835F0FC8B8290
:101F26008C83A3EFF074022BFBE43CFCED60047A97
:101F36000080027A018B828C83EAF0900CF4E0FC3C
:101F460075F009A42429FA740835F0FB8A828B837C
:101F5600A3A3A3EDF074072AF582E43BF583EFF023
:101F660074082AF582E43BF583EEF08C820218F5BC
:101F7600E582900CF7F0900CFCE4F0120F66E58217
:101F8600FF60038F822290062EE0FF90062BE0FE74
:101F96007D0090062CE0FBE42EFEEB3DFD9006292D
:101FA600E0900CFAF0E4A3F0900CFAE0FBA3E0FC5E
:101FB600C3EB9EEC9D5056EB2429FBEC3406FC90BB
:101FC6000CFDEBF0ECA3F08B828C83A3E0FABA0550
:101FD600128B828C83A3A3E0FC30E707900CFCEC09
:101FE600F0802A900CFDE0FBA3E0FC8B828C83E062
:101FF600FB900CFAE0FAA3E0FC8B017B00E92AFADD
:10200600EB3CFC900CFAEAF0ECA3F0809B8F82127A
:102016000D88E582FF60038F82229008497408F0DC
:10202600903505120CAD90083E74F8F0740CA3F0D0
:10203600E4A3F0900841F07402A3F0900629120977
:1020460091E582FF60038F822290062BE0FF7E01DE
:10205600C3EF9E40359008497408F090350DC007CF
:10206600C006120CADD006900104EEF090083EE4D6
:10207600F0A3F0A3F0900841F0A3F0900000C00692
:10208600120991D006D0070E80C6900064C00712D0
:1020960005E3D007900CF7E075F009A42429FD7438
:1020A6000835F0FE8D828E83A3A3A3A37401F0747A
:1020B600052DFBE43EFC900CFCE08B828C83F074D7
:1020C600062DF582E43EF583EFF074072DF582E4E4
:1020D6003EF583E4F074082DF582E43EF583E4F0E2
:1020E6007E01C3EF9E40589008497408F090351D54
:1020F600C007C006120CADD006900104EEF09008A1
:102106003E74F8F0740CA3F0E4A3F0900841740454
:10211600F0E4A3F0900629C006120991E582D006E4
:10212600D0077018900629E030E011900CF7E0FD1A
:10213600900CF3EEF08D82121D3A80030E80A3758B
:10214600820022E582900CFFF0E0FF7E00EE75F043
:1021560009A4FCADF0245EFAED3408FB8A828B8379
:10216600E0604BEC245EFCED3408FD74012CFAE4CF
:102176003DFB8A828B83E0B507348C828D83E4F045
:102186008A828B83F08C828D83A3A3F08C828D83CD
:10219600A3A3A3F08C828D83A3A3A3A3F0A3F0A390
:1021A600F0A3F074082CF582E43DF583E4F00EBE4E
:1021B60008004099900CFFE075F009A42429FE74EC
:1021C6000835F0FF74072EF582E43FF583E4F074DA
:1021D600082EF582E43FF583E4F08E828F83A3A375
:1021E600A3F02290082DE070012290082EE0FF70E7
:1021F6000122758202C0071206BBD00753E2BF5305
:10220600D27F747F5F4490FEEF30E7047FC0800288
:102216007F00900838EFF0900839E4F0A3F08E8242
:102226001207D2E58260012290082EE06480F0AEAB
:10223600D17F00900D01EEF0EFA3F0EE4F7001227A
:10224600900000E0FF900D007401F0FE90082FE072
:10225600C39E5001228EF005F07C017D008006ECC5
:102266002CFCED33FDD5F0F78F027B00EA5204EB30
:102276005205EC4D70030223319008497408F09022
:10228600351DC007C006120CADD006900104EEF055
:1022960090083E7401F0740DA3F0E4A3F090084199
:1022A6007404F0E4A3F0900629C006120991E582B1
:1022B600D006D0077075900629E0FD90062BE03019
:1022C600E0699008497408F0903525C006C00512EB
:1022D6000CADD005D0069001027410F0900104EE0A
:1022E600F090083EE4F0A3F0A3F0900841F0A3F0CC
:1022F600900000C006C005120991D005D006ED3049
:10230600E011900830E0700B900CF3EEF07582004F
:10231600021D3AED20E01D900831E0FD900D00E031
:10232600FCEDB5040F7582000221490E900D00EEFA
:10233600F002225222E582900D03F0900D04E4F0A3
:10234600900D03E0FFFEFD75F009A4F54485F04508
:102356008F49754800900064C007C006C005120585
:10236600E39000641205E3854982121032854982A2
:102376001206E1D005D006D0077800900001C0070C
:10238600C006C005C0001205E3D000D005D006D0B7
:10239600078F82C007C006C005C00012070DE58280
:1023A600D000D005D006D007600608B8640040CB40
:1023B600B864148F82C007C006C005120620D00577
:1023C600D006D00702257F900836E4F08E82C0073B
:1023D600C006C005120782120CE3A882D005D006FB
:1023E600D007900D04E8F0E86003022532C005909E
:1023F600062DE0F543900D7CEEF0E4A3F09001127B
:10240600C007C006122A05A882AD83E824A6F546B1
:10241600ED3408F547900631E0F97A007B007C0040
:10242600854682854783E9F0EAA3F0EBA3F0ECA3A7
:10243600F0E824A6F8ED3408FD740428F546E43DDA
:10244600F547900632E0F97A00854682854783E9AA
:10245600F0EAA3F0EBA3F0ECA3F0740828F546E449
:102466003DF547900633E0F97A0085468285478335
:10247600E9F0EAA3F0EBA3F0ECA3F0740C28F8E47F
:102486003DFD900634E0F97C0088828D83E9F0EA10
:10249600A3F0EBA3F0ECA3F0900629C005120F30D1
:1024A600D005D0069034CFE4932EF546854682C0FB
:1024B60006120D3DAD82D006D007900D04EDF0ED6D
:1024C600D0057068EE75F009A42429FB740835F070
:1024D600FC8B828C83A3E546F08B828C83A3A3A31B
:1024E600E4F07409B543278B828C83A3A37401F0AF
:1024F6008E82C007C006C005121F76AC82D005D0FA
:1025060006D007900D04ECF0EC7021F582228E8245
:10251600C007C006C0051218F5AC82D005D006D09B
:1025260007900D04ECF0EC7003F582228D040C90FC
:102536000D04E0FB900D46E4F0A3F0900D48ECF09E
:10254600900D49EBF0900D4A74EEF0900D4BE4F0CF
:10255600A3F0758203C007C006C0051226D6E5445F
:102566002429F582E5453408F5837402F075820165
:102576001206CDD005D006D007054874F62548408A
:102586000302235B900D04E0F58222900D05E4F032
:1025960010D803022627E5DB30E349900829E060DE
:1025A60008E5E430E0030226277582001206209033
:1025B60008297401F0900D46E4F0A3F0900D48044C
:1025C600F0900D49F0900D4AF0900D4BE4F0A3F019
:1025D6007582011226D675820012233BE582900D84
:1025E60005F0803D900829E0FFBF01004033758269
:1025F60000121032758200120620900D46E4F0A3F8
:10260600F0900D4804F0900D49F0900D4AF0900DB1
:102616004BE4F0A3F07582021226D6900D057416CF
:08262600F0900D05E0F58222A1
:1034B50080060001000012008006000200001200D4
:1034C500810600040000090000050200000000005C
:1034D5008006000309040200000900000000000046
:1034E500210A000000000000210900020000000080
:1034F500810600220000FF00210B000000000000F3
:10350500A006002900004000230308000100000078
:103515002303040001000000A300000001000400D3
:10352500230100000100000030782530326C782539
:1035350030326C783A30782530326C782530326C00
:0B3545007800202D2025732025730046
:013563000067
:10262E0010980122AF99BF0A02800D900DB6E0FE00
:10263E00BE040050030226C0900D06E0FDBDC91772
:10264E009000551205611211099000561205619005
:10265E00000A120561804FBDC4119000451205613C
:10266E0012118590000A120561803BBDD6209000A4
:10267E00571205619000821205619000811205616A
:10268E0090008112056190000A1205618018BDD27A
:10269E000512006A8010BDCC0D900D07E0FD5305AC
:1026AE001F8D82121226900DB6E4F0900D06F002E8
:1026BE00262EEE2406F582E4340DF583EFF0900D10
:1026CE00B6E02401F002262E22E582900D58F090FD
:1026DE000D5974FEF0E4A3F0900D58E0FFBF040214
:1026EE00800122900D4FE0FFBF0602800122900074
:1026FE00FE120561900D52E0FEA3E0FF900D4DE03D
:10270E00FCA3E0FD7A007B00C3EA9CEB9D5031C038
:10271E0004C005EA2EF582EB3FF583E0F9900D59E2
:10272E00E0F8A3E0FD7C00E928F8EC3DFD900D59A2
:10273E00E8F0EDA3F00ABA00010BD005D00480C872
:10274E00900D59E0FAA3E0FB740A2AFAE43BFB90E1
:10275E000D59EAF0EBA3F08E028F030EBE00010FAF
:10276E00900D59E0F8A3E0C3E4988E828F83F07E3B
:10277E00007F00C3EE9CEF9D5032EE2AF582EF3BB8
:10278E00F583E0F8790088828983C007C006C0050A
:10279E00C004C003C002120561D002D003D004D021
:1027AE0005D006D0070EBE00CA0F80C790000A02E1
:0227BE000561B3
:08355000AA5556455202010183
:013564000066
:1027C000AF82AE83ADF0FC900D5FEFF0EEA3F0EDC5
:1027D000A3F0ECA3F0900D63E4F0A3F0A3F0A3F05A
:1027E000900D5BE0FCA3E0FDA3E0FEA3E0FF7B20F7
:1027F000C003900D5FE0F8A3E0F9A3E0FAA3E0FBCB
:10280000900D67235401F0E828F8E933F9EA33FA28
:10281000EB33FB900D5FE8F0E9A3F0EAA3F0EBA344
:10282000F0900D63E0F8A3E0F9A3E0FAA3E0FBE881
:1028300028F8E933F9EA33FAEB33FB900D63E8F05B
:10284000E9A3F0EAA3F0EBA3F0D003900D67E060FA
:1028500008900D63E043E001F0900D63E0F515A3EF
:10286000E0F516A3E0F517A3E0F518C3E5159CE520
:10287000169DE5179EE5189F401F900D63E515C353
:102880009CF0E5169DA3F0E5179EA3F0E5189FA325
:10289000F0900D5FE043E001F01BEB60030227F0D6
:1028A000900D5FE0FCA3E0FDA3E0FEA3E08C828D31
:0428B000838EF02201
:06003700E478FFF6D8FD9D
:1028B400AFF0AE83E582900D6DF0EEA3F0EFA3F0E0
:1028C400900D6DE0F515A3E0F516A3E0F517AA1534
:1028D400AB16AC17900D68E0F8A3E0F9A3E0FF9005
:1028E4000D6BE0F518A3E0F519AD18AE19151874C1
:1028F400FFB518021519ED4E6020888289838FF088
:10290400123495FEA3A882A9838A828B838CF0EE6D
:102914001229EAA3AA82AB8380CF85158285168308
:042924008517F02201
:100015007902E94400601B7A0190356378B575A0D3
:100025000DE493F2A308B8000205A0D9F4DAF2753D
:02003500A0FF2A
:10292800AFF0AE83E582900D75F0EEA3F0EFA3F063
:10293800900D75E0FDA3E0FEA3E0FF900D78EDF0AB
:10294800EEA3F0EFA3F0900D73E0FBA3E0FC900D75
:1029580070E0F8A3E0F9A3E0FAEB4C6034888289D0
:10296800838AF0123495F51560271BBBFF011C08FC
:10297800B80001098D828E838FF0E5151229EAA32C
:10298800AD82AE83900D75EDF0EEA3F0EFA3F0806D
:10299800C8900D75EDF0EEA3F0EFA3F08B018C025B
:1029A8001BBBFF011CE94A601C8D828E838FF0E4FB
:1029B8001229EAA3AD82AE83900D75EDF0EEA3F077
:1029C800EFA3F080D7900D75EDF0EEA3F0EFA3F034
:1029D800900D78E0FDA3E0FEA3E0FF8D828E838F4B
:1029E800F02220F71130F6138883A88220F509F623
:1029F800A8837583002280FEF280F5F022AA83ABBB
:102A0800828BF0900D7CE0A4F8A9F08AF0E0A4296C
:0D2A1800F98BF0A3E0A429F5838882222227
:10003D007800E84400600A790075A006E4F309D859
:10004D00FC78B5E84407600C7908900600E4F0A34D
:04005D00D8FCD9FAF8
:02000600E473A1
:102A2500C0148581147E008E83120561D01422AFF7
:102A3500F0AE83E582900D7FF0EEA3F0EFA3F0906A
:102A45000D7FE0FDA3E0FEA3E0FF900D7EE0FC908E
:102A55000D93E4F0A3F0A3F0900D96EDF0EEA3F046
:102A6500EFA3F0900D99ECF0902A25022B79C01474
:102A7500E581F51424FBFF900D93E4F0A3F0A3F09A
:102A8500E51424FBF8900D96E6F008E6A3F008E6B9
:102A9500A3F0900D99EFF0902A25122B79D01422EE
:102AA500E582900D8FF0E0FF900D85E0C0E0A3E09A
:102AB500C0E0A3E0C0E0122AC0800D900D83E0C005
:102AC500E0A3E0C0E08F8222158115811581900D6C
:102AD5008DE02401F0A3E03400F022E582900D9012
:102AE500F0E02430FF24C6500D74072FFF900D82AF
:102AF500E060034307208F82022AA5E582900D91AD
:102B0500F0E0FFC4540FF582C007122AE0D0075346
:102B1500070F8F82022AE0E582900D92F0900D88D2
:102B2500E0FCA3E0FDA3E0FEA3E0FF900D8CE0FB3D
:102B3500900D92E0FA79208B00E828F515EF2354E3
:102B4500014515FBEC2CFCED33FDEE33FEEF33FFB9
:102B5500C3EB9A4007EBC39AFB43040119E970D70D
:102B6500900D88ECF0EDA3F0EEA3F0EFA3F0900D3F
:102B75008CEBF022AF83E582900D9AF0EFA3F090F5
:102B85000D9AE0FEA3E0FF900D83EEF0EFA3F09029
:102B95000D93E0FDA3E0FEA3E0FF900D85EDF0EEC3
:102BA500A3F0EFA3F0900D8DE4F0A3F0900D96E067
:102BB500FDA3E0FEA3E0FF8D828E838FF012349596
:102BC500FC900D9674012DF0E43EA3F0EFA3F0EC1C
:102BD5007003023471BC25028003023469900D9C98
:102BE500E4F0900D9DF0900D9EF0900D9FF0900DEE
:102BF500A0F0900DA1F0900DA2F0900DA3F0900D16
:102C0500A5F0900DA6F0A3F0900DA814F0A3F090F8
:102C15000D96E0FDA3E0FEA3E0FF8D828E838FF08D
:102C2500123495FBA3AD82AE83900D96EDF0EEA325
:102C3500F0EFA3F0900DACEBF0BB25088B82122AC8
:102C4500A5022BB1BB30005003022D12EB24C65058
:102C550003022D12900DA8E0F50AA3E0F50B74FF11
:102C6500B50A63B50B60C005C006C007900DA6E0A8
:102C7500FAA3E0FF900D7CEAF0EFA3F090000AC004
:102C850005C003122A05AE82AF83D003D0058B059C
:102C95007A00ED2EFEEA3FFFEE24D0FEEF34FFFF73
:102CA500900DA6EEF0EFA3F0D007D006D005900D5D
:102CB500A6E0F5F0A3E045F06003022C1F900D9D02
:102CC5007401F0022C1FC005C006C007900D7CE5FD
:102CD5000AF0E50BA3F090000AC006C005C0031278
:102CE5002A05AA82AF83D003D005D0067E00EB2A41
:102CF500FAEE3FFFEA24D0FAEF34FFFF900DA8EA81
:102D0500F0EFA3F0D007D006D005022C1F900DAC34
:102D1500E0FBBB2E2FC005C006C007900DA8E0FA4A
:102D2500A3E0FFBAFF05BFFF028009D007D006D098
:102D350005022C1FD007D006D005900DA8E4F0A3FE
:102D4500F0022C1FBB61004014EB2485400F900D51
:102D5500AC74DF5BF0900D827401F08005900D82FC
:102D6500E4F0900DACE0FBBB20028075BB2B02802C
:102D750067BB2D028059BB4202806FBB4302807C3A
:102D8500BB4403023009BB460302302FBB48030294
:102D95002C1FBB4903023009BB4A03022C1FBB4C45
:102DA500028050BB4F03023017BB5003022F77BB85
:102DB50053028077BB5403022C1FBB550302301FFF
:102DC500BB5803023027BB5A03022C1F0230379031
:102DD5000D9C7401F0022C1F900D9E7401F0022CC5
:102DE5001F900D9F7401F0022C1F900DA17401F02E
:102DF500022C1F900DA27401F0022C1F900DA1E072
:102E0500600E900D99E014F9F0900DACE7F0800F8D
:102E1500900D99E024FEFFF08F01900DACE7F09046
:102E25000DACE0F582122AA5023046900D99E024FA
:102E3500FDFFF08F01870509870609870719199096
:102E45000D88EDF0EEA3F0EFA3F08D828E838FF069
:102E550012347D85820A85830B900DA8E0FAA3E0E4
:102E6500FDBAFF0DBDFF0A900DA8E50AF0E50BA31D
:102E7500F0900D9CE0704B900DA6E0FAA3E0FDC329
:102E8500E50A9AE50B9D503A900DA6EAC3950AF01E
:102E9500ED950BA3F0900DA6E0FAA3E0FD8A068D53
:102EA500071ABAFF011DEE4F6010758220C005C0DC
:102EB50002122AA5D002D00580E3900DA6EAF0ED16
:102EC500A3F0900DA8E0F50DA3E0F50E900D88E0B8
:102ED500FAA3E0FDA3E0FF8A828D838FF01234957B
:102EE500F50C603CC3E4950D7480850EF063F080AD
:102EF50095F0502C150D74FFB50D02150E850C823D
:102F0500122AA5900D88E0FAA3E0FDA3E0FF0ABA16
:102F150000010D900D88EAF0EDA3F0EFA3F080AC71
:102F2500900D9CE07003023046900DA6E0FEA3E0F4
:102F3500FFC3E50A9EE50B9F4003023046900DA6B0
:102F4500EEC3950AF0EF950BA3F0900DA6E0FEA356
:102F5500E0FF8E028F051EBEFF011FEA4D700302C2
:102F6500303E758220C007C006122AA5D006D007BC
:102F750080E0900D99E024FDFDF08D01870F098714
:102F8500100987111919900D88E50FF0E510A3F0C8
:102F9500E511A3F0900D8AE0FDBD80004008900D7D
:102FA500AC7443F08020BD60004008900DAC7450B7
:102FB500F08013BD40004008900DAC7449F08006C8
:102FC500900DAC7458F0900DACE0FDF582C0051283
:102FD5002AA575823A122AA5758230122AA575820C
:102FE50078122AA5D005BD4902800EBD5002800980
:102FF500900D89E0F582122B00900D88E0F5821284
:103005002B00803D900DA07401F0900DA5740AF081
:10301500802F900DA57408F08027900DA5740AF0F7
:10302500801F900DA57410F08017900DA37401F00A
:10303500800F8B82122AA58008900DA6EEF0EFA3D3
:10304500F0900DA3E06071900D99E024FCFFF08FE6
:103055000187030987050987060987071919199043
:103065000D88EBF0EDA3F0EEA3F0EFA3F0900D8843
:103075007458F07435A3F07480A3F0900D88E0F5D2
:103085000FA3E0F510A3E0F5117401250FFAE4355F
:1030950010FBAF11900D88EAF0EBA3F0EFA3F085DC
:1030A5000F828510838511F0123495FF7003022B72
:1030B500B18F82122AA580C3900DA5E07003022B63
:1030C500B1900DA1E06047900D99E014F9F08707E4
:1030D5007E007D007B00900D88EFF0EEA3F0EDA360
:1030E500F0EBA3F0900DA0E06003023189900D880C
:1030F500E0FBA3E0A3E0A3E07D007E007F00900D50
:1031050088EBF0EDA3F0EEA3F0EFA3F08076900D41
:10311500A2E06028900D99E024FCFFF08F01870361
:10312500098705098706098707191919900D88EB7D
:10313500F0EDA3F0EEA3F0EFA3F08048900D99E039
:1031450024FEFFF08F01870609870719EF3395E005
:10315500FDFB900D88EEF0EFA3F0EDA3F0EBA3F0EF
:10316500900DA0E0701E900D88E0FBA3E0FDA3E0AC
:10317500A3E07E007F00900D88EBF0EDA3F0EEA3B9
:10318500F0EFA3F0900DA0E0603D900D88E0A3E086
:10319500A3E0A3E030E72B900D88E0FBA3E0FDA3BF
:1031A500E0FEA3E0FFC3E49BFBE49DFDE49EFEE49B
:1031B5009FFF900D88EBF0EDA3F0EEA3F0EFA3F0E9
:1031C5008005900DA0E4F0900DA47401F0900DA57C
:1031D500E0F50D7512B275130DE4F50AF50B900DBA
:1031E5008CE4F0850D82122B1C900DA4E0703390B9
:1031F5000D8CE0C454F0F50F900D8CE0C4540F45D0
:103205000FF50F851282851383E0FFE50F420785D1
:103215001282851383EFF0151274FFB51202151390
:10322500800B900D8CE0851282851383F0050AE4EE
:10323500B50A02050B900DA4E0B40100E433F0904B
:103245000D88E0FAA3E0FBA3E0FEA3E0FFEA4B4E06
:103255004F708B900DB3E512F0E513A3F0900DAA16
:10326500E50AF0E50BA3F0900DA6E0F5F0A3E04527
:10327500F07009900DA67401F0E4A3F0900D9DE0A7
:10328500FFE07047900D9CE07041850A12850B1395
:10329500900DA6E0FAA3E0FBC007AF120F8F067FE3
:1032A50000C3EE9AEF9BD0075019758220C007C066
:1032B50003C002122AA5D002D003D0071ABAFF0113
:1032C5001B80D5900DA6EAF0EBA3F0900DA0E06071
:1032D5002075822DC007122AA5D007900DA6E024DF
:1032E500FFFDA3E034FFFE900DA6EDF0EEA3F08008
:1032F50056900DAAE0F5F0A3E045F0604A900D9ECA
:10330500E0602075822BC007122AA5D007900DA674
:10331500E024FFFDA3E034FFFE900DA6EDF0EEA343
:10332500F08024900D9FE0601E758220C007122A50
:10333500A5D007900DA6E024FFFDA3E034FFFE9085
:103345000DA6EDF0EEA3F0900D9CE07044900DAA53
:10335500E0F512A3E0F513900DA6E0FAA3E0FBC09B
:10336500078A068B071ABAFF011BC3E5129EE513F0
:103375009FD007504FEF60047E3080027E208E8202
:10338500C007C003C002122AA5D002D003D007800F
:10339500CE900DA6E0FEA3E0FF900DAAE0F512A3E6
:1033A500E0F513C3E5129EE5139F500F900DA6EEB1
:1033B500C39512F0EF9513A3F08011900DA6E4F0DC
:1033C500A3F08008900DA6EAF0EBA3F0900DB3E012
:1033D500FEA3E0FF900DAAE0F512A3E0F513AA12F3
:1033E500AD13151274FFB512021513EA4D60449022
:1033F5000DA4E0B40100E433F0900DA4E070130EC9
:10340500BE00010F8E828F83E0C4540F900D8CF0A7
:10341500800E8E828F83E0FD53050F900D8CEDF0AD
:10342500900D8CE0F582C007C006122AE0D006D0C8
:103435000780AB900D9CE07003022BB1900DA6E0C8
:10344500FEA3E0FF8E038F051EBEFF011FEB4D702F
:1034550003022BB1758220C007C006122AA5D0062B
:10346500D00780E08C82122AA5022BB1900D8DE049
:08347500FEA3E08E82F5832224
:0B3558003C4E4F20464C4F41543E00BB
:10347D00AA82AB831234956003A380F8C3E5829AC8
:08348D00F582E5839BF5832223
:0D0008007581491234B1E5826003020003E6
:1034950020F71430F6148883A88220F507E6A88360
:1034A50075830022E280F7E49322E02275820022F0
:00000001FF
