:03000000020008F3
:0300670002000391
:0300030002009266
:10006A00758200120FD5120648900D2FE4F0A3F006
:10007A00900D31F0900D32F0900D33F0900D34F078
:10008A00A3F07582080220601200C3900600740172
:10009A00F0E4A3F090E36075F0161200DB12006A38
:1000AA00E5C120E609850882850983120006121F28
:0900BA00B8121F1B12124280E76C
:060061007508007509F4AA
:1000C30075A15575A1AA53B3E043B30675B2D875AC
:1000D300A1FF9000070205E0AF82AE83ADF0FC9074
:1000E3000602EFF0EEA3F0EDA3F0ECA3F090060010
:1000F300E0F5F0A3E045F0600C43C60143C40843B8
:10010300C50C43CE10C29FD29EC29DD29C43878012
:10011300900602E0FCA3E0FDA3E0FEA3E0FF900D48
:1001230044ECF0EDA3F0EEA3F0EFA3F0908D807517
:10013300F05BE412214AAC82AD830CBC00010DEDEF
:10014300C313CC13CC740F55894420F58943C9A03C
:10015300C3E49CFC8C8DD28ED2992210980280FB32
:1001630085998222E582900606F0E0F5993099FDA3
:10017300D29922E582900609F090060A74C4F074BD
:1001830000A3F07440A3F090060D74BAF07400A3BA
:10019300F07440A3F090061074BCF07400A3F074E4
:1001A30040A3F090061374BEF07400A3F07440A350
:1001B300F090061674C5F07400A3F07440A3F09099
:1001C300061974BBF07400A3F07440A3F090061CEE
:1001D30074BDF07400A3F07440A3F090061F74BFC5
:1001E300F07400A3F07440A3F0900608E0FF24F934
:1001F300500122EF2F2F9001FD7302021202029190
:100203000203100203650203E30204630204E190A4
:100213000609E0FF8FF005F07401800225E0D5F0B8
:10022300FBF452C6EF75F003A4FFAEF0240AF58287
:10023300EE3406F583E0FBA3E0FCA3E0FD8B828CA8
:10024300838DF0122E1FFA900607E0F989F005F06E
:100253007401800225E0D5F0FBF4F952028B828C05
:10026300838DF0EA122374EF2416F582EE3406F53B
:1002730083E0FDA3E0FEA3E0FF8D828E838FF01267
:100283002E1F52018D828E838FF0E9022374900614
:1002930009E0FF8FF005F07401800225E0D5F0FB43
:1002A300F452C6EF75F003A4FFAEF0240AF582EE14
:1002B3003406F583E0FBA3E0FCA3E0FD8B828C8393
:1002C3008DF0122E1FFA900607E0F989F005F074FD
:1002D30001800225E0D5F0FBF9F452028B828C8376
:1002E3008DF0EA122374EF2416F582EE3406F583BB
:1002F300E0FDA3E0FEA3E0FF8D828E838FF0122E3C
:100303001F42018D828E838FF0E9022374900609C8
:10031300E0FF8FF005F07401800225E0D5F0FBF4D7
:1003230052C6EF75F003A4240AF582740635F0F57E
:1003330083E0FDA3E0FEA3E0FF8D828E838FF012A6
:100343002E1FFC900607E0FB8BF005F07401800282
:1003530025E0D5F0FBF442048D828E838FF0EC020E
:100363002374900609E0FF8FF005F07401800225E5
:10037300E0D5F0FB42C6EF75F003A4FFAEF0240A0C
:10038300F582EE3406F583E0FBA3E0FCA3E0FD8BEE
:10039300828C838DF0122E1FFA900607E0F989F004
:1003A30005F07401800225E0D5F0FBF4F952028BCD
:1003B300828C838DF0EA122374EF2416F582EE34D7
:1003C30006F583E0FDA3E0FEA3E0FF8D828E838F1D
:1003D300F0122E1F52018D828E838FF0E902237457
:1003E300900609E0FF8FF005F07401800225E0D547
:1003F300F0FB42C6EF75F003A4FFAEF0240AF582CA
:10040300EE3406F583E0FBA3E0FCA3E0FD8B828CD6
:10041300838DF0122E1FFA900607E0F989F005F09C
:100423007401800225E0D5F0FBF942028B828C83B4
:100433008DF0EA122374EF2416F582EE3406F58369
:10044300E0FDA3E0FEA3E0FF8D828E838FF0122EEA
:100453001FFCE9F452048D828E838FF0EC02237427
:10046300900609E0FF8FF005F07401800225E0D5C6
:10047300F0FB42C6EF75F003A4FFAEF0240AF58249
:10048300EE3406F583E0FBA3E0FCA3E0FD8B828C56
:10049300838DF0122E1FFA900607E0F989F005F01C
:1004A3007401800225E0D5F0FBF9F452028B828CB3
:1004B300838DF0EA122374EF2416F582EE3406F5E9
:1004C30083E0FDA3E0FEA3E0FF8D828E838FF01215
:1004D3002E1F42018D828E838FF0E90223749006D2
:1004E30009E0FF8FF005F07401800225E0D5F0FBF1
:1004F30042C6EF75F003A4FFAEF0240AF582EE3492
:1005030006F583E0FBA3E0FCA3E0FD8B828C838DE7
:10051300F0122E1FFA900607E0F989F005F0740136
:10052300800225E0D5F0FBF942028B828C838DF0AB
:10053300EA122374EF2416F582EE3406F583E0FD08
:10054300A3E0FEA3E0FF8D828E838FF0122E1F4265
:10055300018D828E838FF0E9022374AF83E582904D
:100563000622F0EFA3F010990280FB900622E0FE32
:10057300A3E0FF8E998E828F832210980280FBAEB8
:10058300997F008E828F8322AF83E582900624F0C9
:10059300EFA3F0900624E0FEA3E0FFEE4F603505E5
:1005A300A105A105A105A105A105A105A105A10518
:1005B300A105A105A105A105A105A105A105A10508
:1005C300A105A105A11EBEFF011F900624EEF0EFB9
:1005D300A3F080C7900624EEF0EFA3F022AF83E5EB
:1005E30082900626F0EFA3F0900626E0FEA3E0FF3C
:1005F300EE4F601D9003E8C007C00612058BD006BE
:10060300D0071EBEFF011F900626EEF0EFA3F08079
:10061300DF900626EEF0EFA3F022E58290082CF09F
:10062300E075F003A4FEAFF02429F582EF3408F55A
:1006330083E4F0EE2429FEEF3408FF8E828F83A338
:10064300E4F0F5E422C2EA75E28075E30090244702
:100653007448F090244CE4F0A3F090244E04F0E4AA
:10066300A3F0F5D4F5D675E28975D24075D8FF7538
:10067300820012061D75E10322E58290082DF0E544
:10068300E35480FFE0547F4FF5E322E58290082E88
:10069300F0E0600753E2BF53D27F2243E24022904F
:1006A30006287408F075820012067C758201120612
:1006B3008E74FB55E44402F5E490000F1205E053F9
:1006C300E4FD9000FA12058BC2D822E58290082F30
:1006D300F0E075F003A42429FE740835F0FF8E8240
:1006E3008F83E0FDBD010050078E828F837401F07C
:1006F300E5DB30E347E5E420E03BE5DB30E21D905A
:10070300082FE075F003A42429FE740835F0FF8E4A
:10071300828F83A3A3E4F043E404801990082FE0BD
:1007230075F003A42429FE740835F0FF8E828F83AD
:10073300A3A37401F043E40175820022758216229B
:10074300E582900831F0E075F003A42429FE7408D3
:1007530035F0FF8E828F83A3E0F582C007C00612B7
:10076300067CD006D0078E828F83A3A3E0F5820296
:10077300068EE582900835F0900832E0FF8FD48F23
:10078300D6900836E4F0A3F0900835E0FEC4540F89
:10079300FDBD0103ED8001E4F524E4BD090104FB83
:1007A300900833E0F9A3E0FA8ED5C2D97521C87554
:1007B3002200E5214522602C20D929900001C007A1
:1007C300C006C005C003C002C00112058BD001D012
:1007D30002D003D005D006D007152174FFB521023E
:1007E300152280CE75D50020D9047582FE2220D92A
:1007F300030208EF30DE0475820022E5D9540FF5B9
:1008030023740EB5230474018001E4F52160077499
:10081300204523F58222740AB5230474018001E480
:10082300F8603FE94A700A74204523F52485248241
:1008330022C00389038A04C3EB94FFEC94FFD00323
:10084300500519B9FF011AC003900836E024FFFBD5
:10085300A3E034FFFC900836EBF0ECA3F0D00302E6
:1008630008F2E524700BEB7031BD0D028003020822
:10087300EB30DE04758200227402B5230475820016
:1008830022E5217003E8600774204523F58222E501
:1008930023605C74204523F5822230DE04758200D8
:1008A30022EF600D740BB5230474018001E4FC8016
:1008B3000B7403B5230474018001E4FCEC6004753C
:1008C300820022E5217003E8600774204523F58246
:1008D300227403B52307740BB523028012E523604A
:1008E3000E74204523F582227582FE2275D8FF906F
:1008F300000FC007C006C005C003C002C001120537
:100903008BD001D002D003D005D006D00790083693
:10091300E02401F0A3E03400F0900836E0F8A3E00F
:10092300FCC3E894C8EC940050030207AB75822023
:1009330022AF83E58290083DF0EFA3F090083DE0FD
:10094300FEA3E0FF900841EEF0EFA3F0900838E03B
:10095300FBA3E0FCA3E0FD9000C8C007C006C005F0
:10096300C004C00312058BD003D004D005D006D039
:1009730007EB4C600E8B828C838DF0E4122374A3FF
:1009830012237475D708900832E4F090083374107A
:10099300F07427A3F07582D0C007C006C005C00459
:1009A300C003120775AA82D003D004D005D006D0A5
:1009B30007EA60038A8222C006C00775D6D075D4C1
:1009C300D075D701900107E0FA7900900106E07F26
:1009D300004201EF420290083FE9F0EAA3F0D0079A
:1009E300D006E94A7003020C11EE4F7003020C119A
:1009F300900100E020E703020AEC90083FE0FEA329
:100A0300E0FF4E7003020AE690012CC007C006C047
:100A130005C004C00312058B900832E5D4F090089A
:100A2300337410F07427A3F0758290120775AA82AD
:100A3300D003D004D005D006D007EA60038A82220F
:100A4300A9D17A00C3E99EEA9F5004A9D180048EFC
:100A5300018F02890790083FE0FAA3E0FE8F007F31
:100A630000EAC398FAEE9FFE90083FEAF0EEA3F087
:100A7300EB4C60248B828C838DF0122E1FFAA31211
:100A83002E1FFEE82AF8EF3EFF8B828C838DF0E861
:100A9300122374A3EF122374900841E0FEA3E0FF36
:100AA3007A00C3EA995018EA2EF525E43FF5268A21
:100AB30082758300E0852582852683F00A80E39092
:100AC3000841E0FEA3E0FF900841E92EF0E43FA3D4
:100AD300F0E5D1600E900628E0FFC3E5D19F400307
:100AE3000209FD75D700020C1190083FE0FEA3E058
:100AF300FF4E7003020C119000C8C007C006C0056A
:100B0300C004C00312058BD003D004D005D006D097
:100B130007900628E0F97A00C3EE99EF9A92005005
:100B2300048E018F0289D7900841E0FEA3E0FF9075
:100B33000D51EEF0EFA3F0E4A3F0900D54E5D7F0E0
:100B4300E4A3F0900100F5F0C007C006C005C0049F
:100B5300C00312223ED003D004D005D006D007E54F
:100B6300D72EFEE43FFF900841EEF0EFA3F08E8214
:100B73008F83A3E0FABA091D900D9EE0C0F0F5F053
:100B8300740165F0D0F060027401FA900D9EF08E4E
:100B9300828F83EAF0900832E5D6F0900833741020
:100BA300F07427A3F0758210C005C004C0031207B8
:100BB30075AF82D003D004D005EF60038F8222AFDC
:100BC300D790083FE0FAA3E0FE8F017F00EAC399C4
:100BD300FAEE9FFE90083FEAF0EEA3F0EB4C7003B1
:100BE300020AEC8B828C838DF0122E1FFEA3122E31
:100BF3001FFFA9D77A00E92EFEEA3FFF8B828C8381
:100C03008DF0EE122374A3EF122374020AEC90000A
:100C1300C812058BE5D760047F9080027F1090088F
:100C23003274C0F09008337410F07427A3F08F82ED
:100C3300120775E582FF60038F8222E5D77003F503
:100C43008222E5D17003F5822275821722AF83E5F4
:100C530082900844F0EFA3F0900844E0FEA3E0FF85
:100C6300900843E0FD7C00C3EC9D50168C027B0191
:100C7300EC2EF582E43FF583E4938A828B83F00CB8
:100C830080E5229006287408F0900843F0902E3FE8
:100C9300120C509008387446F07408A3F0E4A3F0E3
:100CA30090083BF07402A3F0900629120934E58200
:100CB300FF60038F8222900630E0900628F0902E8A
:100CC30045E493FF900846E0FDA3E0FE7C00C3EDFE
:100CD3009FEE9C50047582172275820022E5829054
:100CE3000848F09008437408F0902E57120C509067
:100CF3000848E0FF900102F0900838E4F0A3F0A365
:100D0300F090083BF0A3F0900000C007120934AE46
:100D130082D007EE60038E82228F8212067C9000BF
:100D2300641205E075820022E582900849F090087C
:100D3300437408F0902E67120C50900849E090011C
:100D430002F0900838E4F0A3F0A3F090083BF0A37E
:100D5300F0900000020934E58290084AF0900843BD
:100D63007408F0902E5F120C5090084AE0FF900137
:100D730002F0900838E4F0A3F0A3F090083BF0747D
:100D830002A3F0900629C007120934AE82D007EE01
:100D930060038E82229008437408F0902E5FC00790
:100DA300120C50D007900102EFF0900629E0900159
:100DB30006F0900838E4F0A3F0A3F090083BF07439
:100DC30002A3F0900629020934AF83E5829008500C
:100DD300F0EFA3F0900850E0FEA3E0FF8E828F8334
:100DE300E07C0024FEFDEC34FFA2E713CD13CD8E8F
:100DF300828F83A3E0FCBC030280047582002290EF
:100E0300084DE0F529A3E0F52A90084BE0F52DA362
:100E1300E0F52E852D27852E287800C3E89D507098
:100E2300C005AC29AD2AEC24FFF52BED34FFF52CDE
:100E330088037D00C3EB952BED952CD0055051C055
:100E43000588037C00EB2BFBEC33FC74032BFAE4E7
:100E53003CFDEA2EFAED3FFD8A828D83E0D00560EA
:100E63000FE82527F582E43528F583743FF0801DCC
:100E7300E8252DF9E4352EFA74022BFBE43CFCEB58
:100E83002EF582EC3FF583E089828A83F008808B1C
:100E9300E8252DF582E4352EF583E4F0FF90084F25
:100EA300E0FE0E900D2FEDF0EFA3F0900D31EEF07C
:100EB300900D327434F0900D337456F0900D34E588
:100EC3002DF0E52EA3F075820512206075820122B4
:100ED300AF83E582900852F0EFA3F0900852E0FE52
:100EE300A3E0FF7C007D008E828F83E0FB7A00C34A
:100EF300EC9BED64808AF063F08095F050070CBCA6
:100F030000E50D80E2229008437408F0902E47120A
:100F13000C509008387454F07408A3F0E4A3F090D4
:100F2300083BF07402A3F0900629120934E582FF0E
:100F330060038F8222902E4DE493FF900854E0FDCE
:100F4300A3E0FE7C00C3ED9FEE9C50047582172244
:100F530090062BE0FF7E0090062CE0FCE42FFFECD4
:100F63003EFE9008437408F0902E47C007C0061257
:100F73000C50D006D0078F05900106EDF08E079038
:100F83000107EFF09008387454F07408A3F0E4A359
:100F9300F090083BF07402A3F0900629120934E59F
:100FA30082FF60038F8222758200229008437408B7
:100FB300F0902E4F120C509008387456F07408A31A
:100FC300F0E4A3F090083BF07402A3F0900629022A
:100FD3000934E582900AC4F0E0FF900D65F0E4A3C4
:100FE300F0900112C00712238FAD82AE83D007EDBC
:100FF30024A0F582EE3408F583E4F0A3F0A3F0A374
:10100300F0ED24A0FDEE3408FE8D828E83A3A3A30E
:10101300A3E4F0A3F0A3F0A3F074082DF582E43E5B
:10102300F583E4F0A3F0A3F0A3F0740C2DF582E4B0
:101033003EF583E4F0A3F0A3F0A3F074102DF58242
:10104300E43EF583E4F074912DF582E43EF583E408
:10105300F0FEEE75F009A42458FC740835F0FD7415
:10106300012CFAE43DFB8A828B83E0B507348C8242
:101073008D83E4F08A828B83F08C828D83A3A3F02B
:101083008C828D83A3A3A3F08C828D83A3A3A3A3BC
:10109300F0A3F0A3F0A3F074082CF582E43DF583EC
:1010A300E4F00EBE080040AA227F00EF75F009A409
:1010B300FDAEF02458FBEE3408FC8B828C83E06099
:1010C30033ED2458FDEE3408FE8D828E83A3A3A353
:1010D300A3E0FBA3E0FCA3E0FDA3E0FEBB0615BC7D
:1010E3000012BD000FBE000C90004BC00712055E3E
:1010F300D007802AEF75F009A42458FD740835F051
:10110300FE8D828E83E0600C90003FC00712055E67
:10111300D007800A900045C00712055ED0070FBFB5
:1011230008004087229008A8E0FCA3E0FDA3E0FEAE
:10113300A3E0FF9008ACE0F52FA3E0F530A3E0F5C2
:1011430031A3E0F5329008A0E0F533A3E0F534A332
:10115300E0F535A3E0F5369008A4E0F8A3E0F9A3A1
:10116300E0FAA3E0FBC004C005C006C007C02FC05F
:1011730030C031C032C033C034C035C036C000C007
:1011830001C002C003748FC0E0742EC0E07480C03D
:10119300E01223FDE58124EDF5817431C0E074098B
:1011A300C0E0E4C0E074B0C0E07408C0E0E4C0E0B4
:1011B30074A9C0E0742EC0E07480C0E01223FDE582
:1011C3008124F7F58122E582900AC5F0E0FF7E00D5
:1011D300EE75F009A4FCADF02458FAED3408FB8A4F
:1011E300828B83E06052EC2458FCED3408FD8C8242
:1011F3008D83A3A3A3A3E0F8A3E0F9A3E0FAA3E0FC
:10120300FBB80634B90031BA002EBB002B8C828D9B
:1012130083A3E0FD900830E4F08D82C007C006127E
:101223000743D006D007900AD7EFF08E82C007C0DD
:10123300061216FAD006D0070EBE0800409222907E
:101243000AC7E4F0FFEF75F009A4FDAEF02458FBE4
:10125300EE3408FC8B828C83E070030213F1ED24DF
:1012630058FDEE3408FE8D828E83A3A3A3A3E0F979
:10127300A3E0FAA3E0FBA3E0FCB9060BBA0008BBAA
:101283000005BC000280030213F18D828E83A3E06C
:10129300FC900830E4F08C82C007C006C00512073A
:1012A30043D005D006D0078D828E83A3A3A3E0FE8F
:1012B300747F5E4490FDEE30E7047EC080027E00C2
:1012C300900832EEF0900833E4F0A3F08D82C0076B
:1012D300120775E582D00760030213C9EF75F009A1
:1012E300A42458FD740835F0FE74032DFBE43EFC82
:1012F3008B828C83E0FA6302808B828C83EAF0908A
:101303000AC6E5D1F0E0FAE070030213C98A017A54
:10131300008D828E83A3A3A3A3E0F88B828C83E04A
:10132300FB53037F8D828E83A3E0900D65F0E4A3CE
:10133300F0900112C007C003C002C001C000122315
:101343008FAD82AE83D000D001D002D003D007EDA1
:1013530024A0F582EE3408F583E0F537ED24A0FDF3
:10136300EE3408FE8D828E83A3A3A3A3E0F5387425
:10137300082DF582E43EF583E0FC740C2DF582E440
:101383003EF583E0FE900D36E9F0EAA3F0900D38C8
:10139300E8F0900D39EFF0900D3AEBF0900D3B74BF
:1013A30000F07400A3F0900D3DE537F0900D3EE59D
:1013B30038F0900D3FECF0900D40EEF0758204C0D4
:1013C30007122061D007EF75F009A42458FD7408B3
:1013D30035F0FE74082DF582E43EF583E0FE900AB5
:1013E300C7E0FDC39E40028D06900AC7EEF00FBF13
:1013F30008005003021248900AC7E0FF7E008F8264
:101403008E830205E0AF83E582900ACBF0EFA3F071
:10141300900ACDE4F0A3F0900ACFF0900AD0F090B8
:101423000ACBE0F51BA3E0F51CAC1BAD1C900ACA6C
:10143300E075F009A42458FA740835F0FB900AC843
:10144300E0F519A3E0F51A900ACDE0F515A3E0F550
:1014530016C3E5159519E516951A400122C002C079
:1014630003E515251BF582E516351CF583E0FB9096
:101473000AD174FC5BF074035BF515900AD2F0900B
:101483000AD3E4F0A3F0A3F0A3F07403B51502802C
:1014930006D003D002800BD003D002900AD2E51508
:1014A30004F0900ACDE0F515A3E0F516900AD2E01A
:1014B300F517751800C3E5189517505AC002C003F5
:1014C300AA15AB160ABA00010BA8187900E82AFA84
:1014D300E93BFBEA2CF582EB3DF583E0F8E4FAFB0C
:1014E300E518C40354F8FF8FF005F0800CE828F8E2
:1014F300E933F9EA33FAEB33FBD5F0F1900AD3E0A1
:1015030048F0A3E049F0A3E04AF0A3E04BF005184C
:10151300D003D002809F900ACFE0FF900AD1E0FE73
:10152300E4BEC00104F51879008F15751600E5189F
:101533006008751D01751E008005E4F51DF51EC0CC
:1015430002C003E515C3951DF8E516951EFB890238
:101553007E00C3EA98EE64808BF063F08095F0D050
:1015630003D00250030980C1900AD1E0FFBF0402F7
:101573008062BF08028077BF14030216D5BF180329
:101583000216D5BF24030216D5BF28030216D5BF02
:1015930034030216D5BF44030216D5BF64030216F3
:1015A300D5BF74030216D5BF80030216D5BF8403CB
:1015B3000216D5BF90030216D5BF94030216D5BFFA
:1015C300A0030216C6BFB0030216D5BFC00302169E
:1015D300CF0216D5900AD3E0A3E0F9A3E0FEA3E07F
:1015E300FFC3E994FFEE9400EF94000216D5900A2E
:1015F300D0E07032C004C00574042AFEE43BFF90BF
:101603000AD3E0F8A3E0F9A3E0FCA3E0FD8E828F08
:1016130083E8F0E9A3F0ECA3F0EDA3F0900AD07413
:1016230001F0D005D004900AD3E0F8A3E0F9A3E0D9
:10163300FEA3E0FFC3743898E499E49EE49F50034B
:101643000216D5E8240A83F582E8243D83F583E472
:1016530073D5D5D5D5D5D5D5D5D5D5D5D5D5D5D599
:10166300D5D5D5D5D5D5D5D5D5D5D5D5D5D5D5D527
:10167300D5D5D5D5D5D5D5D5D5D5D5D5D5D5D5D517
:10168300D5D5D5D5D5D5D5D5D5D516161616161681
:1016930016161616161616161616161616161616E7
:1016A30016161616161616161616161616161616D7
:1016B30016161616161616161616161616161616C7
:1016C300161616900ACFE02401F08006900ACFE0A8
:1016D30014F0900AD2E0FF7E000FBF00010E900AC3
:1016E300CDE0F8A3E0F9EF28F8EE39F9900ACDE858
:1016F300F0E9A3F002144AE582900AD8F090084377
:101703007408F0902E77120C50900AD8E075F00907
:10171300A42458FE740835F0FF8E828F83A3A3E0C0
:10172300900104F09001067401F0900AD7E090064E
:1017330029F090083874D9F0740AA3F0E4A3F09068
:10174300083BF0A3F090062902093490084374087B
:10175300F0902E87120C50900ADBE0900102F0907B
:10176300083874DCF0740AA3F0E4A3F090083BF0AB
:10177300A3F0900629020934E582900ADEF090086E
:10178300437408F0902E6F120C50900ADEE075F04F
:1017930009A42458FE740835F0FF74022EFEE43FBA
:1017A300FF8E828F83E0900104F090083874DFF09D
:1017B300740AA3F0E4A3F090083BF0A3F090062989
:1017C300C007C0061209349008437408F0902E7FB6
:1017D300120C50D006D0078E828F83E0900104F064
:1017E300900106E4F09001077402F090083874DF6A
:1017F300F0740AA3F0E4A3F090083BF07402A3F0A2
:10180300900629120934E582FF60038F82227E004D
:101813007F00900ADFE0FCA3E0FDC3EE9CEF9D5048
:10182300070EBE00ED0F80EA900ADEE0FF75F009B7
:10183300A42458FB740835F0FE8B828E83A3A3E0A7
:10184300FA8B828E83A3E0FE900D2FECF0EDA3F0D4
:10185300900D31EFF0900D32EAF0900D33EEF090F1
:101863000D347429F07406A3F0758207C0071220A3
:1018730060D007900ADFE0FDA3E0FE900AC8EDF018
:10188300EEA3F0900ACAEFF09006291214087582AD
:101893000022222222E582900AE5F0900AE6E4F093
:1018A300900AE5E0FF8F3EFDF53A75F003A4FAAB2D
:1018B300F08F3F753B00900064C007C005C003C0B4
:1018C300021205E09000641205E0853F82120FD5F5
:1018D300853F821206A2D002D003D005D007753906
:1018E30000900001C007C005C003C0021205E0D08C
:1018F30002D003D005D0078F82C007C005C003C044
:10190300021206CEE582D002D003D005D0076008CC
:101913000539749C253950C97464B539188F82C050
:1019230007C005C003C00212061DD002D003D005B4
:10193300D007021F09900830E4F08D82C007C0056C
:10194300C003C002120743120C86AC82D002D0033C
:10195300D005D007900AE6ECF0EC6003021EB2C09B
:1019630002C003900D65EDF0E4A3F0900112C007EF
:10197300C005C00212238FAB82AC83D002EB24A03C
:10198300F53CEC3408F53D900631E0F879007A0037
:101993007E00853C82853D83E8F0E9A3F0EAA3F06D
:1019A300EEA3F0EB24A0F53CEC3408F53D740425DC
:1019B3003CFCE4353DFE900632E0F87B008C828EE1
:1019C30083E8F0E9A3F0EAA3F0EBA3F07408253C65
:1019D300FCE4353DFE900633E0F87B008C828E8379
:1019E300E8F0E9A3F0EAA3F0EBA3F0740C253CFCC8
:1019F300E4353DFE900634E0F87B008C828E83E86C
:101A0300F0E9A3F0EAA3F0EBA3F0900629C003C02A
:101A130002120ED3D002D003D005902E59E4932D99
:101A2300F539853982C005C003C002120CE0AE82CD
:101A3300D002D003D005D007900AE6EEF0D003D051
:101A430002EE6003021EB2ED75F003A42429FC74B8
:101A53000835F0FE8C828E83A3E539F0900638E0DA
:101A6300FE900637E0FCEE7003021AFE8E82C0077A
:101A7300C005C004C003C002120D5A900629120EFD
:101A8300D3D002D003D004D00590084B7429F0744E
:101A930006A3F090084DE4F07402A3F090084FED14
:101AA300F0900629C005C004C003C002120DCCE5A6
:101AB30082D002D003D004D005D007603E749125B4
:101AC3003CF9E4353DF87E00900D597429F0740615
:101AD300A3F0E4A3F0900D5C7480F0E4A3F089829A
:101AE30088838EF0C007C005C004C003C002122261
:101AF300B2D002D003D004D005D007EC7003021B90
:101B0300958C82C007C005C003C002120D5A90060F
:101B130029120ED390084B7429F07406A3F0900891
:101B23004DE4F07402A3F090084FE53EF0900629CF
:101B3300120DCCE582D002D003D005D007605390BC
:101B43000D65E53EF0E4A3F0900112C007C005C0A7
:101B530003C00212238FAC82AE83EC24A0FCEE34CC
:101B630008FE74102CFCE43EF97E00900D59742994
:101B7300F07406A3F0E4A3F0900D5C7480F0E4A38A
:101B8300F08C8289838EF01222B2D002D003D0056A
:101B9300D007C007C005C003C002120F09AE82D030
:101BA30002D003D005D007900AE6EEF0EE60030200
:101BB3001EB290062BE0FE7C0090062CE0F9E42E8A
:101BC300FEE93CFC900AE5E0F909900D2FEEF0ECFC
:101BD300A3F0900D31E539F0900D32E9F0900D331B
:101BE30074AAF0900D347429F07406A3F07582067C
:101BF300122060900CE9E4F0A3F0900CEBF0FCFEF3
:101C030090062BE0F9893C753D0090062CE0F9E441
:101C1300253CF53CE9353DF53D8C008E01C004C003
:101C230006AC3CAE3DC3E89CE99ED006D004500709
:101C33000CBC00CC0E80C990062EE0F582120D2B51
:101C430090062BE0FE7C0090062CE0F9E4F82EFED3
:101C5300E93CFC8E458C467900C3E89545E99546F9
:101C63005023E824E9F53CE9340AF53DE82429F555
:101C730082E93406F583E0853C82853D83F008B82C
:101C830000D70980D4900629E0900AE7F0E4A3F096
:101C9300900AE5E0F540854047900AE7E0F53CA36C
:101CA300E0F53DC3E53C9545E53D95464003021E01
:101CB300AEE53C24E9F53CE53D340AF53D900CECFA
:101CC300E53CF0E53DA3F0853C82853D83A3E0F54B
:101CD300397404B5390280237405B53903021D66CE
:101CE3007421B53903021E3B7424B53903021E6403
:101CF3007425B53903021E6F021E7AA83CA93D88DC
:101D0300418942900CE9E541F0E542A3F0900AE1F4
:101D1300E541F0E542A3F0854082121895854182A2
:101D2300854283A3A3A3A3A3E0F9B9032585418235
:101D3300854283A3A3A3A3A3A3E0F9B90114854117
:101D430082854283A3A3A3A3A3A3A3E0F9B90102BA
:101D53008004C2018002D201900CEBA201E433F0B3
:101D6300021E83853C82853D83120ED3900CEBE0EB
:101D73007003021E83A83CA93D8841894274022551
:101D830041F543E43542F544854382854483E020AD
:101D9300E703021E837900E975F009A42458F87457
:101DA3000835F0FE88828E83E0600609B90800409A
:101DB300E6E975F009A42458F548740835F0F549A7
:101DC30074032548F8E43549FE854382854483E05E
:101DD30088828E83F08548828549837401F00425C7
:101DE30048F543E43549F544900CE9E0F8A3E0FEF7
:101DF30088828E83A3A3E0854382854483F085484C
:101E030082854983A3E547F074082548FCE43549F6
:101E1300FE854182854283A3A3A3A3A3A3E08C826F
:101E23008E83F08982C00112177BD001900ADBE414
:101E3300F0898212174E8048900CE9E0FCA3E0FE83
:101E4300900CE9E0F5F0A3E045F06034A83CA93D2F
:101E5300900AE3E8F0E9A3F08C828E83121896804F
:101E63001F853C82853D83120ED38014853C828579
:101E73003D83120ED38009853C82853D83120ED3A8
:101E8300900CECE0FCA3E0FE8C828E83E0FC900AD5
:101E9300E7E0F9A3E0FE8C007C00E829F9EC3EFEC4
:101EA300900AE7E9F0EEA3F0021C9C75820022ACD5
:101EB3003A0C900AE6E0FE900D2FE4F0A3F0900DAB
:101EC30031ECF0900D32EEF0900D3374EEF0900D96
:101ED30034E4F0A3F0758203C007C005C003C00259
:101EE300122060D002D003EA2429F582EB3408F5EE
:101EF300837402F0758201C003C00212068ED00201
:101F0300D003D005D007053B74F6253B40030218E8
:101F1300B9900AE6E0F58222900CEEE4F010D803C3
:101F2300021FB1E5DB30E349900829E06008E5E4EE
:101F330030E003021FB175820012061D9008297458
:101F430001F0900D2FE4F0A3F0900D3104F0900D0B
:101F530032F0900D33F0900D34E4F0A3F07582016C
:101F6300122060758200121898E582900CEEF080C2
:101F73003D900829E0FFBF01004033758200120F36
:101F8300D575820012061D900D2FE4F0A3F0900D7D
:101F93003104F0900D32F0900D33F0900D34E4F0F5
:101FA300A3F0758202122060900CEE7416F0900C70
:051FB300EEE0F58222C2
:102E3F008006000100001200800600020000120050
:102E4F0081060004000009000005020000000000D8
:102E5F0080060003090402000009000000000000C2
:102E6F00210A0000000000002109000200000000FC
:102E7F00810600220000FF00210B0000000000006F
:102E8F0030782530326C782530326C783A307825AE
:102E9F0030326C782530326C7800202D202573204D
:032EAF0025730088
:012EC500000C
:101FB80010980122AF99BF0A02800D900D9FE0FE94
:101FC800BE0400500302204A900CEFE0FDBDC91783
:101FD80090005512055E1210AC90005612055E90E6
:101FE800000A12055E804FBDC41190004512055EBF
:101FF80012112890000A12055E803BBDD620900081
:102008005712055E90008212055E90008012055EF0
:1020180090008212055E90000A12055E8018BDD2FB
:102028000512006A8010BDCC0D900CF0E0FD530540
:102038001F8D821211C9900D9FE4F0900CEFF002F1
:102048001FB8EE24EFF582E4340CF583EFF0900D21
:102058009FE02401F0021FB822E582900D41F09024
:102068000D4274FEF0E4A3F0900D41E0FFBF0402BE
:10207800800122900D38E0FFBF0602800122900007
:10208800FE12055E900D3BE0FEA3E0FF900D36E0EA
:10209800FCA3E0FD7A007B00C3EA9CEB9D5031C0B5
:1020A80004C005EA2EF582EB3FF583E0F9900D4276
:1020B800E0F8A3E0FD7C00E928F8EC3DFD900D4236
:1020C800E8F0EDA3F00ABA00010BD005D00480C8EF
:1020D800900D42E0FAA3E0FB740A2AFAE43BFB9075
:1020E8000D42EAF0EBA3F08E028F030EBE00010F43
:1020F800900D42E0F8A3E0C3E4988E828F83F07ECF
:10210800007F00C3EE9CEF9D5032EE2AF582EF3B34
:10211800F583E0F8790088828983C007C006C00586
:10212800C004C003C00212055ED002D003D004D0A0
:1021380005D006D0070EBE00CA0F80C790000A025D
:02214800055E32
:082EB200AA5556455202000228
:012EC600000B
:10214A00AF82AE83ADF0FC900D48EFF0EEA3F0ED58
:10215A00A3F0ECA3F0900D4CE4F0A3F0A3F0A3F0ED
:10216A00900D44E0FCA3E0FDA3E0FEA3E0FF7B208A
:10217A00C003900D48E0F8A3E0F9A3E0FAA3E0FB5E
:10218A00900D50235401F0E828F8E933F9EA33FABC
:10219A00EB33FB900D48E8F0E9A3F0EAA3F0EBA3D8
:1021AA00F0900D4CE0F8A3E0F9A3E0FAA3E0FBE815
:1021BA0028F8E933F9EA33FAEB33FB900D4CE8F0EF
:1021CA00E9A3F0EAA3F0EBA3F0D003900D50E0608E
:1021DA0008900D4CE043E001F0900D4CE0F515A39A
:1021EA00E0F516A3E0F517A3E0F518C3E5159CE59D
:1021FA00169DE5179EE5189F401F900D4CE515C3E7
:10220A009CF0E5169DA3F0E5179EA3F0E5189FA3A1
:10221A00F0900D48E043E001F01BEB600302217AE5
:10222A00900D48E0FCA3E0FDA3E0FEA3E08C828DC4
:04223A00838EF0227D
:06003700E478FFF6D8FD9D
:10223E00AFF0AE83E582900D56F0EEA3F0EFA3F073
:10224E00900D56E0F515A3E0F516A3E0F517AA15C7
:10225E00AB16AC17900D51E0F8A3E0F9A3E0FF9098
:10226E000D54E0F518A3E0F519AD18AE1915187454
:10227E00FFB518021519ED4E6020888289838FF004
:10228E00122E1FFEA3A882A9838A828B838CF0EE66
:10229E00122374A3AA82AB8380CF85158285168301
:0422AE008517F0227E
:100015007902E94400601B7A01902EC5789E75A08F
:100025000DE493F2A308B8000205A0D9F4DAF2753D
:02003500A0FF2A
:1022B200AFF0AE83E582900D5EF0EEA3F0EFA3F0F7
:1022C200900D5EE0FDA3E0FEA3E0FF900D61EDF056
:1022D200EEA3F0EFA3F0900D5CE0FBA3E0FC900D09
:1022E20059E0F8A3E0F9A3E0FAEB4C603488828964
:1022F200838AF0122E1FF51560271BBBFF011C08F5
:10230200B80001098D828E838FF0E515122374A324
:10231200AD82AE83900D5EEDF0EEA3F0EFA3F08000
:10232200C8900D5EEDF0EEA3F0EFA3F08B018C02EE
:102332001BBBFF011CE94A601C8D828E838FF0E477
:10234200122374A3AD82AE83900D5EEDF0EEA3F086
:10235200EFA3F080D7900D5EEDF0EEA3F0EFA3F0C7
:10236200900D61E0FDA3E0FEA3E0FF8D828E838FDE
:10237200F02220F71130F6138883A88220F509F69F
:10238200A8837583002280FEF280F5F022AA83AB37
:10239200828BF0900D65E0A4F8A9F08AF0E0A42900
:0D23A200F98BF0A3E0A429F58388822222A4
:10003D007800E84400600A790075A006E4F309D859
:10004D00FC789EE84407600C7908900600E4F0A364
:04005D00D8FCD9FAF8
:02000600E473A1
:1023AF00C0148581147E008E8312055ED01422AF77
:1023BF00F0AE83E582900D68F0EEA3F0EFA3F090FE
:1023CF000D68E0FDA3E0FEA3E0FF900D67E0FC9039
:1023DF000D7CE4F0A3F0A3F0900D7FEDF0EEA3F0F1
:1023EF00EFA3F0900D82ECF09023AF022503C01401
:1023FF00E581F51424FBFF900D7CE4F0A3F0A3F02E
:10240F00E51424FBF8900D7FE6F008E6A3F008E64C
:10241F00A3F0900D82EFF09023AF122503D014227A
:10242F00E582900D78F0E0FF900D6EE0C0E0A3E044
:10243F00C0E0A3E0C0E012244A800D900D6CE0C014
:10244F00E0A3E0C0E08F8222158115811581900DE8
:10245F0076E02401F0A3E03400F022E582900D79BC
:10246F00F0E02430FF24C6500D74072FFF900D6B42
:10247F00E060034307208F8202242FE582900D7ABC
:10248F00F0E0FFC4540FF582C00712246AD007533F
:10249F00070F8F8202246AE582900D7BF0900D71F9
:1024AF00E0FCA3E0FDA3E0FEA3E0FF900D75E0FBD1
:1024BF00900D7BE0FA79208B00E828F515EF235477
:1024CF00014515FBEC2CFCED33FDEE33FEEF33FF36
:1024DF00C3EB9A4007EBC39AFB43040119E970D78A
:1024EF00900D71ECF0EDA3F0EEA3F0EFA3F0900DD3
:1024FF0075EBF022AF83E582900D83F0EFA3F090A0
:10250F000D83E0FEA3E0FF900D6CEEF0EFA3F090D3
:10251F000D7CE0FDA3E0FEA3E0FF900D6EEDF0EE6D
:10252F00A3F0EFA3F0900D76E4F0A3F0900D7FE011
:10253F00FDA3E0FEA3E0FF8D828E838FF0122E1F8E
:10254F00FC900D7F74012DF0E43EA3F0EFA3F0ECAF
:10255F007003022DFBBC25028003022DF3900D8525
:10256F00E4F0900D86F0900D87F0900D88F0900DAF
:10257F0089F0900D8AF0900D8BF0900D8CF0900DEE
:10258F008EF0900D8FF0A3F0900D9114F0A3F090BA
:10259F000D7FE0FDA3E0FEA3E0FF8D828E838FF021
:1025AF00122E1FFBA3AD82AE83900D7FEDF0EEA335
:1025BF00F0EFA3F0900D95EBF0BB25088B82122462
:1025CF002F02253BBB3000500302269CEB24C65044
:1025DF000302269C900D91E0F50AA3E0F50B74FF22
:1025EF00B50A63B50B60C005C006C007900D8FE03C
:1025FF00FAA3E0FF900D65EAF0EFA3F090000AC098
:10260F0005C00312238FAE82AF83D003D0058B0595
:10261F007A00ED2EFEEA3FFFEE24D0FEEF34FFFFEF
:10262F00900D8FEEF0EFA3F0D007D006D005900DF0
:10263F008FE0F5F0A3E045F060030225A9900D8629
:10264F007401F00225A9C005C006C007900D65E50D
:10265F000AF0E50BA3F090000AC006C005C00312F4
:10266F00238FAA82AF83D003D005D0067E00EB2A3A
:10267F00FAEE3FFFEA24D0FAEF34FFFF900D91EA14
:10268F00F0EFA3F0D007D006D0050225A9900D9545
:10269F00E0FBBB2E2FC005C006C007900D91E0FADE
:1026AF00A3E0FFBAFF05BFFF028009D007D006D015
:1026BF00050225A9D007D006D005900D91E4F0A30F
:1026CF00F00225A9BB61004014EB2485400F900D4B
:1026DF009574DF5BF0900D6B7401F08005900D6BBE
:1026EF00E4F0900D95E0FBBB20028075BB2B0280C0
:1026FF0067BB2D028059BB4202806FBB4302807CB7
:10270F00BB4403022993BB46030229B9BB4803020A
:10271F0025A9BB4903022993BB4A030225A9BB4C38
:10272F00028050BB4F030229A1BB5003022901BBFA
:10273F0053028077BB54030225A9BB55030229A975
:10274F00BB58030229B1BB5A030225A90229C19024
:10275F000D857401F00225A9900D877401F00225F3
:10276F00A9900D887401F00225A9900D8A7401F0CB
:10277F000225A9900D8B7401F00225A9900D8AE016
:10278F00600E900D82E014F9F0900D95E7F0800F38
:10279F00900D82E024FEFFF08F01900D95E7F090F1
:1027AF000D95E0F58212242F0229D0900D82E0249E
:1027BF00FDFFF08F01870509870609870719199013
:1027CF000D71EDF0EEA3F0EFA3F08D828E838FF0FD
:1027DF00122E0785820A85830B900D91E0FAA3E0F4
:1027EF00FDBAFF0DBDFF0A900D91E50AF0E50BA3B1
:1027FF00F0900D85E0704B900D8FE0FAA3E0FDC3D4
:10280F00E50A9AE50B9D503A900D8FEAC3950AF0B1
:10281F00ED950BA3F0900D8FE0FAA3E0FD8A068DE6
:10282F00071ABAFF011DEE4F6010758220C005C058
:10283F000212242FD002D00580E3900D8FEAF0ED25
:10284F00A3F0900D91E0F50DA3E0F50E900D71E062
:10285F00FAA3E0FDA3E0FF8A828D838FF0122E1F73
:10286F00F50C603CC3E4950D7480850EF063F08029
:10287F0095F0502C150D74FFB50D02150E850C82B9
:10288F0012242F900D71E0FAA3E0FDA3E0FF0ABA26
:10289F0000010D900D71EAF0EDA3F0EFA3F080AC05
:1028AF00900D85E070030229D0900D8FE0FEA3E01C
:1028BF00FFC3E50A9EE50B9F40030229D0900D8FC1
:1028CF00EEC3950AF0EF950BA3F0900D8FE0FEA3EA
:1028DF00E0FF8E028F051EBEFF011FEA4D7003023F
:1028EF0029C8758220C007C00612242FD006D00732
:1028FF0080E0900D82E024FDFDF08D01870F0987A8
:10290F00100987111919900D71E50FF0E510A3F05B
:10291F00E511A3F0900D73E0FDBD80004008900D10
:10292F00957443F08020BD60004008900D95745061
:10293F00F08013BD40004008900D957449F080065B
:10294F00900D957458F0900D95E0FDF582C005122D
:10295F00242F75823A12242F75823012242F7582FC
:10296F007812242FD005BD4902800EBD5002800978
:10297F00900D72E0F58212248A900D71E0F58212AB
:10298F00248A803D900D897401F0900D8E740AF0A9
:10299F00802F900D8E7408F08027900D8E740AF0A2
:1029AF00801F900D8E7410F08017900D8C7401F0B5
:1029BF00800F8B8212242F8008900D8FEEF0EFA3E3
:1029CF00F0900D8CE06071900D82E024FCFFF08F91
:1029DF0001870309870509870609870719191990C0
:1029EF000D71EBF0EDA3F0EEA3F0EFA3F0900D71EE
:1029FF0074BAF0742EA3F07480A3F0900D71E0F50B
:102A0F000FA3E0F510A3E0F5117401250FFAE435DB
:102A1F0010FBAF11900D71EAF0EBA3F0EFA3F0856F
:102A2F000F828510838511F0122E1FFF7003022570
:102A3F003B8F8212242F80C3900D8EE070030225EE
:102A4F003B900D8AE06047900D82E014F9F0870704
:102A5F007E007D007B00900D71EFF0EEA3F0EDA3F3
:102A6F00F0EBA3F0900D89E06003022B13900D7132
:102A7F00E0FBA3E0A3E0A3E07D007E007F00900DCC
:102A8F0071EBF0EDA3F0EEA3F0EFA3F08076900DD5
:102A9F008BE06028900D82E024FCFFF08F0187030C
:102AAF00098705098706098707191919900D71EB11
:102ABF00F0EDA3F0EEA3F0EFA3F08048900D82E0CD
:102ACF0024FEFFF08F01870609870719EF3395E082
:102ADF00FDFB900D71EEF0EFA3F0EDA3F0EBA3F083
:102AEF00900D89E0701E900D71E0FBA3E0FDA3E057
:102AFF00A3E07E007F00900D71EBF0EDA3F0EEA34D
:102B0F00F0EFA3F0900D89E0603D900D71E0A3E030
:102B1F00A3E0A3E030E72B900D71E0FBA3E0FDA352
:102B2F00E0FEA3E0FFC3E49BFBE49DFDE49EFEE417
:102B3F009FFF900D71EBF0EDA3F0EEA3F0EFA3F07C
:102B4F008005900D89E4F0900D8D7401F0900D8E3D
:102B5F00E0F50D75129B75130DE4F50AF50B900D4D
:102B6F0075E4F0850D821224A6900D8DE0703390E0
:102B7F000D75E0C454F0F50F900D75E0C4540F457A
:102B8F000FF50F851282851383E0FFE50F4207854E
:102B9F001282851383EFF0151274FFB5120215130D
:102BAF00800B900D75E0851282851383F0050AE482
:102BBF00B50A02050B900D8DE0B40100E433F090DF
:102BCF000D71E0FAA3E0FBA3E0FEA3E0FFEA4B4E9A
:102BDF004F708B900D9CE512F0E513A3F0900D93C1
:102BEF00E50AF0E50BA3F0900D8FE0F5F0A3E045BB
:102BFF00F07009900D8F7401F0E4A3F0900D86E052
:102C0F00FFE07047900D85E07041850A12850B1328
:102C1F00900D8FE0FAA3E0FBC007AF120F8F067F76
:102C2F0000C3EE9AEF9BD0075019758220C007C0E2
:102C3F0003C00212242FD002D003D0071ABAFF010B
:102C4F001B80D5900D8FEAF0EBA3F0900D89E0601B
:102C5F002075822DC00712242FD007900D8FE024EE
:102C6F00FFFDA3E034FFFE900D8FEDF0EEA3F0809B
:102C7F0056900D93E0F5F0A3E045F0604A900D8774
:102C8F00E0602075822BC00712242FD007900D8F84
:102C9F00E024FFFDA3E034FFFE900D8FEDF0EEA3D7
:102CAF00F08024900D88E0601E758220C0071224EA
:102CBF002FD007900D8FE024FFFDA3E034FFFE908F
:102CCF000D8FEDF0EEA3F0900D85E07044900D9315
:102CDF00E0F512A3E0F513900D8FE0FAA3E0FBC02F
:102CEF00078A068B071ABAFF011BC3E5129EE5136D
:102CFF009FD007504FEF60047E3080027E208E827F
:102D0F00C007C003C00212242FD002D003D0078007
:102D1F00CE900D8FE0FEA3E0FF900D93E0F512A390
:102D2F00E0F513C3E5129EE5139F500F900D8FEE44
:102D3F00C39512F0EF9513A3F08011900D8FE4F06F
:102D4F00A3F08008900D8FEAF0EBA3F0900D9CE0BC
:102D5F00FEA3E0FF900D93E0F512A3E0F513AA1286
:102D6F00AD13151274FFB512021513EA4D6044909E
:102D7F000D8DE0B40100E433F0900D8DE070130E73
:102D8F00BE00010F8E828F83E0C4540F900D75F03B
:102D9F00800E8E828F83E0FD53050F900D75EDF041
:102DAF00900D75E0F582C007C00612246AD006D0D8
:102DBF000780AB900D85E0700302253B900D8FE0EF
:102DCF00FEA3E0FF8E038F051EBEFF011FEB4D70AC
:102DDF000302253B758220C007C00612242FD006A0
:102DEF00D00780E08C8212242F02253B900D76E0D5
:082DFF00FEA3E08E82F58322A1
:0B2EBA003C4E4F20464C4F41543E0060
:102E0700AA82AB83122E1F6003A380F8C3E5829AC0
:082E1700F582E5839BF583229F
:0D000800758149122E3BE582600302000362
:102E1F0020F71430F6148883A88220F507E6A883DC
:102E2F0075830022E280F7E49322E022758200226C
:00000001FF
